:020000040000FA
:06000000020A3C0201C6E9
:03002B0002088741
:030033000206A31F
:0300430002073C75
:030053000200F7B1
:03006B0002068901
:1000830002015B0101FF01010503010F10FEFFCC1B
:1000930012CC12CC12CC1288118211CC12B62D00C4
:1000A300000000F22C000000000C0000000C000116
:1000B30004FFFF414C44323533302044485431313E
:1000C300000102007605000000E905640002020059
:1000D300080000050207051E02051E020A0A03B8EE
:1000E3000B02803E01023412141F00E007965118E0
:1000F30000020206C0E074F21203DFA2AFE433FE93
:10010300D2AFE5A7FFE5A1F5085F54106006121A08
:10011300AC75A1EFE5085F54086008121AB275A127
:10012300F7802BEFA2E0C0D0E508A2E092F012091D
:1001330063158182F05017906198E0F8900AC7E048
:10014300C398A2D265D0335002E8F075A1FEEEA2A7
:10015300E092AF7F0102043EC0E074F21203DFA21B
:10016300AFE433FED2AF9061A4E0F8759B00E59154
:1001730058540860087591F7121AFA802AE59158C5
:10018300541060087591EF121B00801BE8A2E0C0B9
:10019300D0E591A2E092F0120963158182F0500735
:1001A300E0C2E0F0121C449061A3E0F8E5E9585482
:1001B30004600E121C1A75E9FB906193E0A2E640FD
:1001C300F2808BC0E074F21203DFA2AFE433FED2FD
:1001D300AF9061A5E0F8E5BF585404600675BFFB16
:1001E300121C5C020151C3E498F8E499F912022A43
:1001F3008026C3E49AFAE49BFBE920E7E912022A8A
:10020300E498F8E499F922C3E498F8E499F912021E
:100213002AE498F8E499F9C3E49AFAE49BFB22EB05
:1002230020E7CFE920E7E0B90010BB0008E88AF037
:1002330084F8AAF022E4FBC8FA22EB70227B10C8F0
:1002430033C8C933C9335007C39AC3DBF280069A54
:1002530050012ADBEAC833F4C8C933F4C9FA22755A
:10026300F008E4C833C8C933C933C99AC99B5004D9
:10027300C92AC93BD5F0ECFBC833F4C8E4C9FA2258
:10028300080808EAC0E0EBC0E086F0E7A4FA180922
:1002930086F0E7A42AFA180986F0E7A42AFA1809CF
:1002A30086F0E7A42AFA1986F0E7A4FBE5F02AFA18
:1002B300190886F0E7A42BFBE5F03AFA190886F053
:1002C300E7A42BFBE5F03AFA18180986F0E7A4C572
:1002D300F02BFBE43AFA1908E7C5F0C6A426F6E5C5
:1002E300F03BFBE43AFA1886F0E7A4F6E5F00826BB
:1002F300F6E43B08F6E43A08F6D0E0FBD0E0FA2255
:10030300E4CFC0E0E4CEC0E0E4CDC0E0E4CCC0E0A4
:1003130075F020C3E633F608E633F608E633F6084D
:10032300E633F6181818EC33FCED33FDEE33FEEF2D
:1003330033FFC3EC9709ED9709EE9709EF97191966
:1003430019400FFFEC97FC09ED97FD09EE97FE1995
:100353001906D5F0BEECF709EDF709EEF709EFF74B
:10036300191919D0E0FCD0E0FDD0E0FED0E0FF2267
:100373002518C582C0E0E51934FFC583C0E0E51840
:10038300C3958224F810AF088583198582188008E5
:10039300858319858218D2AFCEF0A3E520F0A37828
:1003A30008E608F0A3DEFAEFF0A3E58124FAF8E605
:1003B30008F0A3E608F0A3E608F0A30808E608F0AF
:1003C300A3E608F0A315811581D0E0FED0E0F8156F
:1003D3008115811581E8C0E0EEC0E022C0D0251868
:1003E300C582C0E0E51934FFC583C0E0E518C395B5
:1003F3008224F310AF0885831985821880088583CA
:1004030019858218D2AFC8F0A3E9F0A3EAF0A3EBF1
:10041300F0A37908E709F0A3D8FAECF0A3EDF0A371
:10042300EEF0A3EFF0A3D0E0F0A3D0E0F0A3D0E090
:10043300F0A3E520F0A3E5F0F0A322851983851846
:1004430082E0C0E0A3E0F9A3E0FAA3E0FBA378080D
:10045300E0F608A3DFFAE0FCA3E0FDA3E0FEA3E0DF
:10046300FFA3E0C0E0A3E0C0E0A3E0F5D0A3E0F584
:1004730020A3E0A3F5F010AF0885831985821880C7
:1004830008858319858218D2AFD082D083D0E0F853
:10049300D0E032120A9EB900030204D8E4900301AB
:1004A300788E790E8002F0A3D8FCD9FA90108EAA28
:1004B30082AB83900086787279018015E493A3ACB4
:1004C30082AD838A828B83F0A3AA82AB838C828DD5
:1004D30083D8E9D9E77582AC7583FC74011207FFF1
:1004E3007582F075831E74001207FF150075F010F6
:1004F3008E1A8F1B85821F85831E8518828519831B
:10050300E0CEA3E0CF851F82851E83EBC9EAC8ED49
:10051300CBECCAC3E833C8E933C9EA33CAEB33CBFC
:10052300C3EA9EF51DEB9FF51CB35004AB1CAA1D3B
:10053300EC33CCED33CDD5F0DAAE1AAF1B22D0833A
:10054300D082ECC0E0EDC0E0E493A3FCE493A3FD10
:10055300ED4C600D120619EC24FFFCED34FFFD8019
:10056300EFE493A3FCE493A3FDED4C600D1206E7C7
:10057300EC24FFFCED34FFFD80EFD0E0FDD0E0FC88
:10058300E493A3C0E0E493C0E02285198385188235
:10059300E0A3FEE0A3F5207808E0A3F608DFFAE085
:1005A300A3FFE0A3C0E0E0A3C0E0E0A3C0E0E0A3BA
:1005B300C0E0E0A3C0E010AF0885821885831980EE
:1005C30008858218858319D2AFD083D082020805AB
:1005D300D083D082E9C0E0E493A3C386F0C5F0954D
:1005E300F0F908E493A386F0C5F095F0700BE4935B
:1005F300A3C3994005E9048002A3E475F002A4258E
:1006030082F582E5F03583F583D0E0F9E493A3C066
:10061300E0E493C0E022C0E0C3E49396087401933E
:100623009618400FE4936670080874019366187077
:10063300007019A3A3C3E49396087401939618A3B7
:10064300A3400DD0E0D0E0D0E002057DA3A3A3A397
:10065300A3A3D0E0227404800474028000CCC0E021
:10066300EDC0E0E518C39CCCAD1950011D10AF06D9
:100673008C188D1980068C188D19D2AF120781D072
:10068300E0FDD0E0FC22C0E074F21203DFE589A2B2
:10069300E15003121956758900C2C57F0102043E59
:1006A300C0E074F21203DFE58BA2E0500312195687
:1006B300758B00C2E880E474028000CCC0E0EDC01A
:1006C300E0E518C39CCCAD1950011D10AF068C1882
:1006D3008D1980068C188D19D2AF12075FD0E0FDFB
:1006E300D0E0FC22C0E0C0F088F0E4936670080814
:1006F30074019366187000A8F0A3A3700BD0F0D018
:10070300E0D0E0D0E002057DA3A3D0F0D0E022D07A
:1007130083D082CCC0E0E493A360061207C11470B7
:10072300FAE493A360061208D11470FAD0E0FCE453
:1007330093A3C0E0E493C0E022C0E074F21203DFAD
:10074300A2AFE433FED2AFC2C0E5D1A2E45003129C
:100753001A22EEA2E092AF7F0102043ECAC0E0E497
:1007630093A3C582CCC582C583CDC583F0A3C582BF
:10077300CCC582C583CDC583DAE5D0E0CA22CAC021
:10078300E0E0A3C582CCC582C583CDC583F0A3C5F4
:1007930082CCC582C583CDC583DAE6D0E0CA227098
:1007A30009080808226016181818C6C333C608C6F5
:1007B30033C608C633C608C633C6D5E0EA22C0E04E
:1007C300E493A3D39C5010E493A3C39C400AD0E0CA
:1007D300D0E0D0E002072FA3A3A3D0E022C008C338
:1007E300E096F50808A3E096420808A3E0964208BD
:1007F30008A3E09645087001D3D00822C09FF59F57
:10080300E473D09F22D083D082C09FE493C0E0746E
:100813000193C0E0740293F59F222518F58210AF6F
:1008230008F518400215198008F51840021519D269
:10083300AF851983227404800A74038006740280CE
:10084300027401C0E0F40412081DD0E0120A7922F8
:10085300C0D0251810AF08F518500205198008F507
:100863001850020519D2AFD0D022BB0102E722C033
:1008730082C08389828A83BB0003E08002E493D031
:1008830083D08222C0E0C0D0E8C0E0E5A8D2AFC2E6
:10089300C7A2E792AFD0E0F8D0D0D0E0326016081C
:1008A3000808C6C313C618C613C618C613C618C687
:1008B30013C6D5E0EA22C3E0C696F608A3E0C696BF
:1008C300F608A3E0C696F608A3E0C696F622C0E0B3
:1008D300E493A36C7009D0E0D0E0D0E002072FA32B
:1008E300A3D0E022251810AF08F51840021519808F
:1008F30008F51840021519D2AF22E76670100809EF
:10090300E766700A0809E76670040809E76622E0EB
:1009130066701008A3E066700A08A3E06670040816
:10092300A3E06622C3E09608A3E09608A3E0960836
:10093300A3E096A2D265D03322C3E096F008A3E0E9
:1009430096F008A3E096F008A3E096F022E026F0E4
:1009530008A3E036F008A3E036F008A3E036F0225F
:10096300C0E0E8C0E0E58124FCF8E6A2E7D0E0F8C7
:10097300D0E022E647F60809E647F60809E647F617
:100983000809E647F622E026F608A3E036F608A3B0
:10099300E036F608A3E036F622E627F60809E6373E
:1009A300F60809E637F60809E637F622E657F608A9
:1009B30009E657F60809E657F60809E657F622E06E
:1009C30056F608A3E056F608A3E056F608A3E05649
:1009D300F622E056F008A3E056F008A3E056F0082C
:1009E300A3E056F022700422600D18C6C333C60874
:1009F300C633C6D5E0F41822E4C396F608E496F6A7
:100A030008E496F608E496F622C6F4C608C6F4C6C9
:100A130008C6F4C608C6F4C622C3E7960809E796D3
:100A23000809E7960809E79622C3E09608A3E0962B
:100A330008A3E09608A3E0962275D000758140755F
:100A4300180175190300020496E0F608A3E0F608FE
:100A5300A3E0F608A3E0F622600C08C6C313C61889
:100A6300C613C6D5E0F422E6F008A3E6F008A3E631
:100A7300F008A3E6F022CAC0E0E6F0A308DAFAD051
:100A8300E0FA22E0FAA3E0FBA3E0FCA3E0FD22EA04
:100A9300F0A3EBF0A3ECF0A3EDF022E5C754F84488
:100AA30001F5C77901222518F582E43519F583226A
:100AB300C2AF75D69F02000022120808D7DF0212C8
:100AC3000808B9E0021208080EE3021208085BE402
:100AD30002120808FEE40212080845E6021208089A
:100AE30063E602120808A32F00120808B52F0012AC
:100AF3000808073000120808683000120808F230AE
:100B030000120808963100120808EA31001208089A
:100B13000332001208082932001208086432001256
:100B23000808A83200120808CF3200120808203340
:100B330000120808D033001208088834001208088D
:100B430050350012080810360012080854360012F7
:100B53000808793600120808BC360012080809375D
:100B630000120808613800120808E7380012080864
:100B73000539001208082F390012080849390012F4
:100B83000808583900120808633900120808233A84
:100B9300001208087C3A001208083E3B00120808BD
:100BA300463B001208080A3C00120808763C001273
:100BB3000808A13D00120808C63D001208083C3E83
:100BC30000120808CE3E001208088E3F00120808E3
:100BD300AD3F00120808BC4000120808CE400012C6
:100BE30008083E4100120808684100120808F6414F
:100BF300001208082F42001208087B42001208085E
:100C0300974300120808E04500120808EB4500125C
:100C13000808F645001208080146001208080B46AA
:100C23000012080816460012080830460012080889
:100C33003A46001208084446001208084F460012BC
:100C43000808774600120808D24600120808DC4656
:100C53000012080800470012080824470012080879
:100C6300824700120808C64700120808E24700122C
:100C73000808594800120808914800120808DD487E
:100C8300001208083A4900120808F449001208083B
:100C9300D84B00120808314C00120808614D0012AD
:100CA3000808874D00120808104F001208088C52DC
:100CB300001208085E54001208082756001208089C
:100CC300D456001208083F5800120808DE580012D4
:100CD30008082359001208088D59001208089C5966
:100CE30000120808235C00120808D55D00120808EA
:100CF300425E00120808215F001208083A600012E1
:100D03000808B76100120808D661001208082B62B0
:100D1300001208083063001208085863001208081C
:100D2300B063001208088F6400120808D36400122D
:100D330008081E6500120808896500120808CA66BB
:100D4300001208082E67001208087C6800120808C1
:100D5300DC6A001208080D6B00120808C56C00124B
:100D630008081A6D001208081E6E00120808BB6EF0
:100D730000120808146F00120808C76F0012080851
:100D8300697000120808097100120808AE71001298
:100D93000808DE81011208081D8201120808648414
:100DA30001120808AE8401120808C9850112080857
:100DB300318601120808668601120808DA870112D3
:100DC30008085D8A01120808868B011208081C8C2A
:100DD30001120808249501120808B99501120808A0
:100DE300A09801120808939901120808019A0112A8
:100DF3000808479B01120808299C011208080E9E47
:100E0300011208081FA00112080889A0011208088E
:100E13005BA10112080889A10112080846A2011268
:100E230008081DA301120808E4A30112080888A4F6
:100E330001120808B1A401120808D3A4011208087A
:100E430029A70112080801A80112080845A80112E0
:100E53000808ADA80112080865A90112080897A996
:100E630001120808DBA90112080811AA01120808D7
:100E73005DAA01120808B2AA01120808B7AA011252
:100E830008080AAB011208082FAB011208083EAC90
:100E930001120808A2AC0112080812AD01120808D9
:100EA3009EAD011208086BB0011208084FB1011280
:100EB3000808D2B20112080808B501120808B6B52D
:100EC3000112080866B601120808A7B8011208083B
:100ED3004AB90112080891B9011208083DBB011271
:100EE300080851BB011208085BBB0112080883BB49
:100EF300011208088FBB01120808AEBB01120808D3
:100F0300CEBD011208081DBF0112080861BF0112FE
:100F1300080809C001120808ECC00112080897C1AB
:100F230001120808E3C201120808E1C3011208080C
:100F330087C40112080817C5011208082EC501123B
:100F4300080865C5011208086FC5011208087AC5AB
:100F53000112080898C501120808DCC50112080827
:100F630039C6011208085EC60112080878C60112C4
:100F7300080804C70112080821C8011208088EC80E
:100F83000112080875C9011208089CC90112080852
:100F930010CA011208088BCA011208088FCB01126C
:100FA300080885CC0112080834CD0112080847CE81
:100FB30001120808E3CE0112080870CF01120808D5
:100FC3004ED00112080886D001120808DED00112A3
:100FD3000808A7D101120808C8D1011208084FD286
:100FE3000112080873D20112080895D201120808E9
:100FF300DED201120808F4D401120808DBD501126D
:1010030008088CD601120808C2D80112080812D9A0
:101013000112080852D90112080894D901120808CC
:10102300F0D9011208081EDA0112080842DA011287
:10103300080895DA01120808C3DA01120808FCDA75
:101043000112080851DB01120808B7DB0112080876
:101053000BDD011208082EDF011208089BDF0112C5
:101063000808C4DF011208084FE001120808B6E0BF
:101073000112080801E10112080825E1011208081C
:1010830049E101120808A4E101120808BFE10112B5
:10109300080878E201120808EF88041208082E896C
:1010A30004120808788002120808BE800212080899
:1010B3009E8102120808A08202120808A38302126A
:1010C30008082F85021208088D85021208084A862F
:1010D30002120808688702120808D9870212080852
:1010E3001588021208086388021208086D88021224
:1010F3000808B188021208080D8902120808A88995
:1011030002120808258A02120808F48A0212080843
:101113008D8B02120808AD8B02120808E38B0212B2
:101123000808148C02120808D58C02120808E58CF2
:1011330002120808398D02120808548D0212080899
:10114300668D021208086F8D02120808C98D0212FB
:101153000808258E02120808718E021208088C8E68
:1011630002120808BD8E02120808DA8E021208085D
:10117300E68E021208085A900212080873900212AF
:101183000808DA9002120808ED9002120808FB9092
:1011930002120808AF91021208089392021208087B
:1011A3009993021208082394021208082D9402123C
:1011B30008089A9402120808B19402120808E394EA
:1011C300021208081C950212080846950212080824
:1011D300A79502120808C79502120808E59502129E
:1011E30008082B96021208085197021208089E97C6
:1011F30002120808CD970212080843980212080841
:101203006B9802120808A49802120808B2980212F6
:1012130008080A99021208085999021208089899AD
:1012230002120808C89902120808F4990212080861
:10123300FF99021208081D9A02120808DF9A021287
:101243000808E99A021208082A9B021208087F9BE1
:1012530002120808939B02120808A19C02120808B4
:10126300B49C02120808C99C021208086B9D021262
:101273000808EE9D02120808AC9E02120808B79EE9
:1012830002120808E39F02120808FF9F02120808CF
:1012930051A00212080890A002120808A5A0021289
:1012A300080807A10212080896A102120808E1A182
:1012B3000212080832A402120808B0A40212080895
:1012C30025A50212080847A7021208085FA7021201
:1012D300080862A7021208086EA70212080882A76C
:1012E300021208088AA702120808BDA702120808FA
:1012F3006DA802120808E3A80212080856A90212F0
:1013030008080AAA02120808BFAA02120808DEAADD
:101313000212080884AB02120808AFAB02120808D5
:10132300B2AB021208081CAC0212080844AD021248
:1013330008081CAE02120808A7AE02120808C0AFC4
:10134300021208087DB002120808B6B0021208089B
:10135300E7B002120808A5B102120808D5B10212BB
:101363000808B0B20212080849B302120808D4B33D
:101373000212080885B40212080808B50212080808
:101383003AB5021208087BB502120808409A031204
:101393000808A59A03120808E29A03120808319B69
:1013A30003120808479D031208082A9F031208081E
:1013B30094A203120808CFA203120808F1A2031291
:1013C300080854A30312080888A303120808ABA350
:1013D30003120808D8A30312080834A40312080848
:1013E3007B8E03120808F98E031208082F8F03124D
:1013F30008089B8F031208080E91031208082A910C
:10140300031208086F9103120808FD9103120808DC
:101413005692031208088393031208089594031243
:101423000808F2940312080886D602120808BF952A
:1014330003120808009603120808AD960312080861
:10144300BF9703120808EA97031208083598031296
:1014530008087C98031208080E9903120808C99912
:1014630003120808BBFC03120808EBFC031208086C
:1014730040FD03120808A1EC031208081CED031237
:101483000808BBDF0212080848ED0312080880A40D
:10149300031208088AA403120808D6A40312080832
:1014A30044A50312080865A50312080815A603122C
:1014B3000808A9A803120808B2A80312080805A976
:1014C300031208082EA90312080895A90312080895
:1014D30026AA0312080868AA03120808B2AA03126C
:1014E300080811AB031208083DAB03120808CEAB82
:1014F300031208080DAC031208084CAC03120808C9
:1015030081AC0312080893AC03120808A5AC0312BC
:101513000808C4AC03120808CDAC0312080883AD55
:1015230003120808C3AD03120808217F001208083C
:10153300C0F603120808F6F6031208083FF7031271
:1015430008088FF8031208088AE602120808C9E798
:101553000212080805E802120808C4E90212080882
:10156300EDE90212080880EC02120808C4EC02122A
:1015730008084DEE02120808E5EE021208084DEFC6
:1015830002120808EEEF0212080830F002120808EF
:1015930070F002120808FBF1021208086BF3021242
:1015A300080890F502120808BEF502120808E5F5CE
:1015B30002120808EEF50212080875F6021208086E
:1015C30093F902120808638A04120808798A04123C
:1015D3000808A488041208083CE9031208084FE924
:1015E30003120808ECE90312080827EA03120808A3
:1015F30042EA0312080867EA03120808ACEA031276
:101603000808DDEA031208080EEB0312080894EC3D
:1016130003120808B88104120808EE8104120808AE
:101623000A82041208084C82041208085C8204121D
:101633000808F18204120808FB82041208081383C5
:101643000412080814FA02120808D1FA0212080850
:1016530081FB02120808C6FB0212080856FC02129C
:101663000808CCFC0212080838FF02120808FA71B5
:10167300001208084F720012080838730012080895
:10168300D173001208081B74001208087874001242
:1016930008088C7400120808BE7400120808BC7590
:1016A300001208080076001208081B7600120808CA
:1016B3006A76001208088076001208088D760012F8
:1016C3000808C17600120808DA7600120808A47721
:1016D30000120808FE77001208084C780012080868
:1016E3006E7800120808E57A001208081A7B0012C7
:1016F3000808AA7B001208081F7C00120808247C33
:1017030000120808607C00120808B67C0012080862
:101713007A7D001208089F7D00120808A97D001237
:101723000808AC7D00120808357E00120808507EB8
:1017330000120808637E001208089E7E0012080843
:10174300A17E00120808AC7E00120808E87E001291
:1017530008085788041208086F880412080836C05E
:101763000312080885C00312080827C203120808D9
:10177300E5C3031208082DC4031208084FC503125A
:10178300080880C603120808A2C603120808FEC68A
:101793000312080880C703120808B2E201120808FE
:1017A300D3E2011208085DE301120808E2E3011223
:1017B30008085EE401120808C7E40112080813E5EB
:1017C3000112080892E50112080824E6011208082C
:1017D300B0E601120808F2E6011208085EEB0112F6
:1017E3000808DEEC01120808B4ED01120808E3ED65
:1017F30001120808CEEF011208084EF20112080880
:1018030007F30112080824F4011208087BF70112F8
:1018130008088BF701120808ECF80112080878F998
:1018230001120808A1FA0112080892FB0112080824
:1018330014FC01120808008003120808BA8003127E
:1018430008082C8103120808C8810312080838828B
:1018530003120808F18403120808C8850312080854
:10186300358603120808B287031208087C8803121E
:101873000808EC8803120808B58A03120808C88B05
:1018830003120808618C03120808278D0312080845
:1018930098DE03120808ECDE0312080844DF031283
:1018A30008088FDF03120808F1DF031208085DE060
:1018B3000312080810E10312080851E10312080893
:1018C30067E103120808C3E10312080801E20312E7
:1018D3000808DAFA031208080BFB03120808C5FB11
:1018E300031208082BFC0312080837FD011208082D
:1018F300C3FE01120808EE8904120808FF890412C6
:1019030008080080041208080E8004120808A18A3F
:101913000412080870870412080880870412080854
:101923009B8704120808FC87041208086E860412B9
:101933000808F386041208085787041208085C8510
:10194300041208087E8504120808E88504120808B2
:10195300F3850412080837860412080828B703120F
:10196300080836B70312080877B70312080898B7B0
:101973000312080815B80312080870B80312080800
:1019830070B90312080892B903120808F5B90312D3
:10199300080810BA031208082BBA0312080835BA4C
:1019A300031208083FBA0312080852BA03120808C0
:1019B3006BBA0312080807BB03120808C3BB031260
:1019C300080843BC03120808BDBC0312080809BD7C
:1019D30003120808B0BD031208088CBE03120808DE
:1019E30032E20312080840E203120808BAE20312C3
:1019F30008089EE30312080857E503120808418A02
:101A030004120808B4C70312080820C80312080800
:101A1300DFC803120808E9C90312080842CB0312FE
:101A230008089DCB03120808F2CB03120808FBCB6E
:101A3300031208080DCC0312080877CC0312080818
:101A43008BCC0312080895CC0312080866D1031245
:101A53000808BBD103120808B7D303120808E9D357
:101A6300031208080BD40312080824D4031208082D
:101A73003DD40312080847D503120808E2D5031220
:101A8300080870FE0312080894FE03120808ADFE4E
:101A930003120808E0FE0312080811FF03120808E6
:101AA3003FFF03120808A1FF03120808B0FF031247
:101AB3000808BAFF03120808C7FF031208086DEFEE
:101AC3000312080893EF03120808D0EF0312080863
:101AD300DFEF03120808FEEF0312080866F0031293
:101AE30008086FF003120808CEF003120808F2F09A
:101AF30003120808B1F103120808BEF10312080823
:101B0300CFF1031208087C8904120808998904128A
:101B1300080859D603120808B7D703120808C4D710
:101B230003120808D7D703120808F6D703120808C8
:101B33000CD80312080820D80312080895D80312FA
:101B43000808FAD803120808AAD9031208087FDA8A
:101B5300031208088FDA031208089EDA0312080832
:101B630057FF021208087BFF02120808A3FF0212A4
:101B73000808CBFF02120808FDF10312080824F23B
:101B83000312080845F203120808AAF20312080810
:101B930063F4031208087CF40312080888F40312A0
:101BA30008089CF403120808BAF403120808C4F4E2
:101BB30003120808CEF403120808E1F4031208081C
:101BC30034F5031208086DF5031208089CF5031297
:101BD3000808EAF50312080839F60312080854F650
:101BE300031208085EF6031208086FF603120808CA
:101BF300B5F603120808068804120808ECAD0312B0
:101C0300080816AE0312080832AE0312080845AEE0
:101C1300031208085BAE03120808B8AE03120808E3
:101C2300EBAE0312080827B3031208084DB40312DE
:101C3300080880B403120808CCB403120808F8B5E6
:101C43000312080820B60312080835B60312080861
:101C530045B60312080889B603120808EAB6031248
:101C63000808FAB603120808168304120808318319
:101C7300041208085A83041208087483041208081B
:101C8300998304120808B88304120808D083041245
:101C93000808FE8304120808188404120808388907
:101CA30004120808BCE503120808C3E50312080878
:101CB300CFE603120808FFE60312080825E703121C
:101CC300080848E7031208086AE703120808A4E7AC
:101CD300031208080AE80312080843E80312080875
:101CE3008FE803120808BCE803120808DCE80312B3
:101CF3000808F2F8031208080AF903120808F8F9A9
:101D030003120808D7FA03120808498404120808C2
:101D1300BB8404120808F984041208083A850412E3
:101D23000808D7DA03120808F6DA0312080845DBB5
:101D33000312080861DB0312080892DB0312080888
:101D43009FDB03120808ACDB0312080898DC0312BC
:101D53000808D6DC03120808E6DD03120808F1DDE3
:101D63000312080803DE031208080CDE0312080836
:101D730016DE03120808A9CC03120808EED00312DA
:101D83000808FCD003120808D1FF03120808B88919
:101D930004120808198A04120808838A041208081E
:101DA300DAD50212080820D402120808D0D1021290
:101DB300080857D102120808FED0021208088ED074
:101DC3000212080865D00212080845CE021208085C
:101DD30011CE02120808DECD02120808C2CD02128B
:101DE3000808DBCC0212080893CC02120808DECAEA
:101DF300021208085ECA021208085BCA0212080827
:101E030058C90212080826C90212080863C8021238
:101E130008088EC6021208081FC602120808F1C578
:101E2300021208083FDF02120808F6DE0212080851
:101E3300AEDE02120808FCDD021208086EDD021293
:101E43000808EEC502120808DBC50212080886C599
:101E53000212080861DD0212080875C5021208089B
:101E630067C40212080831C402120808DFC3021251
:101E730008085BDA0212080827ED0312080880C37A
:101E8300021208084FC30212080817C002120808FA
:101E9300D7BF02120808CBBF021208082BBF0212D9
:101EA30008086BBE02120808EDBB021208087EB9CF
:101EB300021208083CB90212080810B802120808F6
:101EC300C5B70212080804B702120808D7B60212EF
:101ED30008081AB602120808B0B502120808EAB5D3
:101EE30002120808BDD7021208085E95030000001D
:101EF30080FBE47300004FF8280802208410488810
:101F030000802FF821C042A042A0849088880080DE
:101F13002208224822482248FA48224822482248D6
:101F230022483A48E2480248020804080400020032
:101F3300FFF8020002007FF04210421042104210EC
:101F4300421042700200020004000200FFF8800801
:101F530084080400FFF8084010403C80030004C0DC
:101F63001820E0100110FCA0480049F078404840D8
:101F730048407BF8484048405CA0E8A009100A08A4
:101F8300108027F8408097F01550255067F0A00087
:101F930027F0210020902A882A2831E000200D20F4
:101FA30070A010A01220FD20112030383BE05420F7
:101FB3009020102010201020208020802080F7F017
:101FC3002080208027E03220E22021402080214011
:101FD3002220EC1800003FF82108210821083FF8CF
:101FE300210821083FF821082108410841088038C9
:101FF300020001003FF82008200820083FF82008CD
:1020030020002000200040004000800001207D408F
:10201300049028A010402FA040189FC010401040EB
:102023001FC010400880FFF800007FE000203FE061
:102033000020FFF80200222013400A8012402220D1
:10204300C2180E00210021102110F920A940A90077
:10205300ABF8A940A940A920B9202150218821002B
:102063003FE0202020203FE000000000FFF80800B0
:1020730010003FE000200020002000C00200FFF815
:10208300800804405290510892280FE03000C200AB
:10209300222022203FE00020000007E0F820222039
:1020A300222042207BF8C80848084FE848087808EF
:1020B30048080030010001F0FA10242023F84248B8
:1020C3007A48CBF84A484A484BF87A4842480418B9
:1020D30004000200FFF8800800003FE00200020055
:1020E300220023E02200220052008FF80000FC00AF
:1020F3004BF0491079104910491078A048A04E4080
:10210300F84008A009100A080080449022A010801B
:1021130007F08410441017F01410241027F0441013
:1021230044100470020002007FF004000400FFF872
:10213300080010003FE0002000401C8003000080E6
:1021430008800880088088904890489028A028A09C
:1021530028C00880088008800880FFF80200020079
:102163007FF004000400FFF8080010003FE00020A7
:1021730000401C800300008001004080200017F015
:10218300008080804080008017F0108020802080B5
:1021930040804FF800007FF00200020002000200BE
:1021A300FFF805000500090011002108410880F827
:1021B30020A02090488048F0F380108020B843C0CE
:1021C300F89000A0004818A8E318000847F0212061
:1021D30020C007F00490E49027F02490249027F087
:1021E300249024B050008FF840002FE022200220DA
:1021F3000220E2202FE02220222022282A2832282F
:102203002218020840502048204007F8E4402448A0
:102213002748255025502D2035282B68089811086C
:10222300110010802FF8200067F0A00027F0200095
:1022330027F024102410241027F024100400020097
:1022430000007FF00000000000202020104010401C
:10225300088008800100FFF800003FE020202020D4
:1022630020203FE002000200220023F0220022008F
:1022730052008FF810101010281024904290809074
:102283007C904490449044905810421042103E7009
:10229300201810E0FE8044802880FEF80090109003
:1022A300FE90109054909290111072100080FE8056
:1022B300108024F84310FE9012901090FEA010A0FE
:1022C30010401EA0F1100208000047E0200020008B
:1022D30000000FF0E24022402240224824482838E0
:1022E30050008FF80000F3E012201220F3E080800A
:1022F30087F08490F49017F0108010901FF8600816
:102303000200020002000200FFF8020005000500BF
:1023130005000880088010402020C0183FF8208066
:10232300210027F0241027F0241027F02080249088
:10233300248848884080838007E04420242007E0E5
:102343008420442007E020002FF04A504A508A504E
:102353008A501FF800004FF0281008108FF0481023
:1023630008102FF0224052484A50866082401FF8DE
:10237300020001003FF824203FF8242027E020003A
:102383002FF024202240418046609818210021002C
:1023930041E09220F540208041408220F4180180E2
:1023A30000603300C0C00020204012481248FA48A1
:1023B30003F808008BF8488053F852A802A81AA81B
:1023C300E2A8021800000000000000000000000066
:1023D300FFF8000000000000000000000000000003
:1023E300000000007FF0000000000000000000007B
:1023F3000000000000000000FFF8000000007FF074
:10240300000000000000000000003FE000000000AA
:10241300000000000000FFF800007FF844884488B3
:10242300448844884488448844884878500840084D
:102433007FF8400810801FF8100027F0241067F081
:10244300A0002FF8280827F020402040204021C07A
:1024530002000200020002107B200B400A8012805F
:10246300124022204210820802000E0002000200E5
:1024730002007FF0421042107FF0421042107FF0C2
:1024830042000208020801F810407FF002003FE01A
:102493000400FFF808001FE030205FE090201FE0F9
:1024A30010201FE00200020002002210221022204E
:1024B3004540850005000880088010402020C01892
:1024C300103091C0D500B9009100FDF89120B920DA
:1024D300D5209520912091208220FC2000007FF8B8
:1024E3004008422853284AA8444844484AA84AA8CE
:1024F300510862084008403820802080249024B08E
:10250300F5D02E9024902490249024B03480C408D5
:10251300040803F82040204020402040FA4022785D
:1025230022402240224022403A40E24002400FF83B
:10253300210021002100FBE0212021202120253042
:102543002528292822202220242028C0400027F8DB
:1025530024880488E5E8248827F8240825E82D281A
:10256300352825E8040808387DF0451045107DF02E
:1025730000400220FFF808803060C0187DF045104D
:1025830045107DF00080788048F049104AA07840DB
:1025930010A053185C0051F051105D10E1F00110D0
:1025A3000200020002007FF042104210421042106B
:1025B3007FF042104210421042107FF000000000F2
:1025C30000000000000000001800180000000000D8
:1025D30018001800000000006000900097E86818D9
:1025E3001008100810001000100010001008081048
:1025F30007E000001800240824102420244024802D
:1026030019000260049008901090209040900060A0
:1026130000000000000000000000000000000000B7
:10262300101010101010000030300000001428505B
:10263300000000000000000000000000002828FC4B
:10264300284850FC505000000000103854543018F3
:1026530014545438100000000044A8A8B0541A2A97
:102663002A44000000000020505060ACA898927CDF
:10267300000000606020C0000000000000000000B7
:1026830000040808101010101010080804000000BF
:102693004020100804081020400000000000001033
:1026A30010D63838D61010000000000000101010AB
:1026B300FE101010000000000000000000000000E9
:1026C3000000606020C0000000000000FC0000006B
:1026D3000000000000000000000000000000606037
:1026E3000000000204040408081010202020400009
:1026F3000000003048848484848448300000000053
:102703000010701010101010107C00000000003832
:10271300444404081020447C000000000038444472
:1027230018040444443800000000080818284848E6
:10273300887C081C00000000007C4040784404446E
:10274300443800000000003C4480B8C4848484788A
:1027530000000000007C4448081010101010000016
:102763000000007884844878848484780000000022
:1027730000788484848C740488F0000000000000D6
:102783000030300000003030000000000000000086
:10279300100000000010102000000408102040204A
:1027A3001008040000000000000000FC0000FC0012
:1027B3000000000000004020100804081020400022
:1027C300000000007884848408101000303000007A
:1027D30000000038449AAAAAAAB4423C00000000B0
:1027E300001010282828384444EE0000000000F8A8
:1027F30044447844444444F800000000003C4484CA
:102803008080808044380000000000F04844444445
:10281300444448F00000000000FC4440487848402D
:1028230044FC0000000000FC42404878484040E07F
:1028330000000000003C448480808E844438000003
:10284300000000EE4444447C444444EE0000000095
:10285300007C101010101010107C00000000007C91
:10286300101010101010101090E0000000EE4448FB
:102873005070484844EE0000000000E040404040F3
:10288300404044FC0000000000EE6C6C6C54545457
:1028930054D60000000000EE64645454544C4CE4DD
:1028A30000000000003048848484848448300000A1
:1028B300000000F844444478404040E00000000039
:1028C30000304884848484B448380C00000000F845
:1028D30044447850484844E600000000003C44402B
:1028E3002018040444780000000000FE9210101029
:1028F300101010380000000000EE444444444444E7
:1029030044380000000000EE444428282828101012
:102913000000000000D6545454546C2828280000AA
:10292300000000EE44282810282844EE0000000090
:1029330000EE442828101010103800000000007C1E
:1029430088081020204044FC0000001C10101010C8
:102953001010101010101C00007010101010101028
:1029630010101010700000701010101010101010C4
:10297300101070000010280000000000000000008C
:10298300000000000000000000000000000000FE46
:1029930000606020C0000000000000000000000094
:1029A3000000000038441C24443E0000000000C026
:1029B3004040784444444478000000000000000094
:1029C3003C444040443800000000000C04043C44F4
:1029D3004444443E000000000000000038447C40B2
:1029E300443800000000001C2420F8202020207818
:1029F30000000000000000003C48483040784438A4
:102A0300000000C040405864444444EE000000000D
:102A13000010000070101010107C0000000000086F
:102A230000003808080808080870000000C040408B
:102A33005C48507048EC000000000070101010104B
:102A43001010107C0000000000000000F8545454E3
:102A530054D60000000000000000D864444444EE53
:102A630000000000000000003844444444380000E3
:102A7300000000000000F8444444447840E00000B3
:102A8300000000003C444444443C040E00000000A9
:102A93000000EC30202020F80000000000000000BF
:102AA3003C443008447800000000000010107C1003
:102AB3001010100C0000000000000000CC4444443F
:102AC300443E0000000000000000EE4428282810C7
:102AD3000000000000000000D654545428280000D1
:102AE300000000000000DC48303048EC000000002B
:102AF30000000000EE442828101020E00000000031
:102B030000007C481010247C0000101010101010DE
:102B130010101010101010100001363601010001C2
:102B23000201000103010001040106060502000081
:102B3300070100340801000F090401010D0100FF22
:102B43000E08000017020000190100FF1A0100011E
:102B53001B0100FE1C0100081D0200001F010001F3
:102B630020010001210200002301000F24020000C4
:102B73002601000127010008280200FF2A0100079F
:102B83002B0102402C0100002D0100012E01000148
:102B93002F0100FF30010B1C310800003A0100082F
:102BA3003B01000F2F010000C9EEDBDACAD0B0B23F
:102BB300C1AAB5C2BFC6BCBCD3C3BBA7B5C7C2BC41
:102BC300D5CABAC5C3DCC2EBC8B7B6A8C8A1CFFB88
:102BD300D7A8D2B5D7A8D7A2CEDECFDFCDA8D1B69E
:102BE300B3CFD0C5C1A2D7E3B4B4D0C2D6C2D4B692
:102BF300C7BFB4F3D4ADCEC2CAAAB6C8D6D5B6CB76
:102C0300D2BBB6FEC8FDCBC4CDA3CBAEB5E7D7C50B
:102C1300BBF0B6CFCDF8B5D8D6B7D0ADB5F7C6F7BC
:102C2300C2B7D3C9A3BAA1E6A3A5000101710101EB
:102C330001010111010101310101010101800110B3
:102C43000161013B001400630173017201620143DE
:102C5300010001130106013D0135000401120100C9
:102C63000100010001000104010401330133013CAF
:102C73000144013201360000010001650100013504
:102C8300008101000105018201830100010302713A
:102C9300023001600211027002010202020202808C
:102CA30002100261023A004100630273027202627F
:102CB300024302000213023800000200020402125F
:102CC300020002000200020002040204023700377D
:102CD300003C0244020002390000020002650200C7
:102CE3000235028102000205028202830200020110
:102CF300037103010301030103010301032203021F
:102D03000301031003000300030003000300030097
:102D13000300034203000324030603000300030428
:102D230003120325032303250323030403040300DE
:102D330003000300034403000300032303000365AC
:102D4300032100350381030003050300030003008F
:102D530003030471040204600411047004020402F6
:102D630004010402041004610400041404630473E2
:102D73000472046204430400041304060400040000
:102D83000404041204000400040004000451046455
:102D930000000400040004440400040004000400D0
:102DA30004650400043504810464000504000483FD
:102DB3000400040300710030016000110070003151
:102DC300022003500480001000610000001400631F
:102DD300007300720062004300000013000600004D
:102DE30000000004001200000000000000000004C6
:102DF300000400370037003C0244000000000000DC
:102E0300000000650000003500810000000500009F
:102E1300008300000036000100060000000F0000E0
:102E2300000000000000000000000003FFFF00009E
:102E33000403FFFF0000FFFF0FF4010005C40403B8
:102E430020000100030B000000000000000003014C
:102E53000F00004E181300EE1701004E180200B8C1
:102E6300170300BE170400C4170500CA170600D6CF
:102E730017FFFF000001DA0D060A0E08040E0B16F9
:102E83000E10560D02E00D05F80D07E60D0CBC0DF6
:102E93000DCE0DFF000003EAF5E5D5D5C5B5A59523
:102EA30095858575756565555545453535252515CF
:102EB3001505E2111212E811EE110C120012FA11AB
:102EC30018121E1224123012F411DC11D61100163E
:102ED3000F00000B150B020002220F32000006CC7C
:102EE30012DE12E412AC11EA12A611B211E610E0DE
:102EF300101C1122111611CE10261344134A132C41
:102F030013381332130C0E020B040B0A0708000FBD
:102F13000001191618161615230300000349484229
:102F23004D181725050200383C3E363B3B352B43F5
:102F33002C303016181920231A1C1E303030171865
:102F43001921301B1D1F3006122A123E1336123C64
:102F5300121A13F012F6120213FC120204020101F8
:102F630001010902F210F810EC1028110000000012
:102F73000000FE10101100BE040A0E0004007F00C2
:102F8300E8030C00280000000000090308100C0AE5
:102F930003080900040001FF1E1E0C050408100F9E
:102FA300C082C0838A828B83E0D2E7F012171C02AF
:102FB300411AC082C083790012346F126186C082C5
:102FC300C083900334124F0CD083D082C3E09CA300
:102FD300E09D500C12685AFAA3E0122FE660010933
:102FE30002411AFBEA75F00BA4FAA8F075F00BEB9B
:102FF300A428FB900336E02AF8A3E03B8882F583FC
:10300300E0540F2274F7120373890812346F1235D8
:1030130015ACF075F00BE9A42CF9900336E028FE0B
:10302300A3E039FF74016508600674026508702027
:103033008A828B831235011241E874026508701B82
:103043001233C012354870138E828F83E4F0800BE5
:10305300EA2403FCEB1234E31234EFEEFAEFFB1233
:103063000AE602415274F412037312718179008EDD
:10307300828F83E06076890A890B8065E50A75F0A3
:103083000BA4FAA8F075F00BE50B122FF37046E5CD
:103093000A75F00BA4F8AAF075F00BE50B123527AF
:1030A3008E828F83E085088285098312360985081D
:1030B30082850983A31241E8EE2403FCEF1234EC6A
:1030C300124121125C00AA08AB09120AE6790190A9
:1030D3000334125615E50A2401F50AE50B3400F50D
:1030E3000B1233C8E50A9AE50B9B40900243927496
:1030F300F5120373EAFEEBFF740B120AA9124126C1
:10310300750A01EC4D602BEC12719DED1261861274
:1031130041E07901120AF2E5084509606F850882EA
:10312300850983A312718B7902AA08AB09120AF2EB
:10313300805AE5084509602B12618A1248541241EE
:1031430022123532700CEEFAEFFB120AF8E9F50A97
:1031530080CBEE2403FA12346A70317903EEFAEF6E
:10316300FB80CA8E828F83A3E064FE7003A3E0F426
:10317300700BEE24030A0A0A12346A700CEEFAEF9B
:10318300FB120AF8E9F50A8003750A00A90A7F030E
:1031930002058D74F7120373900334124162EA4BF4
:1031A300602FEA75F00BA4FAA8F075F00BEBA428D6
:1031B300FBEAFEEBFF12153C9003361241629003CB
:1031C3003612545A6012EEFCEFFD79001214A080FF
:1031D30007900336E4F0A3F0024152900334124BFC
:1031E300C4C3EE98EF9922C082C083EC4D600512F0
:1031F3001D1C80097C087D0079001214A002411A6D
:1032030074F61203737900EA4B6018780088081289
:1032130064CDEB12685660047901780808E8C3941A
:103223000840EA0241F174F712037374F31208E7DA
:10323300ECFEEDFF851882851983E4F004120AA9D8
:10324300EAF0A3EB1259867403120AA9AC82AD8388
:10325300EEFAEFFB120B0AEEFAEFFB120B10024130
:103263004D74F712037374F31208E7ECFEEDFF8558
:103273001882851983E4F0EAFCEBFD7403120AA9B2
:103283001236027401120AA91241DC8E828F831254
:1032930041E874FE68700374FF6960047901800279
:1032A300790002414D74F7120373EAFEEBFF123308
:1032B3000670141233118E828F83E0F4F88A828BA6
:1032C30083E058F0120AE6A90802415274F7120388
:1032D30073EAFEEBFF7508008E828F83E060221293
:1032E3003306701D1233118A828B83E08F838E82A3
:1032F300F8E058700CE0F88A828B83E048F0120AF9
:10330300E680C4120AECE9F508740165082212711B
:103313009612351912345BFAA3E039FB2274F412C6
:1033230003738A088B097C007D001233C01234EFCB
:103333001234801271887900850882850983A3E09D
:1033430064FE7003A3E0F460717E007F008062EE90
:10335300FAEF122FE66057EEFAEFFBEA75F00BA4D3
:10336300FAA8F075F00BEBA428FB900336E02AF5DE
:103373000AA3E03BF50B850882850983A31258D481
:10338300850A82850B83A3E06A7003A3E06B701E3A
:10339300E50A2403FAE50B12346B700AE50A2403E9
:1033A300FCE50B1234EC123474790112619C123D6A
:1033B3005F1233C8EE9AEF9B4095024392EA2403CF
:1033C3000A0A0AEB22900334125D73C32274F312C8
:1033D30003738A088B098A828B83A312718B12343D
:1033E3006F127188750C001233C012346B70547EE7
:1033F300007F00804912344DFAA3E0398A82F583B5
:10340300E0540F603612344DF50AA3E039F50BE5AD
:103413000A2403FCE50B1234F63400FB121D16E9F3
:1034230064017017850A82850B83A3125E34A3128D
:1034330041E8123474750C0112619C123D5F123124
:10344300DE40B2A90C7F0502058DEEF8EFF9E875B1
:10345300F00BA4F812345B22AAF075F00BE9A42A4E
:10346300F9900336E02822EF1235422212719CEBC9
:1034730022123480126197EEF0A3EFF022E50812D6
:10348300719DE5092274F5120373EAFEEBFF8E8248
:103493008F83A312718B7C007D00EE24030A0A0A3A
:1034A300EF1234EFEEFAEFFB120AECE9F50A7401BE
:1034B300650A7029127196123515AAF075F00BE999
:1034C300123527850882F583123501123532700DC6
:1034D300E5082403FCE5091234E31234EF02318FCB
:1034E3003400FDEE2403FAEF221234F63400FB120B
:1034F3000B0A223400FDE5082403FAE50922A3128E
:1035030035062212350A22E0F8A3E0F98E828F8372
:10351300A322123519223400F583124BC8E875F043
:103523000BA4F822123461F508A3E039F50922E867
:10353300F0A3E9F0E5082403FAE509123542221263
:1035430035486401223400FB120B10E92274F31294
:10355300037374E61208E7127181750C0175080094
:10356300750900750A00750B00851882851983E4B7
:10357300F0EE2403FCEF3400FD7403120AA91236A3
:1035830002E964017023740B120AA91241E0740169
:10359300120AA91258D87003A3E0696051851882F2
:1035A300851983858208858309740D120AA9E4129B
:1035B3003609740E120AA91241E8740D120AA9AA57
:1035C30082AB83120B2EE96401700B740D120AA9EE
:1035D30085820A85830B780A120840AC08AD09EE90
:1035E300FAEFFB120AFE7402120853E9F50CEEFA25
:1035F300EFFB120B28A90C741A1208530234481259
:1036030038D5120B342212415D124BC422C082C042
:10361300837800790080031237001233C8E89AE9EF
:103623009B5029E8FAE9FBEA75F00BA4FAACF075B4
:10363300F00BEBA42CFB900336E02AFCA3E03B8CBD
:1036430082F583E0540F70CF790080027901024143
:103653001AC082C0839004EE124C1AEC75F012A4C7
:10366300FCA8F075F012EDA428FD79FF7A367B0BE8
:103673001214A002411A74F7120373E9FEEAFF7AE7
:10368300007B00780079008028E8FCE9FDEC75F008
:1036930012A4FC85F00875F012EDA42508123B1561
:1036A300C39E400AE0FCEFC39C4003123C34123734
:1036B30000123B0940D3024152C082C08378007993
:1036C3000080031237001236F4501F123B19F470B6
:1036D300F2E875F012A4F8AAF075F012E9A42AF939
:1036E300743628FA740B39FB80047A007B0002419C
:1036F3001A9004EE123BCAC3E89AE99B22E824011C
:1037030008E93400F92274F012037374F31208E722
:103713008A0A8B0B8C0C8D0D8908EC450D6016AA5B
:103723000CAB0D120B828A0E8B0FAE0EAF0FEE4F4A
:1037330060030237C7120B588A0E8B0FA80EA90F0E
:10374300E8FEE9FFE849607C902F8B12382960225C
:103753007403650860067404650870167A047903B7
:10376300120B52902F8B12384040077A007B0002D5
:103773003826902F89123829601B7401650860066A
:1037830074026508700F7A027901120B52902F8927
:1037930012384050D68518828519837401F0120AB5
:1037A300A9125C00AC0CAD0D7403120AA91238CE39
:1037B300740B120AA912412E1245C8E4125BE812D7
:1037C30010268004EE4F604A780074FF2508C394E6
:1037D30004500278048E828F83125C008E828F8362
:1037E300A3A3A3A3E508F0E88E828F83A3A3A3A3D7
:1037F300A3125C08120222123BE18E828F83A3A3E1
:10380300A3A3A3A3A3F0123BD8120A8612618012CA
:103813000A9212382E4005901092E4F0120F00EE37
:10382300FAEFFB024BCE125D2249227A0479001291
:103833000B529004EE12683CEA98EB992212385925
:103843007583047582EEE493C398F8A3E49399F91E
:10385300C3EA98EB9922E493F8740193F92274F282
:1038630012037374F31208E78A088B09ECFEEDFF69
:10387300750A00EEFAEFFB120B828A0C8B0DA80C73
:10388300A90DE849603E88828983E065087004A336
:10389300E06509602F88828983A3A3A3A3E0C3946F
:1038A30005502112602E8518828519837401F01248
:1038B3000AA9126032EEFCEFFD7403120AA9123852
:1038C300CE750A01A90A740D0256CC1238D5120B13
:1038D3004022AA82AB83120B0A851882851983AA18
:1038E30082AB832274F6120373123923600FA3A3EE
:1038F300A3A3E014C3940450047901800279000265
:1039030041F174F6120373123923600FA3A3A3A327
:10391300E014C3940250047901800279000241F15A
:10392300120B7C8A828B83E58245832274F6120311
:1039330073123923600BA3A3A3A3E070047901805E
:103943000279000241F1C082C083EAFCEBFD7A00F8
:103953007B00024117C082C0837C007D00024117B7
:1039630074F412037374F31208E7EAFEEBFF8C0A94
:103973008D0BC3EC94F8ED94FF4007EE4F700302F8
:103983003A1C750800750900802E851882851983F5
:103993007401F0123D87120AA9123D956013740356
:1039A300120AA9AC82AD83EEFAEFFB121D16E97081
:1039B30049E5082401123BB59004EEE4125D2AE5C3
:1039C3000898E509995052E50875F012A4F8AAF091
:1039D30075F012E509A42AF912686F60D4EE4F70EE
:1039E300A974FF650A700474FF650B60C4123D7708
:1039F300650A7004A3E0650B70B7E50875F012A4BF
:103A0300F508A8F075F012E509A428F50974362520
:103A130008FA740B3509FB80047A007B0002438D9E
:103A230074F412037374F31208E7750800120B821F
:103A33008A0A8B0BAE0AAF0BEE4F602A851882857C
:103A430019837401124157F8A3E0F9740B120AA900
:103A530012426B120B227C127D0079FFEEFAEFFB10
:103A63001214A075080112382E5009901092740197
:103A7300F0120F00A90802438D74F7120373E9FED5
:103A830074FE6A700374FF6B7800790070058052CE
:103A9300123700123B09504AE8FCE9FDEC75F012BD
:103AA300A4FCAFF075F012EDA42F123B15F460E007
:103AB300E8FCE9FDEC75F012A4FC75F012EDA42FFF
:103AC300FD74362CF582740B3DF583E06A7003A315
:103AD300E06B70BC8009123B1914C39404401712A5
:103AE30037001236F45018EE70EC123B1964016083
:103AF30005E0640370E9123D68FAA3E0FB80047AF1
:103B0300FE7BFF0241529004EE124C1EC3E89CE977
:103B13009D22123C6922E8FAE9FBEA75F012A4FA45
:103B2300ACF075F012EBA42CFB743A2AF582740BFB
:103B33003BF583E022120B9402411AC082C08379C1
:103B43000180F274F01203738A0A8B0B7A047901F1
:103B5300120B528A0C8B0DEA450D603EEAC333FA11
:103B6300EB33FB12153C8A088B09AE08AF09EE4F05
:103B730060237AFE7BFF120B9A74FE6A700374FF54
:103B83006B601B850882850983124162E508240264
:103B9300123BB580E1750C0080047E007F00850A2E
:103BA30082850B83E50CF0EEFAEFFB024BD3E508BD
:103BB3002407F508E5093400F509229004EE124CB8
:103BC3001EC3EA9CEB9D22E493FA740193FB221239
:103BD3001494740322126191E4F09081B922E88E67
:103BE300828F83A3A3A3A3A3A3A3A3123C03740160
:103BF300123C03A3F0EE2410126194E4F0A3F0222C
:103C03001245D4A3A3A322C082C0837A007B008081
:103C13000419123C34123BBE5010123C53C394059A
:103C230050F0E970EC123C3D80047A007B000241C5
:103C33001AEA24010AEB3400FB22EA75F012A4FA13
:103C430075F012EBA428FB74362AFA740B3BFB22A3
:103C5300EAFCEBFDEC75F012A4FCA8F075F012ED94
:103C6300A428123C6922FD743A2CF582740B3DF5AD
:103C730083E02274F712037374F31208E77E007F64
:103C830000023D1BE50875F017A4F8A9F0126AD0ED
:103C9300FAA3E0FBEEF8EFF9E875F012A4F8ACF044
:103CA30075F012E9A42C123D766A7003A3E06B60F1
:103CB3003FE50875F017A4F8AAF0EA126ACFF8A353
:103CC300E0F97401120AA9E0687003A3E0696020B7
:103CD300E50875F017A4F8EAF974B228FC740C39F6
:103CE300FD7403120AA9AA82AB83121D16E960149C
:103CF300E50875F017A4F8A9F074B028FA740C3924
:103D0300FB1210320508902F90E493F8E508C3984E
:103D13005003023C87123D5F9004EE126E16503939
:103D2300EEF8EFF9123D68F47003A3E0F460E68562
:103D330018828519837401F0EEF8EFF9E875F01233
:103D4300A4F875F012E9A42AF9123D87120AA91200
:103D53003D9560C175080080AD02414DEE24010E12
:103D6300EF3400FF22E875F012A4F8AAF075F01200
:103D7300E9A42AF9123D7B22743628F582740B39A3
:103D8300F583E022743828F582740B39124BC27420
:103D93000B22E8F0A3E9124273120B3AE922C08224
:103DA300C08390033D74F2F0A3740DF090033F744D
:103DB300ECF0A3740DF0900343740CF0A3740CF0B7
:103DC30002411A74F7120373EAFEEBFF900377E0E4
:103DD3006408601BE0640460168E828F83E05403E2
:103DE300640170481241211246C9E06406703D8E99
:103DF300828F83A3A3E064FE7003A3E0F4602D8E9F
:103E0300828F83A3A31241DC900368E0687003A34D
:103E1300E069700BEE2415F582EF12685660081204
:103E23000EA0E9F5088008120EA680F67508C2EE0A
:103E3300FAEFFB1215420232CA74F41203738A08B2
:103E43008B098A828B83E0F8A3E0FAE82AFAE43448
:103E530000FB12153C8A0A8B0BAE0AAF0BEE4F60C8
:103E630063850882850983E0FC7D0079001214A034
:103E73008E828F83A3A312718B120EE28E828F83A5
:103E8300A3A3A3A3124162850882850983E0F8EE08
:103E930028F8EF34001241E4850882850983A3E002
:103EA300C0E0EE240D126183D0E0F0120EF4EE2494
:103EB3000E126183E9125835E0C0E0EE241112615D
:103EC30083D0E0F0EEFAEFFB02439274F612037331
:103ED30074EB1208E7EAFEEBFF1254576003023F4C
:103EE300727A077B0012153C900339124162125417
:103EF3005760788E828F83120A8690033A1246CCDB
:103F0300120A9212704FC0E0123F7ED0E0F0EE240E
:103F130005FAEF3400FB8A088B098A82F583E0C037
:103F2300E0123F79D0E0124389E0C0E0123F79A369
:103F3300D0E01241CE120A86851882851983120AAF
:103F43009288828983E0C0E07405120AA9D0E0F068
:103F5300850882850983E0C0E07404120AA9D0E0D1
:103F6300F07407120AA91240B4800679108002790E
:103F73000174150241EE123F7EA322900339E0FA49
:103F8300A3E0F5838A82A3A3A3A322C082C08312E2
:103F93005457600D900339125D61900339E4F0A327
:103FA300F0120E10120FD202411A74F0120373743E
:103FB300EB1208E7ECFEEDFF89087425120AA978D5
:103FC3000C120A4C7429120AA9E0F9742A120AA9DC
:103FD300E0FC742B120AA9E0FD740F697005740FDD
:103FE3006C60129010E6E06402700579C10240AF84
:103FF300E9C39C40F6900378780C120A6AE50890AE
:10400300037EF0E990037CF0ECA3F0ED90037FF0E6
:1040130074FF6A700374FF6B701D9010F1E0F4700D
:1040230003A3E0F470051214B2800C9010F1124156
:1040330037E8F0A3E98007900375EAF0A3EBF0EE0D
:104043004F6017EEFAEFFB121092E96401700BEE6A
:10405300FCEFFD7A897B03121D1C900368E4F0A337
:10406300F090036BF0A3F0900388F09010E6E06407
:1040730002700890037C740FF0A3F090037774052B
:10408300F014120AA9E4F0900378120A86851882C4
:10409300851983120A9290037EE0C0E07405120A28
:1040A300A9D0E0F07407120AA91240B47415024BA8
:1040B300D0E4124273121D4622C082C0839003389B
:1040C300E070031217E8120BDC804CC082C08390AF
:1040D3000338E09010917004E4F0802D7401F090A7
:1040E3000338E0F460237C41E0C394415002E0FCD8
:1040F300ECF8E0C398F0EC75F0E8A4CCA8F075F008
:1041030003A428FD7A80124C267A917B1079411200
:104113001D348003120B88D083D082020805EE126F
:10412300619222E0F508A3E0F5092212413222123E
:10413300350AA322124BC49003752274F71203733A
:10414300EB90037FF0120DFE8005740D1208537F70
:104153000102058D12415DA3E0221241CEA322EAA2
:10416300F0A3EBF02274F712037374F81208E7EA72
:10417300FEEBFF7900900377E064087044851882B2
:1041830085198374FDF0A374FFF0120EDC74021220
:104193000AA91241627405120AA9E412415DE0C042
:1041A300E07404120AA9D0E01241C9C0E0740612F7
:1041B3000AA9D0E0F07407120AA9E412426F120FA1
:1041C3001E740802414F1241CEE022F08E828F838B
:1041D30022F085188285198322124BC422E0F8A3AA
:1041E300E0F9126191E8F0A3E9F0221208537F028B
:1041F30002058DC082C083900349749CF0A3740CA4
:10420300F09003EF7478F0A3740FF090034D74D221
:10421300F0A3740CF090034F749CF0A3740CF09013
:10422300035174D8F0A3740CF002411A74F412030E
:104233007374F91208E78A088B098C0A8D0B8518A9
:10424300828519837808120A6A7404120AA9E9F0AC
:104253007405120AA9E4F07406120AA9E412426F63
:10426300120BC4740702438FE8F0A3E912427322CE
:104273001241D4AA82AB832274F41203738A088B8B
:10428300098A828B8312619FEE4F700302438790EA
:10429300031212545A60158A828B83A3A3E0F9EEAA
:1042A300FAEFFB9003131246CC121EF58E828F8316
:1042B300A3A3A3A3A3A3A3A3A3E0640270748E8206
:1042C3008F83A3A3A3A3A3A3E054027003024359C0
:1042D300850882850983A3A3E064E960798E828FD0
:1042E30083A3A3A3A3A3A3A3A3A3A3E070149010E6
:1042F300E9E0048E828F83A3A3A3A3A3A3A3A3A311
:10430300A3F08E828F83A3A3A3A3A3A3A3A3A3A397
:10431300E014124389A3A3A37404F09010EA125B80
:10432300DAE8F0A3E9126CB38B0BEA450B700312C6
:1043330066918E828F83A3A3A3A3A3A3A3A3A3E0C6
:10434300640260128E828F83A3A3A3A3A3A3A3A358
:10435300A3E06406702E8E828F83A3A3A3A3A3A3DB
:10436300E0A2E0501F850882850983A3A3E0F9EE4C
:10437300FAEFFB121DD68E828F83A3A3A3A3A3A35D
:10438300E054FEF080091245D022740D1208537FC9
:104393000402058D74EC12037374DD1208E7EAFE60
:1043A300EBFF8C088D097437120AA9780C120A4C9A
:1043B300750A007405120AA9AC82AD83120AC2748D
:1043C30012120AA9E070087415120AA9E060207499
:1043D30005120AA9E0A2E6501E8E828F83A3A3A32F
:1043E300A3A3A3A3A3A31258D4120F54E96008797B
:1043F30003121D040245B67405120AA9E0540C64A5
:10440300047005750B018003750B00E0A2E55035C0
:10441300750A01E50BA2E0402C120EE28A108B1103
:10442300A810A911124121E0687003A3E069601587
:104433007405120AA91271921258D0121DE2E96092
:1044430004790480AC7405120AA9E0A2E650227430
:1044530006120AA9E0540370187405120AA9E0545D
:104463000C640C600CE0540C64086005751001804A
:10447300037510007405120AA9E05403F874026866
:10448300700C1271921258D0120AD40245B67401FC
:1044930068703AE510A2E050031245BE7405120A93
:1044A300A9A882A9837403120AA9E8F0A3E9124B0D
:1044B300B88518828519831245C8E0C0E0740212DA
:1044C3000AA9D0E012426F121EC60245B6E8600385
:1044D3000245B690035FE0640170108E828F83A360
:1044E300A3A3A3A3A3E070030244447422120AA962
:1044F3007402124BB8741A120AA91241E8E510A209
:10450300E050087405120AA91245BEE50BA2E0505B
:104513006AEE240FF582EF126856C0E07417120A90
:10452300A9D0E0F090031412545A70030245B61256
:104533000EE28A128B13A812A913741A120AA9E0A5
:10454300687003A3E069706B780C120838780A125C
:1045530008447808120840A910740C120AA9AC8206
:10456300AD837421120AA9AA82AB83900314124665
:10457300C9121EF574071208538038780C120838D4
:10458300780A120844780812084090037512065CF2
:10459300EE2412F582EF1265847423120AA9AC8209
:1045A300AD83740E120AA9AA82AB83121DCA7409C1
:1045B3001208537423120853026C7E127192125D17
:1045C3006F120AC822E8F0A3E91245D0221245D49B
:1045D30022F08E828F83A3A3A3A3A3A32274F71233
:1045E30003731216D402415274F71203731216DACC
:1045F30002415274F71203731216E6024152C0824B
:10460300C0831216E002411A74F71203731216ECF8
:1046130002415274F71203737409120AA9E0F508F0
:1046230078081208441216F8740102414FC082C080
:104633008312170402411AC082C08312170A02416F
:104643001A74F712037312171002415274F712030C
:1046530073EAFEEBFF890874016508701479001290
:104663000D14902F9BE493FC7900EEFAEFFB120CF0
:104673008A02415274F412037374F91208E7E9FED3
:104683008A088B098C0A8D0B7413120AA91258D449
:104693009005A912545A6027EE851882851983F074
:1046A3007401120AA97808120A6AEAF8EBF9740588
:1046B300120AA912426B9005A91246C9121EF502ED
:1046C3004266FB90034BE0F8A3E0F583888222C0A7
:1046D30082C08312174002411A74F71203739010B9
:1046E30094E0F97E00800B126842540D640170015E
:1046F300190E1248D65003E970ED02415274F712B5
:104703000373901095E0F97E00800B126842548D7C
:1047130064817001190E1248D65003E970ED02410D
:104723005274F2120373890BE975F006A4240CF595
:1047330008E5F0123BB98A0CE508250CFAE50934C3
:1047430000FB12153C8A0C8B0DAE0CAF0DEE4F60C7
:1047530027AC08AD0979001214A0124121E50BF032
:10476300EE2508F8EF3509F98E828F83A3A3A3A35F
:10477300A3A3A3A3A31241E8EEFAEFFB0256CF745F
:10478300F6120373EAFEEBFF120C66901093E0F847
:10479300E9C39840099003451258D4120C6CEE24D7
:1047A30002F8EF125EE4900347125D9E900347E028
:1047B30004F0EEFAEFFB120C72850882850983E0A0
:1047C30002639AC082C08379009003458001091275
:1047D30058D48A828B83E582458370F202411A742E
:1047E300F7120373EAFEEBFFEE4F60569003451298
:1047F300545A604E888289837A007B00EE6582700A
:1048030003EF6583600FAA82AB83124848E58245B4
:1048130083602F80E7900345124854687002EF6964
:104823008E828F8370081241DC9003458003126CE3
:10483300901241E8EEFAEFFB121E96EEFAEFFB122E
:10484300154202415212484C22124BC88882898376
:1048530022124BC4EE22C082C08390034580048899
:1048630082898312545A600B88828983124F0CEC1D
:104873004D70EC8A828B83E4F0A3F0E849600688EC
:10488300828983800390034512416202411A74F7BF
:1048930012037390034580048A828B831248D14BA1
:1048A30060257E0080010E1248D650ECEE75F006AE
:1048B300A4FCADF0EA2CFCEB3DFDEC2410F582EDFD
:1048C30012492670E180047A007B00024152125D96
:1048D30073EA2212492FEEC3982274F71203737DF1
:1048E3000080010D12492BEDC3985034ED75F0068D
:1048F300A4FEA8F0E8FFEA2EFEEB3FFFEE2410F53E
:1049030082EF12492670DCED75F006A4FEE8FFEA9B
:104913002EFAEB3FFBEA2411F582EB1268564CF0BA
:10492300024152126862692212492F2212719CEBD2
:104933003400F583E0F82274F6120373120D8C7AB7
:10494300007B008025EAF8EBF9E875F006A4F8ACE3
:10495300F075F006E9A42C125D4812705DA3E41211
:104963005E3EF0A31270631271DA902F851238380D
:1049730040D37A007B00801C8A088B097403780873
:104983001209E81257FCA374FEF0A304125C1EA3E1
:10499300E41271DA902F8F1249D940DC7A007B0040
:1049A300801D8A088B09740378081209E874D812E9
:1049B30064CE740F126D1574FEF0A3041271DA90B5
:1049C3002F951249D940DB902F99E493900353F02C
:1049D3001249E30241F1E493F8C3EA98EB9400220D
:1049E3007CE87D037A107B009003C2E0F91215F690
:1049F3002274F012037374F51208E78A088B09898D
:104A03000A8C0BE9A2E050147508FC7509FFA2E1BA
:104A13005005D2E4024AB6D2E3024AB61256BB703C
:104A230003A3E06970057900024B83AC0A7902AAFB
:104A330008AB09120D68E960EDE50AF50C780C1274
:104A4300084479027CFE7DFFAA08AB091254361292
:104A53000853E96003024B81E50AC2E5F50A9003B6
:104A6300B5E07051E50AA2E6404B7403120AA9AC03
:104A730082AD83AA08AB09120B16E97032124D57A7
:104A83008A0C8B0DA80CA90DE8FEE9FFE849602507
:104A9300EE24020A0AEF123548601AEE2402FCEFF4
:104AA3003400FD7403120AA9AA82AB83121D1CE50C
:104AB3000AD2E5F50A900348E0F50C900368E0F5A7
:104AC3000EA3E0F50F780E1208407D017C009003E1
:104AD30048E0F9AA0EAB0F120D207402120853E935
:104AE300F8900348E004F0E86003024B81E50AA272
:104AF300E55004740E80027406C0E07401120AA922
:104B0300D0E01261B08A0E8B0FAE0EAF0FEE4F6086
:104B130069124BA1124BB8888289837401F07478AF
:104B2300550AA31271A2E50C1271A2A3E508F0E5E0
:104B330009124B90E4F0E50AA2E5500F7403120A40
:104B4300A9AC82AD83E82406124B878E828F83A3A0
:104B5300A374FDF0A374FFF0E50B6015902F9CE4A4
:104B630093F8E50BC3985009EE2413126183E50B08
:104B7300F0EEFAEFFB120BB880067910800279C7CA
:104B8300740B8049FAE93400FB121D1C22888289C8
:104B930083A3A3A3A3124B9C22125F17A322EE2489
:104BA300171261947401F0120EDCEE241A12619450
:104BB300EAF0A3EB22F01271963400124BC222F5F5
:104BC30083124BC822E0F8A3E0F922740D120853B4
:104BD3007F0802058D74F61203737A007B10126648
:104BE3009E60089003D47401F0802990064AE06423
:104BF300019010E77006E0FC79018004E0FC790382
:104C03007A007B00120C8A902F83124C1A7A007B55
:104C130010124C280241F1124C1E22E493FC740141
:104C230093FD227B009003C2E0F91215F02274EC8D
:104C33001203738A088B098C0C8D0D890E74141260
:104C43000AA91256157416120AA9E0F510A3E0F585
:104C530011120F54E960077AFF7BFF024D54901045
:104C6300E6E064026003024D477900AA08AB09122B
:104C73000D6EA90E120D628A128B13AE12AF13EED4
:104C83004F7003024D2F8E828F83A3A3A3A3A3E0B0
:104C930064018E828F83A3A370691258D48E828F8E
:104CA30083A3A3A3A3A3A3E054186043902F9AE480
:104CB300938E828F83A3A3A3A3F0EA650C7003EB07
:104CC300650D6014EA650A7003EB650B600AEA651B
:104CD300107003EB6511701F7810120840AC0AAD19
:104CE3000BAA0CAB0D1210507402120853800890DB
:104CF3000367126688A3F074FE6A700374FF6B6027
:104D03001D804EA3A3A3E0640360298E828F83A337
:104D1300A3A3A3A3E0640470057AFE024C5C8E8215
:104D23008F83A3A3A3A3A3E0640270089003B4E05A
:104D330064027010124D578B0BEA450B6006AA08EC
:104D4300AB09800DAA08AB099003491246C9121E8C
:104D5300F5026C7E90037512543C1210142274F702
:104D6300120373EAFEEBFF120B6AE9700AEEFAEF25
:104D7300FB120B76E96006EEFAEFFB80047AFE7B0A
:104D8300FF02415274F01203738A0A8B0B8C0E8D4F
:104D93000F8909750800120F54E979006003024E68
:104DA300FEAA0AAB0B120D6EA909120D628A0C8BB7
:104DB3000DAE0CAF0DEE4F60198E828F83A3A3A3AC
:104DC300A3A3E0640270559003B4E064027003028D
:104DD3004EFCAA0AAB0B90034F1246C9121EF512E2
:104DE3000B7C8A0C8B0DA80CA90DE8497003024EAD
:104DF300FC88828983A3A3A3A3A3E0A2E0400302C8
:104E03004EFC750C01A2E150687901AC0AAD0BAA06
:104E13000EAB0F120CBAE97064024EFC8E828F83C4
:104E2300A3A3A3A3A3E064037005750C0280528EB1
:104E3300828F83A3A3A3A3A3E064016003024EFCB8
:104E4300900375124F0C8E828F831252618A0C8BE2
:104E53000DA80CA90DE84960D1902F93E493FA882B
:104E6300828983E0C39A50C2A3E06003024EFC80B0
:104E7300B988828983A3A3A3A3A3D2E1F0EE4F60F1
:104E83003A8E828F83A3A3A3A3A3A3E05418602B1A
:104E93007508018E828F83A3A312065C750CFE75C1
:104EA3000DFF780C1208407900AC0AAD0BAA0EABCB
:104EB3000F120D807404120853803E900368E0655E
:104EC3000E7004A3E0650F7014902F9BE493FCA96C
:104ED30009AA0AAB0B120C8A750801801CA90CAC39
:104EE3000AAD0BAA0EAB0F120CBAE9700C750801D0
:104EF300A909AA0AAB0B120D14A908024BD3E50C9E
:104F03002415F582E50D126197125BF42274EA12FF
:104F1300037374F01208E78A0C8B0D8C088D0974E7
:104F230026120AA9E0F514A3E0F5157512069003FD
:104F3300F512545A6023900375124F0CAA08AB095B
:104F430012103E8A108B11EA4511600D8A828B8301
:104F5300A3E070057900025249E50C241DF50EE526
:104F63000D3400F50F850E82125446F5138882899D
:104F730083A3A3A3E0FA88828983A3A3A3A3E0F96D
:104F8300EA2400FEE439FFAA08AB09120D1A850EC4
:104F930082850F83125284E029F50BE50AA2E550BE
:104FA3000375120E7487550A70177418550A64181E
:104FB300600FE50C2417F582E50D12685665126043
:104FC300077901121D04808C530A78C3EE94F8EF1D
:104FD30094FF501D7900EEFAEFFB125253601288D2
:104FE300828983A3A3A3A3A3A3E054186003024F5E
:104FF3005778081208407D00125277120853E9F8D7
:105003007403687003024F57E860030250C27418B8
:10501300550A7003025177E50AD2E0F50AA2E4507B
:1050230004D2E1F50AA90A1258CD125253605388EB
:10503300828983A3A3A3A3A3A3E054186044888213
:105043008983A3A3A3A3A3E064017036E5104511EC
:105053006030900375124F0C888289831252618AE3
:105063000E8B0FA80EA90FE849601788828983A3C6
:10507300E0600F851082851183A31263A55003029C
:105083004F57E50AF50E780E12084412526A1208B9
:1050930053E9702B7C007D0085148285158374FF92
:1050A300F0A3F0850C82850D83A3A3A3A3A3A3A3DD
:1050B300A3E06003124F01A90B1258CD1216FE850F
:1050C3001482851583E0F47003A3E0F46039900340
:1050D300B4E064027003024F57125606E0FAA3E0ED
:1050E3001246C5121EF5EA65087003EB65096003F5
:1050F300024F57EEFAEF1246C5121EF5851482854C
:105103001583EAF0A3EBF078081208407D011252F0
:1051130077120853A90AEEFAEFFB120D6E8A088B79
:1051230009A808A909900368E0687003A3E069600F
:105133000302523AEEFAEFFB120B7C8A088B09A8A2
:1051430008A909E849606E88828983A3A3A3A3E021
:105153006401600D88828983A3A3A3A3E064027022
:1051630054851882851983AC82AD83EEFAEFFB1266
:105173000B168055900361E0600FE50AF50E780E7B
:1051830012084412526A120853E50AF50E780E12F9
:10519300084479027CFE7DFFEEFAEFFB12543612CF
:1051A3000853E960030250C285148285158374FF96
:1051B300F0A3025109120EDCEAFCEBFD851882858F
:1051C3001983AA82AB83121D1C850C82850D83A3D0
:1051D300A3A3A3A3A3A3A3E06401700F124F0174BD
:1051E30008120AA9AA82AB83121D1C125410126062
:1051F3001C4430F50878081208447401120AA98582
:1052030082088583097808120840740B120AA9855D
:1052130082088583097808120840E513F5087808A1
:105223001208447900EEFCEFFD1258CD120CB47451
:1052330006120853024F57125410126186125284F9
:10524300E50BF0120EF474101208537F0E02058D55
:10525300120D628A0E8B0FA80EA90FE84922A3A391
:10526300125D7312103E227901AC08AD09125D681C
:1052730012543622AC0BA913125D68120D2074026E
:1052830022126024A3A3A3A32274F012037374F065
:105293001208E78A0C8B0DECFAEDFB750F089003EF
:1052A300F512545A601412639E8A828B83E58245F9
:1052B300836007A3E0700302540B125410340012EE
:1052C3005446F50B88828983125419E0FBEC2400C1
:1052D300FEE43BFF88828983A3A3125419A3A3E0AE
:1052E300FBECF508E43BF50988828983A3A3A3A318
:1052F300A3A3A3E0F50EE50AA2E45003750F10A2E1
:10530300E550067408250FF50F748F550A700FE5E5
:105313000C2417F582E50D126856650F60087901B4
:10532300121D0402540B530A707800E50AA2E450DC
:10533300221254101268562408FCA3E03400FD74B2
:1053430008120AA9AA82AB83121D1C7808E50AC2B7
:10535300E4F50AE50AA2E55028125410126856280B
:10536300F8A3E03400F9E82408FCE93400FD8518CB
:1053730082851983AA82AB83121D1CE50AC2E5F557
:105383000AAC0EA90BEEFAEFFB120D26E9F8740333
:10539300686075900368E06E7003A3E06F605EE879
:1053A3007054E50AF50F780F1208441254271208B7
:1053B30053E97054780A1208447401120AA98582C9
:1053C3000C85830D780C120840740B120AA9858290
:1053D3000C85830D780C120840E50BF50A780A1248
:1053E3000844A90EAC08AD09EEFAEFFB120CB47435
:1053F300061208538012740468700D80B7780A127D
:1054030008441254271208537410024BD0E50C249D
:105413001DF582E50D22A3A3A3E0FC88828983A363
:10542300A3A3A322790112560D12619712543C12C1
:10543300543622120CDE740122E0FCA3E0FDAA081C
:10544300AB0922F58312484CA3E0F50A88828983CD
:10545300A3A3E022900339125DCF2274E8120373F1
:1054630074F51208E7EAFEEBFF8C088D09891474C2
:1054730023120AA9E0F50F7424120AA9E0F512A376
:10548300E0F5137426120AA9E0F516A3E0F51774E4
:1054930028120AA9E0F50EA90F120D2C8A108B1100
:1054A3007401120AA97408F0E50EA2E45003741003
:1054B300F0E50EA2E55004E02408F0851882851972
:1054C30083AA82AB83120F3C8A0C8B0DEA450D70C5
:1054D300030255EDEA2417F582EB1255FF120EDC99
:1054E300E50C241AF582E50D1261861241627403FC
:1054F300120AA9AC82AD83AA10AB11120B16E96094
:105503001D1255F77403120AA9A882A983E50C2476
:1055130018F582E50D126186E8F0A3E98024E50E13
:10552300A2E4501FE5106E7003E5116F701512555C
:10553300F7E50C2418F582E50D126186E512F0A358
:10554300E513F0125606125615850A82F583740286
:10555300F0A3E50E12561DE50FF0EE850A82850BCA
:1055630083A3A3A3F0EF850A82850B83A3A3A3A33D
:1055730012561DA3A3A3E508F0E509850A82850B4E
:1055830083A3A3A3A3A3A3F0AA10AB11120D1AE93B
:105593002514850A82850B83A3A3A3A3A3A3A3F046
:1055A300750800E50EA2E45011AC12AD13E50A2410
:1055B30008FAE50B124B89750808E50EA2E55014AD
:1055C300AC16AD17E50A2508F8E50B3400F9E82415
:1055D30008124B87850C82850D83A3A3E510F0A3E6
:1055E300E511F0AA0CAB0D120BB8740B1208537F24
:1055F3001002058DE50C2416F582E50D12619774F2
:1056030001F02212560D12619722E50C12719DE5ED
:105613000D22E0F50AA3E0F50B22F0850A82850B43
:1056230083A3A32274F21203738A088B09ECFEEDA1
:10563300FF890A79001256BB7003A3E069700479ED
:10564300018073750B01900368E065087004A3E0A3
:105653006509601F750B00780B120844A90AEEFC5C
:10566300EFFDAA08AB09120F907401120853E9F574
:105673000B80417900EEFAEFFB120D62EA4B602BCF
:105683008A828B83A3A3A3A3A3A3E05418601C75EE
:1056930008FE7509FF78081208408A828B83A3A34A
:1056A30012065C126FB212085380097901EEFAEF09
:1056B300FB120C3CA90B8014120D6E8A0C8B0DA8E7
:1056C3000CA90D900368E068221208537F060205B7
:1056D3008D74F412037375082075090E7A10126C19
:1056E300BA8B0BEA450B70031249E3900353E014A2
:1056F300F0700C902F99E493900353F0120D7A7E7F
:10570300007F00806C850882850983A3A3A3A3E09F
:105713006059F46056E5082404F582E509126682AF
:105723007049850882850983A3A3A3A3A3E0640327
:1057330070197902850882850983124F0C850882C6
:10574300850983A3A31258D4120CBA85088285094C
:1057530083A3A3A3A3A3E064016010850882850942
:105763008374FEF0A30412582EE4F0123D5F123B43
:10577300B1902F87126E16408C7E007F0080391205
:105783000E828E088F09740378081209E87498252D
:1057930008FC740F3509FD7AC67B0C120E70EA4BB8
:1057A30070DD8E088F09740378081209E81257FC1C
:1057B30012705DE4F0123D5F902F8FE493F8C3EE17
:1057C30098EF9400501B8E088F0974037808120910
:1057D300E8125804E82407F582E912668270D6803D
:1057E300A17E007F00800A12580F600214F0123D60
:1057F3005F126E1340F10243921258048882898328
:105803002274982508F8740F3509F922EEF8EFF998
:10581300E875F006A4F8AAF075F006E9A42AF9746D
:105823003828F582740F39F583E022125835A3A383
:10583300A322F0850882850983A3A32274F71203A8
:105843007374E11208E7ECFEEDFF750800EE4F609C
:10585300728A828B83E0241C1266B312545A6063EB
:105863008A828B831258D4851882851983AC82ADC2
:1058730083EA241BF582EB126584EA241CF582EB90
:105883001258D0120EC4740B120AA91258D87003FE
:10589300A3E069702E7402120AA9E06401702474F3
:1058A3001D120AA91246C9E064017017741D120A79
:1058B300A91246CBA3A3E0F88E828F83E06870031E
:1058C300750801A908741F02414F12560D3400F5E3
:1058D30083125D7322123506E0682274F412037397
:1058E300E97024790090034D1246C9121EF58A0A05
:1058F3008B0BAE0AAF0B74FE6E700374FF6F701ADE
:10590300902F96E4936013790190034D1246C912C8
:105913001EF58A0A8B0BAE0AAF0B120F00023EC7AD
:1059230074F612037374F31208E71214B28A088B25
:1059330009AE08AF09900368E06E7003A3E06F60DF
:10594300E9120EE8EA6E7002EB6F60DEEEFAEFFB2F
:10595300120F54E970D4EE4F60D0851882851983F5
:10596300E4F004120AA9EEF0A3EF125986E970BA23
:1059730074FE6E700374FF6F60B0EEFAEFFB740D8C
:105983000241EE124273120B2E22C082C083120F09
:105993000002411A7F0A02058D74F2120373EAFEB4
:1059A300EBFF8C0A8D0B8908740E120AA9E0F50926
:1059B30074FC6E700374FF6F700579000256CF7923
:1059C30000120D6E8A0C8B0DAE0CAF0D900368E0C8
:1059D3006E7003A3E06F7006E509A2E650DCA90927
:1059E300126EA0706179007AFE7BFF126EA0705672
:1059F300741855097003025AD37800790080031292
:105A03003700902F871236F74003025AD3E8FAE99A
:105A1300FBEA75F007A4FAACF075F007EBA42CFBD6
:105A230074262AF582740E3BF583E0541870D0E88F
:105A330075F007A4F8AAF075F007E9A42AF9742011
:105A430028F8740E39F988828983A3A3A3A3A3A397
:105A5300E0541860097418550970030259BD88820F
:105A63008983EEF0A3EFF074FE650A700474FF659A
:105A73000B6003125BFA88828983A3A3A3A3A3A366
:105A8300E509F0A2E0500D88828983A3A3A3A3A311
:105A9300A3D2E2F07401650888828983A3A3A3A338
:105AA300A370387401125C1EE054186028902F9A7A
:105AB300E49388828983A3A3A3A3125BE812103E15
:105AC3008B0DEA450D60030259BD780079008039DA
:105AD30079020259BF900367E080D7E06401700345
:105AE3000259BD88828983A3A3A3A3A3A3E0541867
:105AF3006007902F9AE4938004900366E0124B9022
:105B0300E508F00259BD123700902F90E493FAC3D1
:105B1300E89AE9940040030259BD7A007B00804B68
:105B2300EAFCEBFDEC75F007A4FCAEF075F007EDB5
