:020000040000FA
:06000000020A960201DA7B
:03002B000208D1F7
:030033000206EDD5
:030043000207862B
:0300530002010B9C
:03006B000206D3B7
:1000830002016F0101FF0503015C105C105C105C51
:1000930010180F120F5C10C62B00000000022B007B
:1000A3000000000C0000000C00010400003C1200E2
:1000B3000000000000F61200000000000000000035
:1000C30000FFFF414C443235333020444854313132
:1000D300000101010030050000008105E803640010
:1000E3006400B801020200080000050207051E02B1
:1000F300051E0A03B80B0201023412021F00E007B7
:100103009651180002020612C0E074F21203F3A221
:10011300AFE433FED2AFE5A7FFE5A1F5085F5410C6
:10012300600612198075A1EFE5085F540860081294
:10013300198675A1F7802BEFA2E0C0D0E508A2E0F5
:1001430092F01209D3158182F05017906198E0F86C
:1001530090085BE0C398A2D265D0335002E8F075F3
:10016300A1FEEEA2E092AF7F01020452C0E074F25E
:100173001203F3A2AFE433FED2AF9061A4E0F875AB
:100183009B00E59158540860087591F71219CE80C9
:100193002AE59158541060087591EF1219D4801B09
:1001A300E8A2E0C0D0E591A2E092F01209D3158154
:1001B30082F05007E0C2E0F0121B189061A3E0F850
:1001C300E5E9585404600E121AEE75E9FB90619349
:1001D300E0A2E640F2808BC0E074F21203F3A2AF18
:1001E300E433FED2AF9061A5E0F8E5BF5854046054
:1001F3000675BFFB121B30020165C3E498F8E4994E
:10020300F912023E8026C3E49AFAE49BFBE920E755
:10021300E912023EE498F8E499F922C3E498F8E479
:1002230099F912023EE498F8E499F9C3E49AFAE4DE
:100233009BFB22EB20E7CFE920E7E0B90010BB00EE
:1002430008E88AF084F8AAF022E4FBC8FA22EB70EB
:10025300227B10C833C8C933C9335007C39AC3DBE1
:10026300F280069A50012ADBEAC833F4C8C933F492
:10027300C9FA2275F008E4C833C8C933C933C99A27
:10028300C99B5004C92AC93BD5F0ECFBC833F4C859
:10029300E4C9FA22080808EAC0E0EBC0E086F0E708
:1002A300A4FA180986F0E7A42AFA180986F0E7A445
:1002B3002AFA180986F0E7A42AFA1986F0E7A4FBBC
:1002C300E5F02AFA190886F0E7A42BFBE5F03AFAE1
:1002D300190886F0E7A42BFBE5F03AFA181809860B
:1002E300F0E7A4C5F02BFBE43AFA1908E7C5F0C61A
:1002F300A426F6E5F03BFBE43AFA1886F0E7A4F609
:10030300E5F00826F6E43B08F6E43A08F6D0E0FB0D
:10031300D0E0FA22E4CFC0E0E4CEC0E0E4CDC0E018
:10032300E4CCC0E075F020C3E633F608E633F60804
:10033300E633F608E633F6181818EC33FCED33FD14
:10034300EE33FEEF33FFC3EC9709ED9709EE970900
:10035300EF97191919400FFFEC97FC09ED97FD0969
:10036300EE97FE191906D5F0BEECF709EDF709EE85
:10037300F709EFF7191919D0E0FCD0E0FDD0E0FE42
:10038300D0E0FF222518C582C0E0E51934FFC583FC
:10039300C0E0E518C3958224F810AF08858319855A
:1003A30082188008858319858218D2AFCEF0A3E521
:1003B30020F0A37808E608F0A3DEFAEFF0A3E581C6
:1003C30024FAF8E608F0A3E608F0A3E608F0A30889
:1003D30008E608F0A3E608F0A315811581D0E0FE36
:1003E300D0E0F8158115811581E8C0E0EEC0E02268
:1003F300C0D02518C582C0E0E51934FFC583C0E02D
:10040300E518C3958224F310AF08858319858218F4
:100413008008858319858218D2AFC8F0A3E9F0A3B9
:10042300EAF0A3EBF0A37908E709F0A3D8FAECF01C
:10043300A3EDF0A3EEF0A3EFF0A3D0E0F0A3D0E0A0
:10044300F0A3D0E0F0A3E520F0A3E5F0F0A322852C
:100453001983851882E0C0E0A3E0F9A3E0FAA3E0E2
:10046300FBA37808E0F608A3DFFAE0FCA3E0FDA312
:10047300E0FEA3E0FFA3E0C0E0A3E0C0E0A3E0F55B
:10048300D0A3E0F520A3E0A3F5F010AF088583190E
:100493008582188008858319858218D2AFD082D0CF
:1004A30083D0E0F8D0E032120AF8B900030204EC7A
:1004B300E490030178B2790A8002F0A3D8FCD9FA58
:1004C300900CB2AA82AB839000867886790180155E
:1004D300E493A3AC82AD838A828B83F0A3AA82AB1D
:1004E300838C828D83D8E9D9E775823A75839674B4
:1004F300031208497582C475831D7400120849E804
:100503000375F0108E1A8F1B85821F85831E851835
:1005130082851983E0CEA3E0CF851F82851E83EBFE
:10052300C9EAC8EDCBECCAC3E833C8E933C9EA3337
:10053300CAEB33CBC3EA9EF51DEB9FF51CB3500406
:10054300AB1CAA1DEC33CCED33CDD5F0DAAE1AAF2C
:100553001B22D083D082ECC0E0EDC0E0E493A3FC87
:10056300E493A3FDED4C600D12062DEC24FFFCED8E
:1005730034FFFD80EFE493A3FCE493A3FDED4C6013
:100583000D120731EC24FFFCED34FFFD80EFD0E0CA
:10059300FDD0E0FCE493A3C0E0E493C0E02285191E
:1005A30083851882E0A3FEE0A3F5207808E0A3F694
:1005B30008DFFAE0A3FFE0A3C0E0E0A3C0E0E0A30C
:1005C300C0E0E0A3C0E0E0A3C0E010AF088582185C
:1005D3008583198008858218858319D2AFD083D08B
:1005E3008202084FD083D082E9C0E0E493A3C3869C
:1005F300F0C5F095F0F908E493A386F0C5F095F003
:10060300700BE493A3C3994005E9048002A3E47546
:10061300F002A42582F582E5F03583F583D0E0F975
:10062300E493A3C0E0E493C0E022C0E0C3E4939664
:10063300087401939618400FE493667008087401D8
:1006430093661870007019A3A3C3E493960874010A
:10065300939618A3A3400DD0E0D0E0D0E00205911B
:10066300A3A3A3A3A3A3D0E022D083D082C5F0E4A5
:1006730093A3C5F0C395F0F5F0E493A3C395F040BD
:1006830005E5F0048001E475F002A42582F582E516
:10069300F03583F583E493A3C0E0E493C0E02274D0
:1006A30004800474028000CCC0E0EDC0E0E518C310
:1006B3009CCCAD1950011D10AF068C188D19800606
:1006C3008C188D19D2AF1207CBD0E0FDD0E0FC22FD
:1006D300C0E074F21203F3E589A2E1500312182A71
:1006E300758900C2C57F01020452C0E074F212038F
:1006F300F3E58BA2E0500312182A758B00C2E88041
:10070300E474028000CCC0E0EDC0E0E518C39CCCEB
:10071300AD1950011D10AF068C188D1980068C1869
:100723008D19D2AF1207A9D0E0FDD0E0FC22C0E0C2
:10073300C0F088F0E493667008087401936618703B
:1007430000A8F0A3A3700BD0F0D0E0D0E0D0E0027B
:100753000591A3A3D0F0D0E022D083D082CCC0E017
:10076300E493A3600612082A1470FAE493A36006C4
:1007730012091B1470FAD0E0FCE493A3C0E0E493E5
:10078300C0E022C0E074F21203F3A2AFE433FED25E
:10079300AFC2C0E5D1A2E450031218F6EEA2E09274
:1007A300AF7F01020452CAC0E0E493A3C582CCC563
:1007B30082C583CDC583F0A3C582CCC582C583CD55
:1007C300C583DAE5D0E0CA22CAC0E0E0A3C582CC83
:1007D300C582C583CDC583F0A3C582CCC582C5833D
:1007E300CDC583DAE6D0E0CA227009080808226082
:1007F30016181818C6C333C608C633C608C633C688
:1008030008C633C6D5E0EA22C008C3E096F5080857
:10081300A3E096420808A3E096420808A3E09645A1
:10082300087001D3D00822C0E0E493A3D39C5010F6
:10083300E493A3C39C400AD0E0D0E0D0E002077960
:10084300A3A3A3D0E022C09FF59FE473D09F22D03F
:1008530083D082C09FE493C0E0740193C0E074022C
:1008630093F59F227404800A740380067402800245
:100873007401C0E0F404120882D0E0120AD32225E6
:1008830018F58210AF08F518400215198008F518FD
:1008930040021519D2AF85198322BB0102E722C09A
:1008A30082C08389828A83BB0003E08002E493D001
:1008B30083D08222C0D0251810AF08F51850020546
:1008C300198008F51850020519D2AFD0D022C0E024
:1008D300C0D0E8C0E0E5A8D2AFC2C7A2E792AFD0CC
:1008E300E0F8D0D0D0E0326016080808C6C313C6BB
:1008F30018C613C618C613C618C613C6D5E0EA220F
:10090300C3E0C696F608A3E0C696F608A3E0C6962B
:10091300F608A3E0C696F622C0E0E493A36C700940
:10092300D0E0D0E0D0E0020779A3A3D0E0222518DD
:1009330010AF08F518400215198008F51840021584
:1009430019D2AF22E76670100809E766700A080932
:10095300E76670040809E76622E066701008A3E002
:1009630066700A08A3E066700408A3E06622C3E089
:100973009608A3E09608A3E09608A3E096A2D265A2
:10098300D03322C3E096F008A3E096F008A3E096E4
:10099300F008A3E096F022E026F008A3E036F00882
:1009A300A3E036F008A3E036F022E627F60809E6CE
:1009B30037F60809E637F60809E637F622E026F6A1
:1009C30008A3E036F608A3E036F608A3E036F622DD
:1009D300C0E0E8C0E0E58124FCF8E6A2E7D0E0F857
:1009E300D0E022E647F60809E647F60809E647F6A7
:1009F3000809E647F622E657F60809E657F6080916
:100A0300E657F60809E657F622E056F608A3E0563D
:100A1300F608A3E056F608A3E056F622E056F008DF
:100A2300A3E056F008A3E056F008A3E056F02270C6
:100A33000422600D18C6C333C608C633C6D5E0F416
:100A43001822E4C396F608E496F608E496F608E45A
:100A530096F622600D08C6A2E713C618C613C6D5BC
:100A6300E0F322C6F4C608C6F4C608C6F4C608C630
:100A7300F4C622C3E7960809E7960809E79608092A
:100A8300E79622C3E09608A3E09608A3E09608A39E
:100A9300E0962275D0007581407518017519030021
:100AA3000204AAE0F608A3E0F608A3E0F608A3E030
:100AB300F622600C08C6C313C618C613C6D5E0F4E5
:100AC30022E6F008A3E6F008A3E6F008A3E6F02286
:100AD300CAC0E0E6F0A308DAFAD0E0FA22E0FAA30B
:100AE300E0FBA3E0FCA3E0FD22EAF0A3EBF0A3EC20
:100AF300F0A3EDF022E5C754F84401F5C7790122CC
:100B03002518F582E43519F58322C2AF75D69F0205
:100B1300000022120852E3AC01120852DAAD0112AE
:100B2300085229B0011208527CB1011208521FB2B7
:100B3300011208526AB30112085288B30112085213
:100B430004DC0112085216DC0112085268DC01129F
:100B53000852C9DC0112085253DD01120852F7DDB5
:100B6300011208524BDE0112085264DE01120852D0
:100B73008ADE01120852C5DE0112085209DF011292
:100B8300085230DF0112085281DF0112085231E0AE
:100B930001120852E9E001120852B1E101120852B0
:100BA3008EE20112085214E30112085223E30112E8
:100BB30008522EE30112085237E40112085248E4A6
:100BC30001120852BEE40112085250E50112085204
:100BD300A8E5011208526EE6011208529FE60112BF
:100BE3000852E4E601120852F1E60112085285E8C0
:100BF30001120852E8E90112085204EB01120852EB
:100C03006EED0112085279ED0112085283ED0112C3
:100C130008528EED0112085298ED01120852A2ED0E
:100C230001120852ADED01120852B8ED011208523B
:100C3300E9ED011208520DEE0112085231EE0112D4
:100C4300085296EE01120852DAEE01120852F6EE3D
:100C5300011208526DEF01120852A5EF011208525A
:100C6300F1EF011208524EF00112085230F2011254
:100C73000852B6F20112085287F30112085297F68E
:100C830001120852ECF60112085218F70112085229
:100C930064F801120852B4F80112085209F901125A
:100CA30008520AFA01120852A2FA0112085224FB4E
:100CB30001120852C4FB01120852E62D0012085219
:100CC3001F2E00120852F92F00120852383000125A
:100CD300085282300012085227310012085286311E
:100CE30000120852BA310012085227320012085279
:100CF3004433001208524C3400120852E2340012FA
:100D03000852293800120852D23800120852AE395C
:100D1300001208520F3A001208522C3B00120852DC
:100D2300563D001208520D3E00120852173E0012A3
:100D330008524A3E00120852113F00120852AC3FBB
:100D4300001208521140001208523A400012085291
:100D53005C40001208528B42001208526243001298
:100D63000852A64300120852134400120852CE44FC
:100D7300001208520045001208524445001208525E
:100D8300774500120852CC45001208522146001242
:100D93000852B546001208521747001208527F47FF
:100DA30000120852284900120852104A0012085231
:100DB300524B00120852804D00120852404E00124E
:100DC30008526F500012085212510012085250512B
:100DD30000120852FC52001208521053001208521B
:100DE3001A5300120852445300120852505300126F
:100DF30008526F53001208522654001208526554C9
:100E0300001208526F540012085223550012085260
:100E13002256001208521B5700120852B8570012EC
:100E230008525A5800120852715800120852A85812
:100E330000120852C658001208520A5900120852EA
:100E43002F5900120852155A00120852815A0012E3
:100E53000852FB5A001208520A5C00120852495DFC
:100E630000120852AB5D00120852655E0012085270
:100E7300885E001208525C5F00120852A75F0012DE
:100E83000852E95F0012085240600012085277606E
:100E930000120852A56000120852DE6000120852C8
:100EA3000361001208528B6100120852AE630012F4
:100EB30008520D6400120852A164001208520D6515
:100EC3000012085261650012085229C20312085227
:100ED30068C203120852CDB40112085227B5011299
:100EE300085283B501120852CFB501120852EAB570
:100EF300011208521BB60112085238B601120852E9
:100F030044B601120852B8B701120852D1B7011200
:100F1300085238B8011208524BB80112085259B896
:100F2300011208520DB901120852F1B90112085207
:100F3300F7BA011208527DBB0112085287BB011296
:100F43000852F4BB011208520BBC011208523DBCFB
:100F53000112085276BC01120852A0BC01120852B9
:100F630001BD0112085221BD011208523FBD0112F9
:100F7300085285BD01120852ABBE01120852F8BED9
:100F83000112085227BF011208529DBF01120852D5
:100F9300C5BF01120852FEBF011208520CC0011254
:100FA300085264C001120852B3C001120852F2C0C1
:100FB3000112085222C1011208524EC101120852F5
:100FC30059C10112085277C10112085239C20112E4
:100FD300085243C2011208527EC20112085294C23F
:100FE300011208529DC201120852F2C201120852A4
:100FF30006C30112085214C40112085227C4011275
:1010030008523CC401120852DEC40112085261C5E1
:10101300011208521FC6011208522AC601120852B1
:1010230050C7011208526CC701120852BEC7011201
:101033000852FDC70112085212C80112085254C8BF
:1010430001120852A1CA011208521FCB0112085201
:1010530092CB01120852B4CD01120852CCCD011229
:101063000852CFCD01120852DBCD01120852EFCD49
:1010730001120852F7CD011208522ACE011208526A
:10108300DACE0112085250CF01120852C3CF011217
:10109300085277D0011208522CD1011208524BD1B9
:1010A30001120852EBD101120852F7D10112085272
:1010B30022D20112085225D2011208528FD20112F4
:1010C3000852B7D3011208528FD4011208521AD50D
:1010D3000112085233D601120852F0D601120852F7
:1010E30029D7011208525AD701120852FAD701120E
:1010F30008522AD80112085205D9011208529ED962
:101103000112085229DA01120852DADA01120852DE
:101113005CDB011208528EDB01120852CFDB011295
:10112300085271D202120852D6D20212085213D3B5
:101133000212085262D30212085278D502120852E0
:101143005BD702120852C5DA0212085200DB021200
:10115300085222DB0212085285DB02120852B9DB65
:1011630002120852DCDB0212085209DC0212085296
:1011730065DC021208525BBC02120852D9BC02128F
:1011830008520FBD021208527BBD02120852EEBE76
:10119300021208520ABF021208524FBF021208522B
:1011A300DDBF0212085236C00212085263C1021296
:1011B300085275C202120852D2C2021208523EC32A
:1011C300021208529FC302120852E0C302120852CD
:1011D3008DC4021208529FC502120852CAC50212D8
:1011E300085215C6021208525CC602120852EEC615
:1011F30002120852A9C702120852C2AF03120852C0
:10120300F2AF0312085247B00312085263B6031237
:10121300085274B603120852C5B6031208520AB72D
:1012230003120852B4B703120852E1BE0312085264
:101233002FB30312085287B40312085220C80212B4
:101243000852C5C802120852E5C80212085205C95D
:101253000212085219C90212085271C90212085225
:10126300A1C90212085222CB02120852C8CB0212A1
:101273000852AACC02120852FBCC021208523ECDED
:101283000212085281CD02120852E7CD021208520F
:1012930008CE0212085294CE02120852C5CE021290
:1012A300085239CF02120852E7D002120852C1D1B4
:1012B3000212085203D2021208525DD202120852DD
:1012C300EAAD031208520BAE0312085241AF0312E8
:1012D30008526BAF031208529F9C031208521A9DC7
:1012E30003120852259D03120852469D0312085209
:1012F3001EB00212085221B002120852DBB00212D1
:10130300085206B1021208524DB10212085272B1CC
:101313000212085293B102120852C7B102120852C4
:1013230000B20212085229B30212085260B3021229
:10133300085280B3021208521BB402120852E0B4DE
:101343000212085217B5021208528CB60212085242
:101353002FB70212085228B80212085251B80212CB
:101363000852A5B8021208526BB90212085299B971
:10137300021208522EBB02120852AFBB02120852CD
:10138300E2BB02120852B1DC02120852BBDC0212A9
:10139300085207DD0212085275DD0212085296DD6B
:1013A30002120852ADDD021208525DDE021208522B
:1013B300F1E0021208529EA3011208524DE10212FB
:1013C300085276E102120852DDE1021208526EE27F
:1013D30002120852B0E202120852FAE20212085252
:1013E30059E302120852EAE30212085229E40212F4
:1013F300085268E4021208529DE402120852AFE454
:1014030002120852C1E402120852E0E40212085226
:10141300E9E402120852C7AC01120852DFE50212D6
:101423000852258E03120852F88E03120852128FA7
:1014330003120852238F03120852389103120852E1
:10144300579103120852B8AB03120852EEAB0312C2
:10145300085237AC0312085287AD031208529B653A
:1014630000120852DA660012085216670012085278
:10147300D56800120852FE6800120852916B0012E0
:101483000852D56B001208525E6D00120852F66DB9
:10149300001208525E6E00120852FF6E00120852CC
:1014A300416F00120852816F001208520C71001232
:1014B30008527C7200120852A17400120852CF74B1
:1014C30000120852F67400120852FF7400120852F8
:1014D3005A7500120852ED75001208520B7900126A
:1014E30008528C7900120852BDC303120852DEC1A0
:1014F3000312085294FC02120852A7FC021208526B
:1015030044FD021208527FFD021208529AFD021294
:101513000852BFFD0212085204FE0212085235FEA1
:101523000212085266FE02120852ECFF021208521F
:101533002CB90312085262B9031208527EB903127E
:101543000852C0B903120852D0B90312085265BA3F
:10155300031208526FBA03120852E97900120852B3
:10156300A67A00120852567B001208529B7B001287
:1015730008522B7C00120852A17C001208520D7FE6
:10158300001208528FA002120852E7A0021208525A
:1015930091A10212085239A20212085296A2021213
:1015A3000852EFA20212085203A302120852CDA45A
:1015B3000212085248A50212085272A502120852DA
:1015C3002FA7021208524AA70212085299A7021221
:1015D3000852AFA702120852BCA702120852F0A782
:1015E3000212085206A8021208528CA802120852CC
:1015F3009BA802120852F4A8021208524EA9021222
:1016030008529CA902120852A6AA0212085228AD37
:1016130002120852C2AD0212085204AE021208525C
:1016230099AE02120852B6AE02120852B9AE0212B5
:101633000852BCAE021208522FAF021208524AAF30
:101643000212085276AF02120852B1AF02120852C8
:10165300B4AF02120852C7AF02120852EEAF021221
:1016630008520AC10312085216C10312085250C18C
:1016730003120852BE9002120852E9900212085255
:10168300B591021208523A9202120852A392021220
:101693000852EF92021208526E93021208520094FB
:1016A300021208528C9402120852CE94021208526B
:1016B3003A9902120852BA9A02120852F99A02127D
:1016C3000852C29B02120852769C02120852269EAE
:1016D30002120852B29E02120852008002120852ED
:1016E300BA80021208522C81021208523B81021264
:1016F3000852B581021208522482021208522E8324
:1017030002120852578302120852F7830212085238
:10171300458402120852B58402120852E985021266
:101723000852C58602120852368702120852B3883D
:1017330002120852758902120852108A02120852C4
:101743006B8A02120852D68A02120852DA8B0212EC
:1017530008529B8D021208523A8E02120852AC8E26
:1017630002120852698F021208526E9F0312085226
:10177300C29F031208521AA00312085265A0031253
:101783000852C7A00312085260A103120852C8A14D
:1017930003120852D4A10312085262A90312085279
:1017A30093A9031208524DAA03120852B3AA0312B3
:1017B300085224AB03120852C596031208525198DB
:1017C30003120852257F00120852367F0012085276
:1017D300D67F0012085277B10312085285B1031263
:1017E3000852D3C30312085274C00312085284C0B0
:1017F300031208529FC00312085200C10312085279
:10180300DFBD0312085264BE03120852C8BE03129E
:101813000852CDBC03120852EFBC0312085259BD43
:101823000312085264BD03120852A8BD03120852E2
:1018330044EF0212085252EF0212085293EF0212BF
:101843000852B4EF0212085231F00212085299F012
:1018530002120852BBF0021208521EF10212085281
:1018630039F10212085254F1021208525EF10212C7
:10187300085268F1021208527BF10212085294F1E5
:101883000212085230F202120852ECF2021208520B
:101893006CF302120852E6F30212085232F40212F7
:1018A3000852D9F402120852B5F502120852B09246
:1018B30003120852BE9203120852389303120852BD
:1018C3001C9403120852D595031208527DC30312C8
:1018D30008525FF702120852CCF7021208528DF831
:1018E30002120852FDF80212085206FA02120852B6
:1018F3007EFB02120852E2FB0212085237FC02126C
:10190300085240FC021208524FFC0212085262FCB9
:101913000212085278FC0212085281FC0212085289
:101923000080031208525580031208525182031299
:101933000852838203120852A58203120852BE8200
:1019430003120852D78203120852E183031208528A
:101953007C8403120852CBB703120852EFB7031269
:10196300085208B8031208523BB8031208526CB865
:10197300031208529AB803120852FCB80312085211
:101983000BB90312085215B90312085222B90312F4
:1019930008520FA20312085235A20312085272A270
:1019A3000312085281A203120852A0A20312085282
:1019B30008A30312085211A30312085270A30312BF
:1019C300085294A30312085253A40312085260A4AA
:1019D3000312085271A403120852B6C2031208522A
:1019E300D3C203120852F38403120852518603121E
:1019F30008525E86031208527186031208529086BB
:101A030003120852A68603120852BA86031208521A
:101A13002F87031208529487031208524488031233
:101A23000852198903120852298903120852388966
:101A330003120852DBBF03120852FFBF03120852FE
:101A430027C0031208524FC0031208529FA4031267
:101A53000852C6A403120852E7A4031208524CA565
:101A63000312085205A7031208521EA703120852B5
:101A73002AA7031208523EA7031208525CA70312B7
:101A8300085266A70312085270A70312085283A7CD
:101A930003120852D6A7031208520FA803120852C2
:101AA3003EA8031208528CA803120852DBA80312A3
:101AB3000852F6A80312085200A90312085211A9EA
:101AC3000312085257A9031208528DC10312085278
:101AD30008E60212085232E6021208524EE60212D9
:101AE300085261E60212085277E602120852D4E65F
:101AF3000212085207E70212085243EB021208527D
:101B030069EC021208529CEC02120852E8EC021231
:101B1300085214EE021208523CEE0212085251EE21
:101B23000212085261EE02120852A5EE0212085286
:101B330006EF0212085216EF0212085287BA031276
:101B43000852A2BA03120852CBBA03120852E5BADA
:101B5300031208520ABB0312085229BB031208528C
:101B630041BB031208526FBB0312085289BB031215
:101B7300085272C20312085277FC011208527EFC0B
:101B8300011208528AFD01120852BAFD01120852CD
:101B9300E0FD0112085203FE0112085225FE011254
:101BA30008525FFE01120852C5FE01120852FEFEE2
:101BB300011208524AFF0112085277FF011208521C
:101BC30097FF01120852D6B403120852E8B4031265
:101BD3000852D3B50312085260B603120852BABBB7
:101BE300031208522CBC031208526ABC0312085297
:101BF300ABBC031208528C9903120852A899031222
:101C03000852F79903120852139A03120852449A7E
:101C130003120852549A03120852409B03120852AB
:101C23004A9B03120852579B03120852679C0312E4
:101C330008527B9C03120852849C03120852718938
:101C430003120852B68D03120852BB8D03120852B9
:101C530028C303120852F2C20312085255C30312D7
:101C630008529FC303120852F2A20112085243A161
:101C730001120852FE9E01120852859E011208525B
:101C83002C9E01120852C09D01120852979D011209
:101C930008528A9B01120852569B01120852239B39
:101CA30001120852079B011208522D9A0112085281
:101CB300E599011208521A98011208529A970112D3
:101CC30008529797011208529E96011208526C9679
:101CD30001120852A99501120852D4930112085215
:101CE30065930112085237930112085257AC01123F
:101CF30008520EAC01120852C6AB0112085204ABD3
:101D03000112085277AA01120852349301120852A1
:101D1300219301120852B99201120852A89201129A
:101D230008526AAA0112085289910112085253916A
:101D330001120852169101120852B790011208526B
:101D430078A7011208529FE50212085286900112E9
:101D53000852418D01120852328C01120852C18B74
:101D630001120852868B01120852518B011208523C
:101D7300458B01120852A58A01120852EC890112FF
:101D83000852BF87011208524B8501120852098578
:101D930001120852D4830112085289830112085296
:101DA300BB8201120852128201120852AE81011243
:101DB3000852E88101120852CAA401120852FAE03B
:101DC3000200000080FBE47300004FF828080220A3
:101DD3008410488800802FF821C042A042A084903C
:101DE300888800802208224822482248FA4822484C
:101DF3002248224822483A48E24802480208040896
:101E030004000200FFF8020002007FF042104210BB
:101E1300421042104210427002000200040002000D
:101E2300FFF8800884080400FFF8084010403C8055
:101E3300030004C01820E0100110FCA0480049F082
:101E43007840484048407BF8484048405CA0E8A0C0
:101E530009100A08108027F8408097F01550255084
:101E630067F0A00027F0210020902A882A2831E07B
:101E730000200D2070A010A01220FD20112030386A
:101E83003BE0542090201020102010202080208040
:101E93002080F7F02080208027E03220E2202140BC
:101EA300208021402220EC1800003FF8210821085F
:101EB30021083FF8210821083FF82108210841089B
:101EC30041088038020001003FF82008200820085C
:101ED3003FF8200820002000200040004000800040
:101EE30001207D40049028A010402FA040189FC0DF
:101EF300104010401FC010400880FFF800007FE032
:101F030000203FE00020FFF80200222013400A8057
:101F130012402220C2180E00210021102110F920A6
:101F2300A940A900ABF8A940A940A920B920215094
:101F3300218821003FE0202020203FE00000000016
:101F4300FFF8080010003FE000200020002000C040
:101F53000200FFF8800804405290510892280FE0D5
:101F63003000C200222022203FE00020000007E0D2
:101F7300F8202220222042207BF8C80848084FE896
:101F83004808780848080030010001F0FA102420BE
:101F930023F842487A48CBF84A484A484BF87A48EB
:101FA3004248041804000200FFF8800800003FE0E4
:101FB30002000200220023E02200220052008FF8D8
:101FC3000000FC004BF0491079104910491078A02B
:101FD30048A04E40F84008A009100A080080449029
:101FE30022A0108007F08410441017F0141024105E
:101FF30027F0441044100470020002007FF0040034
:102003000400FFF8080010003FE0002000401C809F
:1020130003000080088008800880889048904890DA
:1020230028A028A028C00880088008800880FFF81E
:10203300020002007FF004000400FFF80800100013
:102043003FE0002000401C8003000080010040802E
:10205300200017F0008080804080008017F01080FF
:102063002080208040804FF800007FF002000200B3
:1020730002000200FFF80500050009001100210815
:10208300410880F820A02090488048F0F380108019
:1020930020B843C0F89000A0004818A8E31800082F
:1020A30047F0212020C007F00490E49027F024900B
:1020B300249027F0249024B050008FF840002FE0A4
:1020C300222002200220E2202FE0222022202228A8
:1020D3002A2832282218020840502048204007F8B6
:1020E300E44024482748255025502D2035282B68C7
:1020F30008981108110010802FF8200067F0A00045
:1021030027F0200027F024102410241027F0241097
:102113000400020000007FF00000000000202020E7
:1021230010401040088008800100FFF800003FE0E5
:102133002020202020203FE002000200220023F084
:102143002200220052008FF8101010102810249043
:10215300429080907C904490449044905810421058
:1021630042103E70201810E0FE8044802880FEF864
:1021730000901090FE901090549092901110721055
:102183000080FE80108024F84310FE90129010907F
:10219300FEA010A010401EA0F1100208000047E0AE
:1021A3002000200000000FF0E2402240224022489D
:1021B3002448283850008FF80000F3E01220122042
:1021C300F3E0808087F08490F49017F010801090F3
:1021D3001FF860080200020002000200FFF802007C
:1021E3000500050005000880088010402020C01865
:1021F3003FF82080210027F0241027F0241027F037
:1022030020802490248848884080838007E04420ED
:10221300242007E08420442007E020002FF04A50C8
:102223004A508A508A501FF800004FF028100810B7
:102233008FF0481008102FF0224052484A50866011
:1022430082401FF8020001003FF824203FF82420B9
:1022530027E020002FF02420224041804660981878
:102263002100210041E09220F5402080414082205E
:10227300F418018000603300C0C0002020401248E1
:102283001248FA4803F808008BF8488053F852A81C
:1022930002A81AA8E2A8021800000000000000002B
:1022A30000000000FFF80000000000000000000034
:1022B30000000000000000007FF0000000000000AC
:1022C300000000000000000000000000FFF8000014
:1022D30000007FF0000000000000000000003FE06D
:1022E30000000000000000000000FFF800007FF87D
:1022F3004488448844884488448844884488487887
:10230300500840087FF8400810801FF8100027F09D
:10231300241067F0A0002FF8280827F02040204061
:10232300204021C002000200020002107B200B406B
:102333000A801280124022204210820802000E00FE
:102343000200020002007FF0421042107FF04210B0
:1023530042107FF042000208020801F810407FF0AB
:1023630002003FE00400FFF808001FE030205FE0B8
:1023730090201FE010201FE0020002000200221044
:102383002210222045408500050008800880104067
:102393002020C018103091C0D500B9009100FDF87D
:1023A3009120B920D5209520912091208220FC20D6
:1023B30000007FF84008422853284AA8444844486C
:1023C3004AA84AA851086208400840382080208063
:1023D300249024B0F5D02E9024902490249024B0FF
:1023E3003480C408040803F82040204020402040E3
:1023F300FA40227822402240224022403A40E240E2
:1024030002400FF8210021002100FBE021202120C0
:10241300212025302528292822202220242028C0D5
:10242300400027F824880488E5E8248827F824084E
:1024330025E82D28352825E8040808387DF04510BF
:1024430045107DF000400220FFF808803060C0187E
:102453007DF0451045107DF00080788048F04910EC
:102463004AA0784010A053185C0051F051105D1041
:10247300E1F001100200020002007FF0421042105E
:10248300421042107FF042104210421042107FF07F
:102493000000000000000000000000001800180009
:1024A3000000000018001800000000006000900009
:1024B30097E86818100810081000100010001000AA
:1024C3001008081007E00000180024082410242036
:1024D30024402480190002600490089010902090FA
:1024E30040900060000000000000000000000000B9
:1024F3000000000010101010101000003030000019
:10250300001428500000000000000000000000003C
:10251300002828FC284850FC5050000000001038C8
:102523005454301814545438100000000044A8A820
:10253300B0541A2A2A44000000000020505060AC16
:10254300A898927C000000606020C000000000009A
:1025530000000000000408081010101010100808F4
:102563000400000040201008040810204000000070
:102573000000001010D63838D610100000000000FC
:1025830000101010FE1010100000000000000000EA
:10259300000000000000606020C000000000000098
:1025A300FC0000000000000000000000000000002C
:1025B30000006060000000020404040808101020FA
:1025C3002020400000000030488484848484483004
:1025D300000000000010701010101010107C00009C
:1025E30000000038444404081020447C000000002C
:1025F3000038444418040444443800000000080828
:1026030018284848887C081C00000000007C4040D3
:1026130078440444443800000000003C4480B8C4BB
:102623008484847800000000007C44480810101063
:102633001010000000000078848448788484847833
:102643000000000000788484848C740488F0000007
:1026530000000000003030000000303000000000B7
:10266300000000001000000000101020000004080B
:10267300102040201008040000000000000000FCAF
:102683000000FC00000000000000402010080408C7
:10269300102040000000000078848484081010009B
:1026A3003030000000000038449AAAAAAAB4423C81
:1026B30000000000001010282828384444EE0000D1
:1026C300000000F844447844444444F80000000007
:1026D300003C44848080808044380000000000F087
:1026E30048444444444448F00000000000FC444093
:1026F3004878484044FC0000000000FC4240487811
:10270300484040E000000000003C448480808E8408
:1027130044380000000000EE4444447C444444EE4A
:1027230000000000007C101010101010107C00003E
:102733000000007C101010101010101090E000002A
:1027430000EE44485070484844EE0000000000E0AA
:1027530040404040404044FC0000000000EE6C6CF0
:102763006C54545454D60000000000EE6464545476
:10277300544C4CE40000000000304884848484847A
:1027830048300000000000F844444478404040E0F2
:102793000000000000304884848484B448380C006E
:1027A300000000F844447850484844E60000000024
:1027B300003C44402018040444780000000000FE5C
:1027C30092101010101010380000000000EE444466
:1027D3004444444444380000000000EE44442828A4
:1027E300282810100000000000D6545454546C28BC
:1027F30028280000000000EE44282810282844EE72
:102803000000000000EE44282810101010380000CB
:102813000000007C88081020204044FC0000001CBD
:10282300101010101010101010101C000070101059
:1028330010101010101010107000007010101010F5
:10284300101010101010700000102800000000007D
:102853000000000000000000000000000000000075
:10286300000000FE00606020C000000000000000C7
:10287300000000000000000038441C24443E000017
:10288300000000C040407844444444780000000005
:10289300000000003C444040443800000000000CAD
:1028A30004043C444444443E000000000000000093
:1028B30038447C40443800000000001C2420F820E9
:1028C3002020207800000000000000003C48483031
:1028D30040784438000000C040405864444444EE0B
:1028E300000000000010000070101010107C0000A9
:1028F30000000008000038080808080808700000F5
:1029030000C040405C48507048EC0000000000707C
:10291300101010101010107C0000000000000000C8
:10292300F854545454D60000000000000000D8644A
:10293300444444EE000000000000000038444444D6
:1029430044380000000000000000F8444444447888
:1029530040E00000000000003C444444443C040EBA
:10296300000000000000EC30202020F800000000F0
:10297300000000003C4430084478000000000000E0
:1029830010107C101010100C00000000000000005C
:10299300CC444444443E0000000000000000EE44E8
:1029A300282828100000000000000000D6545454CA
:1029B30028280000000000000000DC48303048EC0C
:1029C3000000000000000000EE442828101020E062
:1029D3000000000000007C481010247C0000101050
:1029E30010101010101010101010101000013636B7
:1029F30001010001020100010301000104010606B7
:102A030005020000070100340801000F0904010159
:102A13000D0100FF0E08000017020000190100FF5E
:102A23001A0100011B0100FE1C0100081D02000029
:102A33001F01000120010001210200002301000FFA
:102A4300240200002601000127010008280200FFDC
:102A53002A0100072B0102402C0100002D01000177
:102A63002E0100012F0100FF30010B1C3108000073
:102A73003A0100083B01000F2F010000C9EEDBDA29
:102A8300CAD0B0B2C1AAB5C2BFC6BCBCD3C3BBA770
:102A9300B5C7C2BCD5CABAC5C3DCC2EBC8B7B6A8F2
:102AA300C8A1CFFBD7A8D2B5D7A8D7A2CEDECFDF98
:102AB300CDA8D1B6B3CFD0C5C1A2D7E3B4B4D0C2E9
:102AC300D6C2D4B6C7BFB4F3D4ADCEC2CAAAB6C8B1
:102AD300D6D5B6CBD2BBB6FEC8FDCBC4CDA3CBAE49
:102AE300B5E7D7C5BBF0B6CFCDF8B5D8D6B7D0AD1F
:102AF300B5F7C6F7C2B7D3C9A3BAA1E6A3A5000128
:102B03000371030103010301030103010322030210
:102B13000301031003000300030003000300030089
:102B2300030003420300032403060300030003041A
:102B330003120325032303250323030403040300D0
:102B4300030003000344030003000323030003659E
:102B53000321003503810300030503000300030081
:102B630003030271023001600211027002010202CA
:102B73000202028002100261023A00410063027302
:102B830002720262024302000213023800000200D2
:102B93000204021202000200020002000204020404
:102BA30002370037003C02440200023900000200F1
:102BB30002650200023502810200020502820283DD
:102BC3000200020300710030016000110070003147
:102BD3000220035004800010006100000014006311
:102BE300007300720062004300000013000600003F
:102BF30000000004001200000000000000000004B8
:102C0300000400370037003C0244000000000000CD
:102C13000000006500000035008100000005000091
:102C23000083000000010171010101010111010193
:102C3300013101010101018001100161013B001417
:102C43000063017301720162014301000113010674
:102C5300013D0135000401120100010001000100E2
:102C63000104010401330133013C01440132013603
:102C7300000001000165010001350081010001052B
:102C83000182018301000136000100060000000FEC
:102C93000000000000000000000000000003FFFF30
:102CA30000000403FFFF0000FFFF0FF4010005C451
:102CB300040320000100030B0000000000000000DB
:102CC30003010F0100161702008C1603009216046D
:102CD30000981605009E160600AA161100C21614C7
:102CE30000C8161500BC16FFFF0000720FA20F7874
:102CF3000F7E0F9C0F900F8A0FA80FAE0FB40FC05B
:102D03000F840F6C0F660F03EAF5E5D5D5C5B5A59E
:102D130095958585757565655555454535352525E0
:102D23001515050A3E0D02080D051A0D070E0D0CAB
:102D3300EA0C0DFC0CFF000000160F00000B150B36
:102D4300020002220F320000065C106E1074103C69
:102D53000F7A10360F420FBC10DA10E010C210CEFB
:102D630010C8100C0E020B040B0A0708000F000119
:102D730019161816161523030000383C3E363B3B44
:102D8300352B432C00034948424D181725050230C3
:102D93003016181920231A1C1E3030301718192129
:102DA300301B1D1F30960FBA0FD410C60FCC0FB0B7
:102DB300108010861092108C100204020101010190
:102DC300090200000000000000BE040A0E00150006
:102DD3000400280008050C0A030908FF1E1E0F043F
:102DE30004100C74F7120387E99003B0F0900365A5
:102DF300E4F0121BC69003B5E4F0A3F09003B1F026
:102E0300A3F0120E76121BCC900334E4F0A3F090DF
:102E13002DE193FA7902121C2C025A7C74F21203EC
:102E230087EAFEEBFF548060699003B0E0F9121368
:102E3300C88A088B09EA4509604F7C0080010CECC5
:102E430075F003A4F8A9F0742628F582742D39F5DA
:102E530083E493F4602CE493F88508828B83E06821
:102E630070DCAA08EC75F003A4F8742728F58274C3
:102E73002D39F583E493C0E0740193F583D0821276
:102E83001DC9AA08AB091213BCEEFAEF6480FB025A
:102E93002FECEF5420601D120D988A088B09EA4528
:102EA30009600A120CFCAA08AB091213BCEEFAEF74
:102EB300642080DAEEA2E0501A90036AE0640F7097
:102EC3000B7900120CC6E96003122FEFEE6401FACE
:102ED300EF80BB54207003022FBA750C001244C15B
:102EE3008B09EA450970107C027D007A207B0090F3
:102EF30003B0E0F91215127C0079047A007B00120A
:102F03000D748A088B098018850882850983A3A319
:102F1300A3A3A3A3A3A3A37401F0850A08850B09A4
:102F2300E5084509606D7C007904AA08AB09120D18
:102F3300748A0A8B0B750C01E5082404F8E5091261
:102F4300426524FFF0A3E034FF12655870CC850876
:102F530082850983A3A3A3A3A3A3A3A3A3A3E06439
:102F63000170A5850882850983A3A3A3A3A3A3E076
:102F730054047094850882850983A3A3A3A3A3A300
:102F8300A3A3A37406F07AB7850882850983123157
:102F93001B8087120D447C0079017A007B00120D9F
:102FA300748B09EA45097009E50C70057A201254FF
:102FB3001BEE6420022ED2EF5402600B120E70EE51
:102FC300FAEF6402022E91EF540460191255B21203
:102FD30054D27901900363125836120C0CEEFAEFB7
:102FE3006404022E917A007B00023222900D0B12B0
:102FF30038B9120CDE22C082C08374EA120931850B
:103003001882851983AA82AB83794B121C02740838
:10301300120B037402F07409120B03AA82AB8379B7
:1030230050121C027413120B03E4125A05121C20D3
:1030330074160249DF74F712038774E1120931EA47
:10304300FEEBFFEE4F6033851882851983AC82ADAA
:1030530083120DBC7406120B03E0601E7417120B6F
:1030630003E0FD7401120B03E0FCEEFAEFFB7900C1
:10307300120B34E9600479A480027900025A777450
:10308300F6120387EAFEEBFF8E828F83A3A3A3A32B
:10309300A3A3E05440601B125EF41231E960067A88
:1030A300FF7BFF801A8E828F8312466BFAA3E0FBAD
:1030B3008003120DE074FE6A700374FF6B604112AB
:1030C3005EF412545F120E34E98E828F836006120F
:1030D3003114E480051231147401F07CCC7D0C8E24
:1030E300828F83125836121C26E9F5087015EE4FAD
:1030F30060097901EEFAEFFB120D50A90802549012
:103103007508CDAA088E828F8312311BE960DF8098
:10311300EAE0240D124B3A22E0240C124B3AE0F978
:10312300120CD82274F6120387E9FEEAFF7A0F7BAA
:1031330000121DBEEA4B60198A828B83740CF0EE79
:10314300A3A3F0EF8A828B83A3F01254BB79008090
:103153002FEEF9120D7A8A088B09A808A909E84904
:10316300601C88828983A3A3A3A3A3A3A3A3A3749B
:103173000612617FE0F9120C90EEF9120D567910E8
:10318300025490C082C08390036AE0640F7014EA13
:103193004B6010900365E064086005E0640470030D
:1031A3001231A9024A09EAFCEBFD7A017B00900384
:1031B300B0E0F912150C22C082C0837900EA241D05
:1031C300F582EB12466824FD600B14600824FD6051
:1031D3000424FD700109024A098E828F83A3A3A3ED
:1031E300A3A3A3A3A3A31231ED221246B0FB120E95
:1031F30034E9228E828F83A3A3A3A3A3A3A3A3A3B0
:103203001231ED6402228E828F83A3A3A3A3A3A30F
:10321300A3A3A3124A00900356E068221208B77FC3
:10322300060205A174F412038774FD1209318A089A
:103233008B098A828B83A3A3E0F9120D7A8A0A8B06
:103243000BAE0AAF0BEE4F700302332E8508828557
:103253000983A3E064F16030850882850983A3E0D4
:1032630064CD6024850882850983A3E0641A60180D
:10327300850882850983A3E064E9600C850882855B
:103283000983A3E064E170087900120D50E9706CC2
:10329300850882850983A3E0C0E07402120B03D082
:1032A300E01249E4EEF0A3EF123D0F851882851971
:1032B30083AA82AB837005120BF48003120E1C7475
:1032C30002120B03E064E970338E828F8312333A68
:1032D300750A01780A120873750AE9780A120873E5
:1032E300E508240CF582E509123801123CECFCA335
:1032F300E0FD8A828B83123D061208B78E828F838C
:10330300A3A3A3A3A3A3A3A3A3E0640270108E8229
:103313008F83A3A3A3A3A3A3A3A3A37406F08508E6
:1033230082850983A3A3E0F9120D56120D44900D73
:103333000F122FF20238BEE0F8A3E0F9E8FAE9FB36
:103343002274F4120387EAFEEBFF7508008E828F66
:1033530083A3A3A3A3A3E060427508088E828F838F
:10336300A3A3A3A3A3A3A3A31249138B0BEA450B04
:10337300601075082C8E828F83A3A3A3A3A3E0D22E
:10338300E0F08E828F83A3A3A3A3A3E0540364017D
:10339300600302342D43081102342DEE2418123831
:1033A300CB6033EE241A1238CB700F12320970033C
:1033B300A3E06970757508228070EE241BF582EF17
:1033C300123432241AF582EF123D17EE2419125FDC
:1033D30028120C7E80541231F670037508011232E4
:1033E300097003A3E0697006E508D2E1F508E50872
:1033F30060158E828F83A3A3E07006E508D2E58073
:1034030004E508D2E6F5081231DC64017006E5082C
:10341300D2E0F5088E828F83A3A3E0600D123440BF
:1034230064016006E508C2E0F508A9080238C31282
:10343300465612343922E0FCA3E0FDEE2212465038
:10344300124688F9120E22E922C082C08379018ACA
:10345300828B83A3A3E0C394024001198A828B83E6
:10346300A3A3A3A3E0C39402400279008A828B83BF
:10347300A3A3A3A3A3A3A3A3A3E064F87003A3E05C
:10348300F460458A828B83A3A3A3A3A3A3A3A3A3CB
:10349300E064F97003A3E0F4602E8A828B83A3A314
:1034A300A3A3A3A3A3A3A3E064FA7003A3E0F4601C
:1034B300178A828B83A3A3A3A3A3A3A3A3A3E064D9
:1034C300FB7003A3E0F4700279008A828B83A3A3C9
:1034D300A3E0F8900353E06860027900024A09749C
:1034E300F012038774DE120931EAFEEBFF8E828F3E
:1034F30083A3A3A3A3E0600E900D0D12548760066F
:10350300900D0D122FF27403120B03AC82AD838E58
:10351300828F83A3A3A3125509125D42E9600F743E
:1035230003120B03AA82AB83120CF6E9700879012C
:10353300121BD80237F6EE241B12465B7410120BD3
:10354300031254D27409120B03E06021741A120B94
:1035530003E0FD7404120B03E0FC8E828F83125888
:10356300347901120B34E96004790280C3740312C5
:103573000B03AA82AB83120CF0E9F50A7409120B50
:1035830003E0702A90034DE060247422550A6422FC
:10359300601C7442550A644270CF7420120B0312EC
:1035A3003814600A7420120B0312380D70BBE9A2A1
:1035B300E650417403120B03AA82AB83120CE4E9B5
:1035C30070030235317420120B0312466B640370CF
:1035D3000F7420120B03A3125479A3E0640D60143B
:1035E3007403120B03AA82AB83120E46E9640170C3
:1035F300030237F6EE242C1237FE123B227003A38C
:10360300E069701C750800780812087378081208BE
:1036130073EE242E125F2812381A123D061208B7D1
:103623007409120B03E070030236D312381A1258CE
:1036330036120E9A8A088B09EA450970030237701D
:103643007404120B03E0F88E828F83A3A3E028F89F
:10365300A3E03400F9E8240D1238058A828B83A392
:10366300A3A3E068601CE88A828B83A3A3A3F090E2
:103673008164120AE0850882850983A3A3A3A312A8
:103683000AEC7904E9120B03125D1F2AF8A3E03454
:10369300008882F583A3AA82AB831213A48A0C8BBE
:1036A3000D8C0E8D0F850882850983A3A3A3A378B0
:1036B3000C12080B40030237F6908198780C12091C
:1036C300C0850882850983A3A3A3A3780C120AC427
:1036D300900365E064046008E0640960030237F660
:1036E300E50AA2E540030237AEEE242E1238CB855D
:1036F3001882851983F0EE242F1238CBC0E07401B1
:10370300120B03D0E0F0EE24301238CBC0E0740289
:10371300120B03D0E0F07414120B03E06401702762
:10372300740E120B03124661EE24121238CB68702A
:1037330003A3E0697011740C120B031232037007B8
:103743007414120B03E4F0EE24241237FE1206A2C3
:103753007404120B03AC82AD837407120B03AA82A9
:10376300AB83120BFA74041208B70237F69003AA5C
:10377300E0640160030236D37420120B0312381481
:103783007009E50AA2E650030236D37410120B0344
:10379300E0F47003A3E0F4605AEEFCEFFD7403124F
:1037A3000B03AA82AB83120D028048A2E650447435
:1037B30020120B03125845701A741A120B03E0649B
:1037C3000270307403120B03AA82AB837900120ECA
:1037D3001080207420120B0312380D7016741A1205
:1037E3000B03E06404700C7403120B03AA82AB8313
:1037F300120E0A7422025BF1EE240BF582EF1246DD
:103803005622F582E91254EBF822125F06E06407B0
:1038130022124688640622EE242A124653123439B1
:1038230024121246532274F4120387EAFEEBFF8C30
:10383300088D099005DEE0600F1232097003A3E0E2
:10384300697005120C6C804F7900125829120C9C78
:103853008A828B83E58245836035A3A3A3A3A3A3B5
:10386300E05418602AE508241BF582E509123801A3
:103873001206A6123EFF1238011206A6EE241812F3
:103883005F2812389C120CAE74041208B7800879B2
:103893000012389C120C7280278E828F83A3A3A3FD
:1038A300A3A3A3A3A3A3123439240BF582EF1238E5
:1038B300B5223400F5831246B0FB2274031208B715
:1038C3007F040205A1EE2417F582EF1254EB227454
:1038D300F712038774F7120931EAFEEBFF900365D1
:1038E300E06403600DE064016008E06409600302C2
:1038F300399C8E828F83A3E0707E7C007D007A02E8
:103903007B00121BD2EE2402FAEF12426C124661C4
:103913009003561254D27953121C0879001239A11C
:10392300E064096003123D348518828519837401AC
:103933001254A89003657404F07401120B03AA8255
:10394300AB83794A121C027401120B03AC82AD8360
:103953007A5B7B03121BF0900356125D387A0312D5
:103963003D3E900350E0A2E35004D2F08002C2F047
:10397300125495122FEF801E8E828F83A3AE82AFD7
:1039830083FC7D007A037B10121BD28E828F83E02F
:10399300F91239A1E4F0120D2C7409025A7990033B
:1039A300631238B9120C0C90036522C082C0839055
:1039B3000334125487701F900365E014600924FCDC
:1039C300600A14600C800F90033C803290033880AF
:1039D3002D90033A8028E8496008900335123CE6AD
:1039E300700C8A828B83A3E0F9120C00801B900376
:1039F30035123F9B7005120E64800E9003D2125451
:103A0300876006125479121DC9024A0974F412031D
:103A13008774FB1209318A088B097A0F7B00121D08
:103A2300BE8A0A8B0BAE0AAF0BEE4F7003023B1636
:103A33008E828F83125A037950121C028508828565
:103A43000983A3E06003023AFE900363E0F470038A
:103A5300A3E0F46034900363E064FE7003A3E0F436
:103A63006027851882851983123B227003A3E069BE
:103A73006017850882850983A374EA123D1C7A6363
:103A83007B037950121C0880728518828519831272
:103A93005EE71254D27A567B037953121C029003C9
:103AA300561255031254D27A597B03794B121C02D6
:103AB3007A587B0379E1121C0290036AE0C3940FE6
:103AC3005021900358E0C0E07402120B03D0E0F0E1
:103AD3007404120B037401F004120B03AA82AB8368
:103AE300121C1A750A00780A120873780A120873EE
:103AF300900D35E0F9123CFD1208B785088285095F
:103B030083123B1BA3F09003657403F0EEFAEFFB03
:103B13001254BB74050238C0A3E08E828F83221235
:103B23005EEBE06822124B412274F512038774D8CE
:103B33001209318A088B098A828B83A3A3A31246B5
:103B43008D7415120B03AC82AD838A828B83A3A37E
:103B5300A3A3A3A3A3A3123CECFAA3E0FB120D328D
:103B63007415120B03E0706B850882850983A3A388
:103B7300A3A3A3A3A3A3E0C3940B40578E828F8375
:103B8300A3A3A3A3A3A3A3A3E064027046EE240B01
:103B93001238CBF4703D900365E06402603AE06450
:103BA3000660359003341254876005123CE6604F7B
:103BB300900365E064086005E064047016741712EE
:103BC3000B03E0F9741C120B03AC82AD831258296A
:103BD300120D387428026405900334125487701F41
:103BE30075080078081208737808120873EE241019
:103BF3001237FE125F40124354123D061208B78E6D
:103C0300828F831257A512427E1246617402120BF1
:103C1300031254D2EE240D1238CBC0E07404120BFD
:103C230003D0E0123D0FF508A3E0F509740F7808FF
:103C3300120AB57405120B03E508F07419120B038D
:103C4300E0C0E07406120B03D0E0F0741B120B0308
:103C5300E0C0E07407120B03D0E0F07416120B03FC
:103C6300E0C0E07409120B03D0E0F07417120B03E9
:103C7300E0C0E07408120B03D0E0F0EE2410123819
:103C8300CBC0E0740A120B03D0E0F0741A120B03DA
:103C9300E0C0E0740B120B03D0E0F07427120B03A7
:103CA300E0C0E0740C120B03D0E0F0741C120B03A1
:103CB300A982AA8389088A09750A00780812086B01
:103CC3007C087D007410120B03AA82AB831250365A
:103CD3001208B7851882851983AA82AB83120C0652
:103CE300023BD6123FA1640122E0F98A828B83A3AF
:103CF300A3A3A3A3A3A3A3A3E022900363125D3C06
:103D03009003591238B9120DF2740222F0EE240B0B
:103D13001254E8221254EBFA22F07A567B037953B9
:103D2300123D2722121C087A597B03794B121C0877
:103D3300229003631238B9120E94227B00121BD215
:103D4300900359125D3C7A047B00121BD222F012BD
:103D53005F4B2274F212038774F8120931EAFEEB07
:103D6300FF8C0A8D0B890C851882851983AC82AD73
:103D73008375838175821D74081207CBF50DEEFCE4
:103D8300EFFD851882851983AA82AB8312570670CB
:103D930003750D019003B1803BEEFCEFFDE50824B4
:103DA3000BFAE5093400125705601E850882850960
:103DB30083A3A3E0650C7011850882850983E06500
:103DC3000A7004A3E0650B6038E5082414F582E566
:103DD30009123801124276E50845096024E50DA26F
:103DE300E040B6850882850983E0650A7004A3E094
:103DF300650B70D5850882850983A3A3E0650C70E4
:103E0300C8AA08AB09740802321FC082C08390039A
:103E1300B1024A0674F71203879003B11246B080C9
:103E230012EA2414F582EB12380112468D1214584B
:103E3300EEFAEFFBEA4B70E99003B1E4F0A3F00272
:103E43005A7C7F070205A174F1120387EAFEEBFF98
:103E5300890A8C088D098E828F83E08C828D831270
:103E6300491DAE82AF83E01250F6125067C4125060
:103E7300F6123F08E054038C828D83125065A2E250
:103E8300E4338C828D83125064131313541F125026
:103E9300F6125063A2E7E4338C828D83A3A3A3A31A
:103EA300123F088E0C8F0D750E00780C12086B7C78
:103EB300087D00E5082407125CAB1208B7125D16F3
:103EC3008E0C8F0D780C12086B7C037D00E50824A3
:103ED3000F125CAB1208B7E50AC3940F40148E822D
:103EE3008F83A3A3A3E0C0E0123EFF123801D0E00A
:103EF3008006123EFF126173F0023E45E50824126C
:103F0300F582E50922A3A31249210EAF832274F49B
:103F130012038774F9120931EAFEEBFF8908900353
:103F230034125487600E123F9B7009EEFAEFFB12B6
:103F33000E5E805F900363E06E7003A3E06F7053C7
:103F43007401650860097A777B0312570670447A17
:103F5300007B021244C58B0BEA450B703690036657
:103F6300120AE0851882851983120AEC90036CE02B
:103F7300C0E07404120B03D0E0F07405120B037459
:103F830001F07406120B03125A03120BD0E9609B63
:103F9300120BD674070238C0123FA1640222125FCB
:103FA30007A3A3A3A3A3A3E02274F51203878A089C
:103FB3008B098A828B83A3AE82AF83E0F9120C2430
:103FC3008E828F83E064EB600C850882850983A36E
:103FD300E064E17009850882850983A3E4F0122F68
:103FE300EF750A01780A120873850882850983A38D
:103FF300E0F50878081208737900123CFD1208B73F
:10400300120D44026408EAF0A3EBF0024A0974F6C5
:104013001203879003B4E0701B7C0079017A007B64
:1040230000120D74EA4B600C8A828B8312548760F2
:1040330003120CD2025490C082C0831244AD4010CC
:1040430079FF120D6EE9F8902DE5E493C3985004BF
:10405300790180027900024A0974F01203878A0801
:104063008B09890B750C008A828B83A3A3A3A3A35B
:10407300A3A3A3E0F9120D7A8A0E8B0FAE0EAF0F36
:10408300750A01EE4F600302413A85088285098370
:10409300A3A3A3A3A3A3125D38850882850983A3E1
:1040A300A3A3A3A3A3A3124E36125836120D628AFA
:1040B3000C8B0DAE0CAF0DEE4F700302425D8E8282
:1040C3008F83A3A3A3A3E4F0A3F0E508240B124278
:1040D30069E0C0E01237FBD0E0F0120E3AEE240C98
:1040E300F582EF12545BE508240EF582E5091246CA
:1040F3005EEE240EF582EF1254CF750C01EE24060A
:10410300F8EF124265547FF0A3E054FC125F9DE088
:10411300540460030241C0900D13124E27740778B4
:1041230008120A328E828F83A3A3A3A3A3A3E0451D
:1041330008F0A3E04509F08E828F83A3A3A3A31203
:10414300427474077808120AB5E5085407F508E5C0
:104153000B607A8E828F83A3A3A3A3A3A3A3A3A39A
:104163007402125068240D124B36E0A2E2500B90F9
:104173000351125503A3A31254D2E508700302425C
:1041830032EE2406F8EF3400F9E8FAE9FB8A828B71
:1041930083E0547FFCA3E054FCFDE50824FFF5080D
:1041A300E434FFF50974077808120A32EC4508F87D
:1041B300ED4509F98A828B831254D280728E828FE5
:1041C30083A3A3A3A3A3A3E04480024139E508701A
:1041D30005750A0080598E828F83A3A3A3A3A3A38B
:1041E300E0542060121213B0EA547F245F8E828F52
:1041F30083A3A3A3A380238E828F83A3A3A3A3A3B9
:10420300A3E05410600A1213B0EA540F240A80DDAD
:104213008E828F83A3A3A3A37401F0A3E412427E2F
:1042230074041244BC8B09EA4509700312544EE529
:104233000CA2E050288E828F83A3A3A3A3125A69F2
:10424300F9EEFAEFFB120D68E9601212547D600378
:10425300124646EEFAEFFB121458750A00A90A0239
:104263005BF41255C622FAE5093400FB8A828B837C
:1042730022A3A3E0F508A3E0F50922124282221249
:104283005CC7A3A3A3A3A32274F412038774F71236
:1042930009317E00120D7AEA4B700302434D8A8284
:1042A3008B83A3A3A3A3A3A3A3A3A3E06406600395
:1042B30002434D8A828B83A3A3A3A3A3A3A3E0FFFB
:1042C3008A828B83124B49E0C0E07408120B03D03F
:1042D300E012468112570C1254D2120D8CEF54087F
:1042E3006066851882851983125D387A007B001217
:1042F3000D5C8B0BEA450B704F90036312477112F1
:104303001C327C007D007A007B0080288E828F83A4
:1043130012466BF47003A3E0F4602D900363124321
:1043230054125836121926E9641A601C7C007D0069
:10433300EEFAEFFB120D5C8A0A8B0BAE0AAF0BEEA3
:104343004F70C97900121C387E01EEF974090238E6
:10435300C012435822E0FCA3E0FD8E828F8322C06B
:1043630082C083EA4B70059003B580068A828B83F3
:10437300A3A312457160258A828B83A3A3A3A3A35E
:10438300A3A3E0540860E5EC4D60158A828B831289
:10439300466B6C7003A3E06D70D280047A007B00DF
:1043A300024A0974F2120387EAFEEBFF890A8C08BA
:1043B3008D097A107B00121452EA4B603F8A828B7C
:1043C30083A3A3A3A3A3A3A3A3A3E412466FA3E579
:1043D3000A125F0DA31244098A828B83A3A3A3A3AA
:1043E300E4F0A312467BA3F0125DA1EA240CF5824C
:1043F300EB12490D124402A3A3F0A3F0023222A34D
:10440300F08A828B8322A3A3E508F0A3E509F022B7
:1044130074F4120387EAFEEBFF89088C0A8D0BEE16
:104423004F60557401650870147901120D6EE9F837
:10443300902DDDE493C398500F7911806A7404655D
:1044430008702F1244AD40F18E828F83A3A3A3A3E0
:10445300A3A3A3A3A3E50812491DA31264928E820A
:104463008F83A3A3E4F0A3F09003B51254876021D4
:10447300800D7402650860D079C1802BE0F8A31227
:1044830054FCA3A312457188828983A3A370ED8092
:10449300039003B5EEF0A3EF1244BC8B0BEA450B7C
:1044A300700312544E79000238C37904120D6EE979
:1044B300F8902DD8E493C39822F01244C1227A20B5
:1044C3007B009003B0E0F912151E22C082C083E97D
:1044D300F879009003B5801D8A828B83A3A3A3A3DD
:1044E300A3A3A3A3A3E068600574FF687001098A0E
:1044F300828B83A3A312457170DE024A0974F712FB
:104503000387EA4B70059003B580068A828B83A3E9
:10451300A312457160248A828B83A3A3A3A3A3A3BD
:10452300A3A3A3E06970E4EC60148A828B83E02484
:104533000D125D29A2E240D380047A007B00025A67
:104543007CC082C0839003B580068A828B83A3A339
:1045530012457160128A828B83A3A3A3A3A3A3A38F
:10456300A3E06970E580047A007B00024A091238EF
:10457300B9EA4B2274F21203878A0A8B0B8C0C8DD7
:104583000D750800750900EA450B602E9003B58090
:10459300068E828F83A3A31245C4601EAC0CAD0D9F
:1045A300EEFAEFFB850A82850B83121DC9E96401CC
:1045B30070DFEEF8EFF988088909AA08AB0902321F
:1045C30022E0FEA3E0FFEE4F2274F712038790036D
:1045D300B51246617C007D00800DE8FCE9FD888210
:1045E3008983A3A3124661E8496030EA687002EB4D
:1045F3006970E79003B5125836E86A7002E96B8870
:10460300828983A3A370081246619003B5800912BF
:1046130046618C828D83A3A31254D2025A7C74F711
:10462300120387EAFEEBFFEE4F6015120D8612466A
:104633009312547D6003124646EEFAEFFB121458B0
:10464300025A7CEE240C1246531246A822EE241D75
:10465300F582EF3400F58322F582EF124656124AB3
:104663000022F582EF124656124688221246732222
:10467300125F15A3A3A3A322124673A3A32212447A
:104683000312468822125F00E022E0FEA3E0FF222D
:104693008E828F83E0241C124B3A1246A88E828F9F
:1046A300831246A8221246B0FB12145822E0FAA342
:1046B300E022C082C083EAFCEBFDEC4D7004790577
:1046C3008044EC24FBF582ED34FF1254857007120D
:1046D300470CE0F460051213BC80E39003B0E0C024
:1046E300E012470CD0E0F0902DDAE493F97AB77B2F
:1046F300031213E6E96401700B7A007B2012545213
:10470300790080027904024A09EC24FFF582ED3432
:10471300FFF5832274F4120387A2AFE433F508C2D2
:10472300AF9003B71245C46038EE24FBF582EF3433
:10473300FF1254857A007B209003B0600512545514
:104743008005E0F91213F2E4F50AF50B780A120872
:104753006FEEFCEFFD7AB77B031213E074021208CD
:10476300B7E508A2E092AFEEFAEFFB0238C3125DA1
:104773003C851882851983AA82AB832274F21203C3
:104783008774FC120931EAFEEBFF750AFE750BFF15
:10479300120D4AE960057911024902EE2415123817
:1047A300CB6037900D27E0C43354E0F8E033335443
:1047B300FC48C0E0EE24151237FED0E012491D126A
:1047C30049138B09EA45096011750AFFEE240F129C
:1047D30038CB44041254E0D2E0F08E828F8312313E
:1047E300E76006EE241212490AEE24131238CB7046
:1047F30010902DE0E493C0E0EE24131237FED0E0D6
:10480300F08E828F83E0A2E750045403801CEE24D1
:10481300141238CB7015900342E0C0E0EE2414125A
:1048230037FED0E0F0900342E004F0EE241112389A
:10483300CB640170169005D5E0600D90034DE070D8
:104843000A8E828F83E070031249078E828F83E082
:1048530064017013EE240B12466564027009EE24A2
:104863000F1238CB4440F0851882851983AC82AD92
:1048730083EEFAEFFB120DB08A088B0974FE650A0A
:10488300700374FFF470098E828F83A3A3125CB745
:10489300EA450960668E828F83E0C0E07401120BE3
:1048A30003D0E0F07402120B03125DA57401120B26
:1048B3000385820C85830D780C12086FEE240F128A
:1048C30037FE1206A6EE240E1238CBF50C780C1226
:1048D30008739003561206A67407120B03E0F9AC93
:1048E3000AAD0B120DAA74071208B7E9FE74106E15
:1048F300700BAA08AB0912145880027E10EEF974EB
:104903000402321FEE2411F582EF124656E4F02220
:10491300A31238B979FF121CF82212492122F08E12
:10492300828F83A322C082C08374DE1209318A82FC
:104933008B83A3A3A3A3124661740E120B03E8F0A7
:10494300A3E91249F7740C120B031249F0240DF575
:1049530082EB1238CEC0E0741A120B03D0E0F012CF
:104963005C04EB12465E7420120B031249F024150B
:10497300F582EB1238CEC0E07408120B03D0E0F0DE
:10498300EA241CF582EB12465E7412120B031249E1
:10499300F02411F582EB1238CEC0E07409120B0338
:1049A300D0E01249E474FFF07401120B0374FFF0BA
:1049B3007402120B0374FFF09081641206A2740454
:1049C300120B03AC82AD837407120B03AA82AB8371
:1049D300120BFA74041208B7790074221208B78014
:1049E300251249E822F085188285198322E8F0A36D
:1049F300E9F0EA22124403A31249FF22A3E0F8A339
:104A0300E0F922125836D083D08202084F74EC1298
:104A1300038774EE1209318A128B13ECFEEDFF89C2
:104A2300097426120B03125CB77428120B03E0F50A
:104A3300107429120B03124B2B742B120B03E0F58A
:104A43000EA3E0F50F7508107A1E7B001214527442
:104A530002120B0312545F7402120B031254877079
:104A630003024B24851882851983AA82AB8379506C
:104A730012533A1258367402120B03124B49A31203
:104A8300545F7410120B031264947402120B03E04C
:104A9300240B124B367402F0120B03124B497402AF
:104AA300F0120B03125EF8125DA57402120B0312CF
:104AB300584BE509F07402120B03E0240C124B3639
:104AC300E510F07402120B03124B33E512F0A3E569
:104AD30013F07408120B03E50CF0A3E50DF0740A50
:104AE300120B03E510F0850E82850F83C082C0830D
:104AF300740D120B03AC82AD83D083D08274031286
:104B030007CBF97402120B03AA82AB83120D50E98F
:104B13006401700575080080087402120B031246C5
:104B23004CA9087412025CCEE0F50CA3E0F50D224B
:104B3300E0241C124B3A22F8A3E0124B412234002A
:104B4300F9888289832212583EA3A3A3A3A32274C4
:104B5300EE120387EAFEEBFF8C088D098E828F83AA
:104B6300A3740812551BE060088E828F83A3741010
:104B7300F01238C860098E828F83A3E02408F0EE18
:104B830024151238CB60088E828F83A3E004F08E45
:104B9300828F83A3A3A3A3A3A3E060198E828F8331
:104BA300A3A3A3A3A3A3A3E0C3332402F88E828FFA
:104BB30083A3E028F0EE24111238CB6005750B0EA9
:104BC3008003750B008E828F83A3C082C083EE2483
:104BD3000D1238CBD083D082F8E028250B8C828D40
:104BE30083F0EE24111238CB600512504628F0856D
:104BF3000882850983E0C394754009750800750927
:104C030000024D34E0FA7B00125E537003024D3410
:104C1300EEFAEFFB120DB6EA85088285098312547A
:104C230060EE2402F8EF123B28124E2E124D70F064
:104C3300EE24040808EF123B28125270A3124D70A1
:104C4300A3A3F0EE2413124D56F0EE2414124D5686
:104C5300A3F0750A08EE24161238CB6010EE241860
:104C6300125D35E5082408125F36750A101238C83C
:104C73006016EE241A125D35850A0CE508250C1220
:104C83005F367408250AF50A8E828F83A3A3A3A334
:104C9300A3A3E06059EE2407F510EF3400F5118566
:104CA3001082F583E0C0E0124D3D123801D0E012CE
:104CB3004D60E0C0E0124D3D123801D0E0124D606E
:104CC300A3124D4912086B851082851183E0C3330B
:104CD300FCE433FD850A0CE508250C125CAB1208D5
:104CE300B7851082851183E0C333250AF50AEE24C4
:104CF300151238CB600BC0E0124D3D123801D0E0E5
:104D0300F01237FB124D4912086BEE240D1238CB0B
:104D1300FC7D00850B0A8E828F83A3E0F8E50828CB
:104D2300F8E5093400F9E8250AFAE9125CAE12083D
:104D3300B7AA08AB097F0A0205A1850A0CE5082575
:104D43000CF582E50922E0F50CA3E0F50D750E00E4
:104D5300780C22124653124D7AA3A3A322F0050A1C
:104D63008E828F83A3A3A3A3A3A3A3A322A3A3128C
:104D73005FA1A3124D7A22125274A3A32274F612D6
:104D830003878A828B83E0FC900353124E277402BD
:104D93007808120A32EC4508FCAD09EA2412124ED7
:104DA3002174067808120A32EC4508FCED4509FD2A
:104DB300EA2415F582EB1238CE600478018002787C
:104DC30000E4C8F9ED49FDEA2411F582EB1238CE6F
:104DD300F508880974097808120A32ED4509FDEAD5
:104DE3002416124E21740B7808120A32ED4509FD80
:104DF300EA2417124E21740C7808120A32ED450981
:104E0300FD8A828B83A3A3A3A3A3A3124E27740AB1
:104E13007808120A32ECFAED4509FB025490F58248
:104E2300EB124656E0F50875090022E085088285F5
:104E3300098322A3E0F98508828509832274EE128F
:104E430003878A0A8B0BECFEEDFF750F01E9C39410
:104E530008500579000250338E828F83E9F0125295
:104E630099E96003750F0012527D8E828F8312526F
:104E7300C7EE125C05EF1252BCC0E0EE24111237EC
:104E8300FED0E01252B4C0E0EE24121237FED0E09E
:104E930012491D7408125CBFA3A3A3E0601512524C
:104EA30065EE2413F582EF1254CF8E828F83A3E035
:104EB3002408F08E828F83A3A3A3A3A3A3A3A3E0B9
:104EC30060218E828F83A38582088583091252A86D
:104ED300EE2415F582EF1254CF850882850983E00D
:104EE3002408F08E828F83A3A3A3A3A3E0601A8E6A
:104EF300828F83A385820885830912528C8E828FC9
:104F030083A3A3A3A3A3125058EE241912490AEEB4
:104F1300241B12490AA3125513E07003024FC7EE74
:104F23002419F8EF3400F98E828F83A385820885D4
:104F33008309E0FAE50A2AF582E50B1238CE888266
:104F43008983125058FAE50A2AF582E50B1238CE06
:104F5300C0E0EE241A1237FED0E01250588882893E
:104F630083E06059F8902DD9E493C39850057511E7
:104F73000C8008EE24191238CBF5118E828F83A38F
:104F8300E0F8E50A28F50CE50B12503C12086BE536
:104F930011C333FCE433FD7AB67B0B12503612088F
:104FA300B7EE241B1237FE74B6F0A3740BF0E511B1
:104FB300C333F8850882850983E0288006EE241828
:104FC300126170F08E828F83A3E0F88E828F83E06C
:104FD300C3985003024E56A3E0FA8A08E50A25084F
:104FE300F8E50B3400F9EE241DF582EF1255DB12C0
:104FF3005068C39AC0E0EE24171237FED0E0125473
:10500300D8602BEE2417F8EF3400F9880889098853
:1050130082F583E024F21255BC240EFAA3E0340097
:10502300FB8882898312545F125046C398F0A90FFC
:10503300024D3812138C7403223400F50D750E00E3
:10504300780C2290034EE0F9120B3AE9F8850882B6
:10505300850983E022F0850882850983E004F02234
:10506300A3A3A3A3A3F08E828F83E02274F412037D
:10507300878A088B09EA1250FDF0EA1313543F1292
:1050830050F6A3A3A3F0EAC413131250FDA3A3F095
:10509300EB1250EF1251077409780A120AB5125035
:1050A300ED125106740A780A120AB5E50A5401C0D2
:1050B300E0EC2418F582ED123801D0E012510C74A3
:1050C3000B780A120AB51250EDA3125106740C782C
:1050D3000A120AB51250EDA3A3A3A3A3A3A3A3F09B
:1050E300740D7808120AB502342DE50A54018C8236
:1050F3008D8322540F8C828D832254038C828D8363
:10510300A3A322A3A3A3A3A3A3F08A0A8B0B22C066
:1051130082C08379008A828B83A3A3A3A3A3A3E082
:1051230090034D600FE070228A828B83A3A3E0700B
:1051330019098016E060138A828B8312582D90031D
:1051430056E06A7003A3E06B70E7024A0974F01239
:1051530003878A0A8B0B890C8C088D0912529912CA
:10516300527D8508828509831252C7E508125C05C2
:10517300E5091252BCC0E0E5082411F582E50912E5
:105183003801D0E01252B4C0E0123EFF123801D011
:10519300E01255E374081255FC6011125265E508DC
:1051A30024131255D71255E3E02408F085088285AD
:1051B3000983A3A3A3A3A3A3A3A3E06017850882E2
:1051C300850983A31252A4E50824151255D712505A
:1051D300682408F0850882850983A3A3A3A3A3E019
:1051E3006019850882850983A3AE82AF8312528C2E
:1051F30085088285098312506304F0AA08AB09125B
:105203000DC8E9F50D7056850882850983A3A3A30C
:10521300A3A3A31252707014E0FA8A0EE50A250EB6
:10522300F8E50B1254C4E50CC39A80211252A4E88A
:10523300240EF8E91254C490034EE0F9120B3A8E8F
:10524300828F83E0F8E50CC39824F2C399C0E0E5AC
:10525300082417F582E509123801D0E0F0A90D0200
:105263005BF4E50A2408F8E50B3400F922125274C2
:1052730022E0850882850983A322850A82850B8320
:10528300A3A31252DDE0F9EA22E0F8E50A28F58249
:10529300E50B1254EB228A828B83125BF9120DC247
:1052A30022AE82AF83E0F8E50A28F8E50B3400F973
:1052B300221252F0A3A3A3E022124656E81252E9A7
:1052C300A3A3E022A3A3A3A3A3A3A3A3A31252E98B
:1052D3001252DDA3A3E0F9EAF822E0FA850A8285F7
:1052E3000B83A3A3A322F0A3E91252F022F0850AB1
:1052F30082850B83A3A3A3A322C082C0837AC57B29
:105303000379E2121C027AC57B03024A09C082C0F8
:1053130083900356024A06C082C08374FE12093189
:10532300851882851983AA82AB83794B12533A126B
:10533300583674020249DF121C02851882851983CC
:1053430022C082C083794A121C02024A0974F612EF
:1053530003879003CDE0FE04F0EEF9120D7A8B097A
:10536300EA450970EDEE60EAF902549074F0120315
:1053730087EAFEEBFF8C088D09890A7410120B0370
:10538300E0F50B7411120B03E0F50C120E9AEA4BC5
:105393007013E50C7042A90AAC08AD09EEFAEFFBF5
:1053A300120EB2806EE50A6021EA2402F582EB1246
:1053B30038CE850A082508F8E4340013E813F070A2
:1053C300098A828B83A3A37401F0E50C6045E50B86
:1053D30070068A828B83E4F07401650C7035E50BEB
:1053E3009003D47004E4F0802AE004F0900D14E0FC
:1053F300F89003D4E0C398401AE4F0900359E06EA8
:105403007003A3E06F700CEEFAEFFB7901120C1E30
:10541300125419025BF47A017B009003B0E0F91295
:10542300151822C082C08374016A7001EB70077A79
:10543300011254508012900D0B12545FEA4B600519
:105443001231A98003125419024A097A207B009071
:1054530003B0E0F91213EC223400F583EAF0A3EB76
:10546300F022C082C083900D0D024009C082C08328
:10547300900D0F024009125F0722EE240CF582EF14
:105483003400F583124A00E849221208B77F02026A
:1054930005A1A2F0E4338518828519831254B179EA
:1054A30052121C08221254B17942121C0822F0AA8B
:1054B30082AB8322AA08AB099003B0E0F91213C2AE
:1054C300223400F9E508241DF582E509124656E861
:1054D300F0A3E9F022125CC3A3A3E022A3F0EE241D
:1054E300151254E822F582EF3400F583E0221254BA
:1054F300F5223400F583E0F8A3E0F988828983225A
:10550300E0F812550922A3E0F98E828F83A3A32228
:10551300F0EE241812465322F0EE241612465322BC
:1055230074F4120387EAFEEBFF7A007B0412541D26
:105533001255B21254D29003657409F0120DD48A35
:10554300088B09AC08AD09EE24131237FE12583646
:10555300125706640170487A0F1255A560418A827A
:105563008B8374021255BCFAA3E0FB8A828B83A35C
:10557300E0FC8A828B83A3A3E0FBEC850882850988
:1055830083A3A31254608882898312583A124E2E41
:105593001254DFFAA3E0FB794A121C081254B70233
:1055A30038C37B00121DBE8A088B09EA4509229085
:1055B3000336124A00900D0F22F0EE241DF8EF126D
:1055C30055C622124B41E0221255CF223400F583F7
:1055D3007401F022F582E509124656E8F0A3E922A8
:1055E3001255E7221255EB22F0850882850983A321
:1055F300221255EBA3A3A3A3221255F4A3A3E022E3
:10560300125A0D120E2822EE2417F582EF1255CFEF
:10561300120DD4EE241A124653EAF0A3EBF02274CF
:10562300F412038774F31209318908EAFEEBFF7C55
:105633000D7D007900851882851983AA82AB8312B8
:105643001398EE241D1237FE125EF8A3E0F8741FC0
:1056530058600A7901121BD879000256FDE8A2E5C9
:105663005008740C120B037401F0E8A2E75008749D
:105673000B120B037401F0E8A2E6740A5008120B34
:10568300037401F08008120B03E064017005EE243B
:10569300138003EE2415125D357402120B03AA82E4
:1056A300AB83121BF01237FB12570B1254D2740A3E
:1056B300120B03E0640170331231DC703B120DE016
:1056C3008A0A8B0BA80AA90BEE240B1238CB68703D
:1056D30003A3E0697022120DD4EAFCEBFD740212FD
:1056E3000B03AA82AB83125706600D8518828519B6
:1056F30083AA82AB83120C18A908740D0238C0EE7A
:10570300FAEFFB121BEAE922E012571022F8A3E09A
:10571300F98518828519832274F612038774F312AC
:1057230009318A088B09ECFEEDFF7C0D7D007900C1
:10573300851882851983AA82AB8312609DA3A3A3D4
:10574300A3A3A3A3A3A31257A51257AEF8A2E55090
:1057530008740B120B037401F0E8A2E75008740AF3
:10576300120B037401F0E8A2E6EE50042413800246
:105773002415125D357402120B03125797A3A3E08D
:10578300C0E0740C120B03D0E0125A05120C127411
:105793000D02548DAA82AB83121BF0850882850902
:1057A3008322E0125710E8F0A3E922F012465012C8
:1057B3005EFCA3E02274F712038774E1120931EA55
:1057C300FEEBFF8E828F8312583AA3A3A3E0A2E0DD
:1057D30050518E828F8312333C8A828B83A3A3A37F
:1057E300A3A3A3E054FE1258528A828B8312584B10
:1057F300E0F98A828B83E0241CFAA3E012426C1244
:105803005836120DCEE9701B741D120B0312584546
:105813007011851882851983AC82AD83EEFAEFFB94
:10582300120E16025A778E828F83A3A3A3A3A3A378
:10583300A3A3A31238B92212583E22125F00A3A3D6
:10584300A322124688640422E0241B124B3A22123C
:1058530049E8AC82AD8322E9F87900740468600AF0
:10586300740A68600574036870010902084F74F6CE
:105873001203878A828B837420F0A3A37401F0122E
:105883000BC48A088B09AE08AF09EE4F60108E82F5
:105893008F837401F09003A3E0700312560AEEFAAB
:1058A300EFFB025490C082C0839003B97401F0E906
:1058B300A2E350037403F0E9A2E15004E0D2E2F062
:1058C300024A0974F612038779007C008A088B095F
:1058D30078081205E7F8FF07F958F758F758F7580B
:1058E300F758F058F458F958ED580C80097C0480A7
:1058F300050C80F67C089003B9E05C600309800323
:10590300EC60010902549074F61203878A828B8338
:10591300E07012A3125487600C8A828B831258356D
:10592300121D2880047A007B0002549074F5120340
:105933008774F31209318A088B09ECFEEDFF750AAF
:1059430012EA4509700579000259FE900356E06595
:10595300087004A3E065097014120DD4EAFCEBFD92
:105963001257027005750A018003750A00851882B3
:10597300851983E4F004120B03E508F0A3E509128B
:105983005A05120B88E960277403120B03AA82AB32
:1059930083120B6AE964017016750A017403120B12
:1059A30003AC82AD831257026021750A00801C7418
:1059B30012650A70169003A2E06402700EEEFCEF0B
:1059C300FDAA08AB09120BA0E970DFEEFCEFFDAAFC
:1059D30008AB09120EA0E9F8740A687005750A018C
:1059E300801774A0687012EEFCEFFDAA08AB0912D1
:1059F3000EACAA08AB09120EBEA90A740D02640507
:105A03007402125A0922125A0D221249E8AA82ABD1
:105A1300832274F7120387EAFEEBFF8E828F83A340
:105A2300A3A3A3A3A3A3A3E06015EE24151237FE3B
:105A33001238A9120E40E964017004790180258EA1
:105A4300828F83A3A3A3A3A3A3A3E06015EE2413D0
:105A53001237FE125A69FAA3E0FB120E40E9640101
:105A630060D979008013124358A3A3A3A3A3A3A3CC
:105A7300A3A3E022741F1208B77F010205A174F0EB
:105A830012038774FD1209318A088B09ECFEEDFFBE
:105A9300890B7413120B03E0F50C750A01740112E0
:105AA3000B037404125F306048E50C601DEA241791
:105AB300F582EB126173125F1E8A828B83E0D2E759
:105AC300F0EA2414F582EB12490D125C04EB125434
:105AD300F17403126496EE88828983A3A3F0EF889E
:105AE300828983A3A3124402124409120BBEE9F56F
:105AF3000AA90A7403025BF174EC12038774F512AA
:105B030009318A0A8B0B890C8C0E8D0F741F120BB3
:105B130003E0F50D7420120B03E0F510A3E0F5117B
:105B23007E01EE120B03740AF0E97007E50DC3332F
