:020000040000FA
:060000000212A40207C871
:03002B000210CBF5
:03003300020E7C3E
:03004300020F6742
:030053000206F9A9
:03006B00020E6220
:1000830002075D0101FF05030142184218421842AD
:1000930018FE16F81642181E34000000005A3300EA
:1000A3000000000C0000000C0001040000221A00F4
:1000B3000000000000DC1A00000000000000000047
:1000C30000FFFF414C443235333020444854313132
:1000D300000101010030050000008105E803640010
:1000E3006400B801020200080000050207051E02B1
:1000F300051E0A03B80B0201023412021F00E007B7
:100103009651180002020612303132333435363735
:10011300383941424344454600286E756C6C207063
:100123006F696E74657229003F3F3F000000807F56
:100133000000803FF9021550B743BA510000204137
:1001430000E7DB2E0000A0401000000008000000C4
:100153000A0000001212F060461212C3603DE96803
:100163007008F618F618F618F622748067F712016D
:100173008B090909748067F7221212C3601D1212DA
:10018300F07005191919801A12113D701F121167A9
:10019300C37003E6673319191940071818182208A2
:1001A300080874FFF618F618F618F622121167609D
:1001B3001712132F702192F0121339701950172050
:1001C300F014080808090909E7F61819E7F61819D9
:1001D300E7F61819E7F62212133960E6E869701F8B
:1001E3000808E62480F608E436F618547FB47F0C3A
:1001F300E654806007F6E418F618F622181822E988
:10020300C6CC08C6CD08C6CE08C6CFC0E0E8C0E05D
:10021300EAC0E0EBC0E009E9F809E7FA09E7FBE621
:10022300F918E6F8C3EC98ED99EE9AEBC2E7F5F00E
:10023300EFC2E795F0500E600CEBCFFBEACEFAE984
:10024300CDF9E8CCF8EAA2E7D2E7FAEB33FB13F5F2
:10025300F0EEA2E7D2E7FEEF33FFC5F013A2E730DB
:10026300E601B313C5F0C3C0E0C0F07F00C39BFB3E
:10027300605B9418600C401AD0E023F9D0E0F802D8
:10028300035A8AF0E9486003D2F0E4AFF0FAF9F8D0
:10029300803BEB30E40D89F0EA6003D2F0E4AFF089
:1002A300F9CAF8EB30E30D88F0EF6002D2F0AFF05B
:1002B300E4CAC9F8EB54076014FBC3EA13FAE91361
:1002C300F9E813F8EF135002D2E0FFDBEDD0E0C002
:1002D300E030E739C3E49FFFF5F0EC98FC42F0ED22
:1002E30099FD42F0EE9AFE42F0D0E0F9D0E0F8E555
:1002F300F0607AE923F9EE20E742D8028067C3EF82
:1003030033FFEC33FCED33FDEE33FE80EAEC28FCE7
:10031300ED39FDEE3AFED0E023F9D0E0F84002805B
:100323001BC3EE13FEED13FDEC13FCEF135002D2CF
:10033300E0FF08B800067F7F74FF802EEF3350176D
:100343008CF020F00260100CBC000C0DBD00080EF8
:10035300BE000408E860DFE933E813FFEE2313FE71
:100363004F4D4C8008E95480FFE4FEFDFCEE33EF73
:1003730033F47004FCFD7E80D0E0FBD0E0FAD0E0E3
:10038300F8D0E0CFC618CEC618CDC618CCC6F92211
:100393001212C37004181818221212F0700D74FF91
:1003A300F61819F61819F61819F622E7548066F6A6
:1003B300121339700F12132F70F014F608F608F6A3
:1003C30008F680D112132F700CF608F60876800811
:1003D300E6447F80EC12116A700C12114060BFE694
:1003E3005480F6E480BB121140700519191980A5D9
:1003F300E869700C763F18768018F618F6E8F9224B
:10040300E6CDC0E018ECC0E0E633CD33CDD313F630
:10041300E719FCE7191933CC33C3947F400ECD9D04
:10042300502408E65480F6E418F6800FF4043D14D3
:10043300501408E6447FF6187680E418F618F6D0D0
:10044300E0FCD0E0FD22CCD313CCFD18E4C6CBC036
:10045300E018E4C6CAC0E00808ED08C633E613F6A0
:1004630018E433C675F003C3CA97CA09CB97CB19EF
:100473009C40047D08802EBD000302053C16B6FF98
:10048300050606081618C3CA33CACB33CB33CA27AB
:10049300CA09CB37CB193CC37D08803E187D0820A1
:1004A300E75CC633C6CA33CACB33CB33DDF1D5F0F1
:1004B300EB30E77BCA97CA09CB974ACB199C406FAD
:1004C3004B7025E620E0218066187D08C3CA97CAD1
:1004D30009CB97CB199CD3C633C6CA33CACB33CB0C
:1004E3003350C9DDE7D5F0E1D3E4C636C608C636D6
:1004F300C608C636C608C636C61818188031C3CA19
:1005030097CA09CB97CB199CB34097C633C6CA3356
:10051300CACB33CB33DD34D5F02EC6A2E0C640C8F8
:10052300CA27CA09CB37194A70BECB3CB480B90875
:1005330008E63308E633601F181818D0E0FAD0E055
:10054300FBD0E0FCD0E0FD22187D08CA27CA09CB06
:1005530037CB193CD3808013F618E4B67F11F61815
:10056300B6FF0EF618C60470D20808768080CAF665
:1005730018F618F680C5001212C3604F1212F0600D
:1005830012E7548066F612113D701112132F703B5F
:10059300090909F4F618F618F618F622121167700D
:1005A3001512133908080860EAE6447FF6187680C6
:1005B30018E4F618F622121339601612132F70126C
:1005C300E4F608F608F608E65480F609090918184F
:1005D3001822EAC0E0EBC0E0ECC0E0EDC0E0E68743
:1005E300F0A4FBACF008E687F0A42CFCE435F0FAA9
:1005F3001809E687F0A42C4B60027401CA35F0FC9D
:10060300E433FB09E687F0D2F7A42CCB35F0FC19D1
:1006130008E687F0A42BCC35F0FBE433FD0819E69C
:1006230087F0D2E7A42C4ACB35F0CD3400FC09E6A1
:1006330087F0D2E7A42DCC35F0FDE433FA0918E6B0
:1006430087F0D2F7A42CCD35F0CA3400FC08E68736
:10065300F0D2E7D2F7A42ACC35F07A7E20E70B0A52
:10066300CB33CBCD33CDCC33CC33CB33501470041D
:10067300ED30E00ED2F1E4CD3DCDCC3CCC3B50058A
:10068300DA05C2F1EB547FC63308E63392F0FBE799
:100693003309E733C39A502D2B70190C0D4C4D7051
:1006A300151806E608C333700D20F10AA2F013F6FD
:1006B300E418800B4024E4F630F002768018F61834
:1006C300F618F68024D33B14501074FFA2F013F6EF
:1006D300187680E418F618F6800FA2F013F618E6E1
:1006E3003303F618ECF618EDF6D0E0FDD0E0FCD0BD
:1006F300E0FBD0E0FA22C0E074F2120AE8A2AFE411
:1007030033FED2AFE5A7FFE5A1F5085F54106006FD
:1007130012216675A1EFE5085F5408600812216C89
:1007230075A1F7802BEFA2E0C0D0E508A2E092F01C
:100733001211F2158182F05017906198E0F8900839
:100743005BE0C398A2D265D0335002E8F075A1FEF6
:10075300EEA2E092AF7F01020B47C0E074F2120AEF
:10076300E8A2AFE433FED2AF9061A4E0F8759B003A
:10077300E59158540860087591F71221B4802AE571
:100783009158541060087591EF1221BA801BE8A2AA
:10079300E0C0D0E591A2E092F01211F2158182F04F
:1007A3005007E0C2E0F01222FE9061A3E0F8E5E911
:1007B300585404600E1222D475E9FB906193E0A2B1
:1007C300E640F2808BC0E074F2120AE8A2AFE43391
:1007D300FED2AF9061A5E0F8E5BF585404600675FA
:1007E300BFFB122316020753C3E498F8E499F912E6
:1007F300082C8026C3E49AFAE49BFBE920E7E9127C
:10080300082CE498F8E499F922C3E498F8E499F9F8
:1008130012082CE498F8E499F9C3E49AFAE49BFBF0
:1008230022EB20E7CFE920E7E0B90010BB0008E89E
:100833008AF084F8AAF022E4FBC8FA22EB70227B48
:1008430010C833C8C933C9335007C39AC3DBF28016
:10085300069A50012ADBEAC833F4C8C933F4C9FA4B
:100863002275F008E4C833C8C933C933C99AC99B90
:100873005004C92AC93BD5F0ECFBC833F4C8E4C91A
:10088300FA221208C520F01430E72B74FFFCFBFAA0
:10089300747F8022E4FCFBFA7480801AB48008BC65
:1008A30000F2BB00EF800F50EBF9E4C39AFAE49B2C
:1008B300FBE49CFCE499C6CC18C6CB18C6CA18C680
:1008C300F922E4C9C608CAC608CBC6D3330308CC89
:1008D300C63392F0C3947F402E94184019C9B907C8
:1008E30004CACBCC225025C309CA33CACB33CBCCE1
:1008F30033CC33D9F422F4600DC9CCC313CB13CB5F
:10090300CA13CAD9F6CC22E4FCFBFA2214FCFBFA84
:1009130022080808EAC0E0EBC0E086F0E7A4FA1872
:100923000986F0E7A42AFA180986F0E7A42AFA1838
:100933000986F0E7A42AFA1986F0E7A4FBE5F02A72
:10094300FA190886F0E7A42BFBE5F03AFA190886B2
:10095300F0E7A42BFBE5F03AFA18180986F0E7A4B0
:10096300C5F02BFBE43AFA1908E7C5F0C6A426F64E
:10097300E5F03BFBE43AFA1886F0E7A4F6E5F00865
:1009830026F6E43B08F6E43A08F6D0E0FBD0E0FABA
:1009930022080808E630E7111211A51209AC08086D
:1009A30008C64480C618181822181818E9799EC674
:1009B30008CAC608CBC608CCC6C370207996CACB72
:1009C300CC7019798ECBCC70137986CC700EF980EC
:1009D3002ACA33CACB33CBCC33CC331930E7F2CC6E
:1009E300CBCA3350147004EA30E00DE4CA3ACACBE0
:1009F3003BCBCC3CCC500209C3E913C6CC18231320
:100A0300C6CB18C6CA18C6F922E4CFC0E0E4CEC0EC
:100A1300E0E4CDC0E0E4CCC0E075F020C3E633F6FB
:100A230008E633F608E633F608E633F6181818EC4A
:100A330033FCED33FDEE33FEEF33FFC3EC9709EDEB
:100A43009709EE9709EF97191919400FFFEC97FCD7
:100A530009ED97FD09EE97FE191906D5F0BEECF7DF
:100A630009EDF709EEF709EFF7191919D0E0FCD0F2
:100A7300E0FDD0E0FED0E0FF222518C582C0E0E50E
:100A83001934FFC583C0E0E518C3958224F810AF7D
:100A9300088583198582188008858319858218D271
:100AA300AFCEF0A3E520F0A37808E608F0A3DEFAC2
:100AB300EFF0A3E58124FAF8E608F0A3E608F0A333
:100AC300E608F0A30808E608F0A3E608F0A31581FA
:100AD3001581D0E0FED0E0F8158115811581E8C0BD
:100AE300E0EEC0E022C0D02518C582C0E0E519348D
:100AF300FFC583C0E0E518C3958224F310AF0885D2
:100B030083198582188008858319858218D2AFC816
:100B1300F0A3E9F0A3EAF0A3EBF0A37908E709F067
:100B2300A3D8FAECF0A3EDF0A3EEF0A3EFF0A3D07B
:100B3300E0F0A3D0E0F0A3D0E0F0A3E520F0A3E53C
:100B4300F0F0A322851983851882E0C0E0A3E0F9C1
:100B5300A3E0FAA3E0FBA37808E0F608A3DFFAE03A
:100B6300FCA3E0FDA3E0FEA3E0FFA3E0C0E0A3E05D
:100B7300C0E0A3E0F5D0A3E0F520A3E0A3F5F010D7
:100B8300AF088583198582188008858319858218A3
:100B9300D2AFD082D083D0E0F8D0E032121324B9A0
:100BA3000003020BE1E490030178B2790A8002F0BA
:100BB300A3D8FCD9FA900CB2AA82AB8390008678B2
:100BC300D279018015E493A3AC82AD838A828B83AF
:100BD300F0A3AA82AB838C828D83D8E9D9E775828F
:100BE300B57583AF740312102A75821C758326743E
:100BF3000012102A0875F0108E1A8F1B85821F852C
:100C0300831E851882851983E0CEA3E0CF851F82DA
:100C1300851E83EBC9EAC8EDCBECCAC3E833C8E948
:100C230033C9EA33CAEB33CBC3EA9EF51DEB9FF519
:100C33001CB35004AB1CAA1DEC33CCED33CDD5F063
:100C4300DAAE1AAF1B221212C3601C1212F0601725
:100C5300121339700712132F7001D322C0D012134D
:100C63002F7006D0D0B322C32233D0D0501430E03B
:100C7300F6C3E7960809E7960809E7960809E79691
:100C8300B32220E0D5E6970809E6970809E6970816
:100C930009E697B3221212C3601B1212F0601612F8
:100CA3001339700712132F600CB322C0D012132F05
:100CB3007005D0D022C32233D0D0501330E0EBC321
:100CC300E7960809E7960809E7960809E7962220B8
:100CD300E0E4E6970809E6970809E6970809E69726
:100CE30022D083D082ECC0E0EDC0E0E493A3FCE427
:100CF30093A3FDED4C600D120DBCEC24FFFCED3411
:100D0300FFFD80EFE493A3FCE493A3FDED4C600DA2
:100D1300120EECEC24FFFCED34FFFD80EFD0E0FD80
:100D2300D0E0FCE493A3C0E0E493C0E02285198300
:100D3300851882E0A3FEE0A3F5207808E0A3F60877
:100D4300DFFAE0A3FFE0A3C0E0E0A3C0E0E0A3C0BC
:100D5300E0E0A3C0E0E0A3C0E010AF0885821885FF
:100D630083198008858218858319D2AFD083D082F6
:100D7300021030D083D082E9C0E0E493A3C386F0AD
:100D8300C5F095F0F908E493A386F0C5F095F070EB
:100D93000BE493A3C3994005E9048002A3E475F02F
:100DA30002A42582F582E5F03583F583D0E0F9E4EA
:100DB30093A3C0E0E493C0E022C0E0C3E4939608A9
:100DC3007401939618400FE49366700808740193B6
:100DD300661870007019A3A3C3E493960874019373
:100DE3009618A3A3400DD0E0D0E0D0E0020D20A3DD
:100DF300A3A3A3A3A3D0E022D083D082C5F0E4931E
:100E0300A3C5F0C395F0F5F0E493A3C395F04005B3
:100E1300E5F0048001E475F002A42582F582E5F093
:100E23003583F583E493A3C0E0E493C0E022740424
:100E3300800474028000CCC0E0EDC0E0E518C39CE0
:100E4300CCAD1950011D10AF068C188D1980068C7E
:100E5300188D19D2AF120FACD0E0FDD0E0FC22C048
:100E6300E074F2120AE8E589A2E150031220167534
:100E73008900C2C57F01020B47C0E074F2120AE881
:100E8300E58BA2E05003122016758B00C2E880E4C4
:100E930074028000CCC0E0EDC0E0E518C39CCCAD8B
:100EA3001950011D10AF068C188D1980068C188DF2
:100EB30019D2AF120F8AD0E0FDD0E0FC221212C388
:100EC30060251212F06020121339700302132F08E9
:100ED3000808E76670101819E766700A1819E766BC
:100EE30070041819E76622F422C0E0C0F088F0E429
:100EF300936670080874019366187000A8F0A3A3A2
:100F0300700BD0F0D0E0D0E0D0E0020D20A3A3D04E
:100F1300F0D0E022D083D082CCC0E0E493A360067B
:100F2300120FCD1470FAE493A360061210FC147030
:100F3300FAD0E0FCE493A3C0E0E493C0E022C0084D
:100F4300C3E096F50808A3E096420808A3E096429A
:100F53000808A3E0964208A2D265D033E5087001E1
:100F6300D3D00822C0E074F2120AE8A2AFE433FE41
:100F7300D2AFC2C0E5D1A2E450031220DCEEA2E05E
:100F830092AF7F01020B47CAC0E0E493A3C582CCB2
:100F9300C582C583CDC583F0A3C582CCC582C58375
:100FA300CDC583DAE5D0E0CA22CAC0E0E0A3C5829A
:100FB300CCC582C583CDC583F0A3C582CCC582C50C
:100FC30083CDC583DAE6D0E0CA22C0E0E493A3D39D
:100FD3009C5010E493A3C39C400AD0E0D0E0D0E03F
:100FE300020F34A3A3A3D0E02270090808082260EB
:100FF30016181818C6C333C608C633C608C633C680
:1010030008C633C6D5E0EA22C008C3E096F508084F
:10101300A3E096420808A3E096420808A3E0964599
:10102300087001D3D00822C09FF59FE473D09F229C
:10103300D083D082C09FE493C0E0740193C0E07476
:101043000293F59F227404800A740380067402805D
:10105300027401C0E0F404121063D0E01212FF2204
:101063002518F58210AF08F518400215198008F508
:101073001840021519D2AF85198322C0D025181044
:10108300AF08F518500205198008F5185002051924
:10109300D2AFD0D022BB0102E722C082C0838982B3
:1010A3008A83BB0003E08002E493D083D082226072
:1010B30016080808C6C313C618C613C618C613C62F
:1010C30018C613C6D5E0EA22C0E0C0D0E8C0E0E508
:1010D300A8D2AFC2C7A2E792AFD0E0F8D0D0D0E099
:1010E30032C3E0C696F608A3E0C696F608A3E0C6A8
:1010F30096F608A3E0C696F622C0E0E493A36C70CC
:1011030009D0E0D0E0D0E0020F34A3A3D0E0222541
:101113001810AF08F518400215198008F518400299
:101123001519D2AF22E066701008A3E066700A08B2
:10113300A3E066700408A3E06622181818E60846C0
:1011430008700AE608C3337005E633F4220822E781
:101153006670100809E766700A0809E766700408F4
:1011630009E76622191919E7094709700AE709C34C
:10117300337005E733F4220922C3E09608A3E0960F
:1011830008A3E09608A3E096A2D265D03322C3E079
:1011930096F008A3E096F008A3E096F008A3E09683
:1011A300F022181818E4C396F608E496F608E496B5
:1011B300F608E496F622E026F608A3E036F608A33E
:1011C300E036F608A3E036F622E026F008A3E03680
:1011D300F008A3E036F008A3E036F022E627F6088D
:1011E30009E637F60809E637F60809E637F622C0B6
:1011F300E0E8C0E0E58124FCF8E6A2E7D0E0F8D01F
:10120300E022E657F60809E657F60809E657F60816
:1012130009E657F622E056F608A3E056F608A3E0DF
:1012230056F608A3E056F622E647F60809E647F61F
:101233000809E647F60809E647F622700422600D1E
:1012430018C6C333C608C633C6D5E0F41822E05621
:10125300F008A3E056F008A3E056F008A3E056F028
:1012630022C3E09608A3E09608A3E09608A3E096BD
:1012730022C6F4C608C6F4C608C6F4C608C6F4C631
:1012830022600D08C6A2E713C618C613C6D5E0F33D
:1012930022C3E7960809E7960809E7960809E7963F
:1012A3002275D00075814075180175190300020B72
:1012B3009FE6F008A3E6F008A3E6F008A3E6F02211
:1012C300E6084608C3134608336002E633F4226097
:1012D3000C08C6C313C618C613C6D5E0F422E0F63D
:1012E30008A3E0F608A3E0F608A3E0F622E709471F
:1012F30009C3134709336002E733F422CAC0E0E6A7
:10130300F0A308DAFAD0E0FA22EAF0A3EBF0A3ECB8
:10131300F0A3EDF022E0FAA3E0FBA3E0FCA3E0FDE1
:1013230022E5C754F84401F5C7790122E7C333190D
:10133300471947194722E6C3331846184618462269
:101343002518F582E43519F58322C2AF75D69F02BD
:1013530000002212103380DE01121033BBDE0112B3
:101363001033FFDE0112103326DF0112103377DF53
:101373000112103327E001121033DFE001121033A2
:10138300A7E10112103384E2011210330AE30112C0
:10139300103319E30112103324E3011210332DE447
:1013A300011210333EE401121033B4E4011210337E
:1013B30046E5011210339EE50112103364E6011273
:1013C300103395E601121033DAE601121033E7E623
:1013D300011210337BE801121033DEE901121033DE
:1013E300FAEA0112103364ED011210336FED0112AA
:1013F300103379ED0112103384ED011210338EEDA9
:101403000112103398ED01121033A3ED01121033C2
:10141300AEED01121033DFED0112103303EE0112B2
:10142300103327EE011210338CEE01121033D0EE7D
:1014330001121033ECEE0112103363EF011210337B
:101443009BEF01121033E7EF0112103344F0011246
:10145300103326F201121033ACF2011210337DF374
:10146300011210338DF601121033E2F6011210331C
:101473000EF7011210335AF801121033AAF80112B1
:101483001033FFF80112103300FA0112103398FAE7
:10149300011210331AFB01121033BAFB011210337D
:1014A3003F360012103378360012103352380012D0
:1014B3001033913800121033DB38001210338039A7
:1014C30000121033DF3900121033133A00121033B5
:1014D300803A001210339D3B00121033A53C0012DA
:1014E30010333B3D001210338240001210332B4166
:1014F30000121033074200121033684200121033F7
:10150300854300121033AF450012103366460012B4
:101513001033704600121033A346001210336A478B
:10152300001210330548001210336A4800121033BA
:10153300934800121033B54800121033E44A0012E6
:101543001033BB4B00121033FF4B001210336C4CA3
:1015530000121033274D00121033594D001210336F
:101563009D4D00121033D04D00121033254E001242
:1015730010337A4E001210330E4F00121033704F97
:1015830000121033D84F0012103381510012103360
:10159300695200121033AB5300121033D9550012A5
:1015A3001033995600121033C858001210336B5978
:1015B30000121033A95900121033555B0012103377
:1015C300695B00121033735B001210339D5B0012D2
:1015D3001033A95B00121033C85B001210337F5C19
:1015E30000121033BE5C00121033C85C00121033BB
:1015F3007C5D001210337B5E00121033745F0012A7
:101603001033116000121033B36000121033CA603C
:10161300001210330161001210331F6100121033E6
:101623006361001210338861001210336E6200127E
:101633001033DA6200121033546300121033636400
:1016430000121033A2650012103304660012103327
:10165300BE6600121033E16600121033B567001244
:101663001033006800121033426800121033996877
:1016730000121033D06800121033FE6800121033CA
:101683003769001210335C6900121033E4690012E9
:101693001033076C00121033666C00121033FA6CAF
:1016A30000121033666D00121033BA6D001210333E
:1016B30011DB0312103350DB03121033C3B40112D6
:1016C30010331DB50112103379B501121033C5B5AE
:1016D30001121033E0B50112103311B601121033A9
:1016E3002EB6011210333AB601121033AEB70112FF
:1016F3001033C7B7011210332EB80112103341B89B
:10170300011210334FB80112103303B90112103311
:10171300E7B901121033EDBA0112103373BB011292
:1017230010337DBB01121033EABB0112103301BC2D
:101733000112103333BC011210336CBC011210338D
:1017430096BC01121033F7BC0112103317BD0112FE
:10175300103335BD011210337BBD01121033A1BE0E
:1017630001121033EEBE011210331DBF01121033EC
:1017730093BF01121033BBBF01121033F4BF011228
:10178300103302C0011210335AC001121033A9C022
:1017930001121033E8C00112103318C101121033C3
:1017A30044C1011210334FC1011210336DC1011234
:1017B30010332FC20112103339C20112103374C215
:1017C300011210338AC20112103393C20112103373
:1017D300E8C201121033FCC2011210330AC4011211
:1017E30010331DC40112103332C401121033D4C498
:1017F3000112103357C50112103315C601121033ED
:1018030020C60112103346C70112103362C70112FA
:101813001033B4C701121033F3C70112103308C8D1
:10182300011210334AC80112103397CA0112103340
:1018330015CB0112103388CB01121033AACD01123C
:101843001033C2CD01121033C5CD01121033D1CDE7
:1018530001121033E5CD01121033EDCD0112103317
:1018630020CE01121033D0CE0112103346CF011215
:101873001033B9CF011210336DD00112103322D1BE
:101883000112103341D101121033E1D1011210338F
:10189300EDD10112103318D2011210331BD20112F1
:1018A300103385D201121033ADD30112103385D416
:1018B3000112103310D50112103329D6011210333F
:1018C300E6D6011210331FD70112103350D701127D
:1018D3001033F0D70112103320D801121033FBD884
:1018E3000112103394D9011210331FDA011210338D
:1018F300D0DA0112103352DB0112103384DB0112F0
:101903001033C5DB0112103350E602121033B5E673
:1019130002121033F2E60212103341E702121033BF
:1019230057E9021210333AEB02121033A4EE0212FB
:101933001033DFEE0212103301EF0212103364EFA3
:101943000212103398EF02121033BBEF021210335E
:10195300E8EF0212103344F0021210333AD00212AD
:101963001033B8D002121033EED0021210335AD112
:1019730002121033CDD202121033E9D20212103305
:101983002ED302121033BCD30212103315D4021219
:10199300103342D50212103354D602121033B1D68B
:1019A300021210331DD7021210337ED702121033E6
:1019B300BFD7021210336CD8021210337ED9021231
:1019C3001033A9D902121033F4D9021210333BDABF
:1019D30002121033CDDA0212103388DB02121033F5
:1019E3003DC9031210336DC903121033C2C9031268
:1019F3001033DECF03121033EFCF0312103340D076
:101A03000312103385D0031210332FD10312103376
:101A130029D703121033AACC0312103302CE0312B8
:101A23001033FFDB02121033A4DC02121033C4DCC8
:101A330002121033E4DC02121033F8DC021210330A
:101A430050DD0212103380DD0212103301DF021267
:101A53001033A7DF0212103389E002121033DAE0E9
:101A6300021210331DE10212103360E1021210332F
:101A7300C6E102121033E7E10212103373E20212DD
:101A83001033A4E20212103318E302121033C6E437
:101A930002121033A0E502121033E2E502121033F2
:101AA3003CE60212103365C70312103386C70312D4
:101AB3001033BCC803121033E6C8031210331AB62E
:101AC3000312103395B603121033A0B6031210336A
:101AD300C1B603121033FDC30212103300C4021245
:101AE3001033BAC402121033E5C4021210332CC5EA
:101AF3000212103351C50212103372C50212103391
:101B0300A6C502121033DFC50212103308C7021232
:101B130010333FC7021210335FC702121033FAC7E4
:101B230002121033BFC802121033F6C80212103368
:101B33006BCA021210330ECB0212103307CC0212FF
:101B4300103330CC0212103384CC021210334ACD3E
:101B53000212103378CD021210330DCF021210335C
:101B63008ECF02121033C1CF0212103390F0021243
:101B730010339AF002121033E6F00212103354F1CC
:101B83000212103375F1021210338CF1021210336A
:101B93003CF202121033D0F402121033D9F40212C1
:101BA30010332CF50212103355F502121033BCF525
:101BB300021210334DF6021210338FF60212103355
:101BC300D9F60212103338F702121033C9F7021292
:101BD300103308F802121033D0AD011210337CF821
:101BE300021210338EF802121033A0F802121033CF
:101BF300BFF802121033C8F8021210337EF9021232
:101C03001033BEF90212103345A40312103318A582
:101C13000312103332A50312103343A503121033FA
:101C230058A70312103377A70312103333C50312D7
:101C3300103369C503121033B2C50312103302C740
:101C4300031210330080021210333F81021210334B
:101C53007B81021210335ADE0112103363830212A6
:101C63001033F685021210333A8602121033C387FB
:101C7300021210335B8802121033C388021210332E
:101C8300648902121033A68902121033E689021204
:101C93001033718B02121033E18C02121033068F52
:101CA30002121033348F021210335B8F021210337F
:101CB300648F02121033BF8F02121033529002123C
:101CC3001033709302121033F19302121033E57F35
:101CD30000121033C6DA0312103350AC0312103360
:101CE30063AC0312103300AD031210333BAD031288
:101CF300103356AD031210337BAD03121033C0AD56
:101D030003121033F1AD0312103322AE031210335A
:101D1300A8AF03121033A7D203121033DDD203127C
:101D23001033F9D2031210333BD3031210334BD3C6
:101D330003121033E0D303121033EAD30312103328
:101D4300FC9003121033BB91031210336B920312F6
:101D53001033B092031210332E9303121033A49353
:101D630003121033C89503121033F5950312103381
:101D73006EB402121033C6B40212103370B50212DD
:101D8300103318B60212103375B602121033CEB6E2
:101D930002121033E2B602121033ACB8021210333F
:101DA30027B90212103351B9021210330EBB0212BB
:101DB300103329BB0212103378BB021210338EBBCF
:101DC300021210339BBB02121033CFBB021210332B
:101DD300E5BB021210336BBC021210337ABC021241
:101DE3001033D3BC021210332DBD021210337BBD4E
:101DF3000212103385BE0212103307C102121033D0
:101E0300A1C102121033E3C10212103378C20212CD
:101E1300103395C20212103398C2021210339BC2C0
:101E2300021210330EC30212103329C302121033ED
:101E330055C30212103390C30212103393C302121C
:101E43001033A6C302121033CDC302121033F2D9DA
:101E530003121033FED90312103338DA031210338E
:101E63009DA402121033C8A40212103394A50212C7
:101E7300103319A60212103382A602121033CEA613
:101E8300021210334DA702121033DFA702121033D0
:101E93006BA802121033ADA80212103319AD02124F
:101EA300103399AE02121033D8AE02121033A1AF21
:101EB3000212103355B00212103305B2021210335E
:101EC30091B202121033F46D00121033AE6E001291
:101ED3001033206F001210332F6F00121033A96FCD
:101EE30000121033187000121033227100121033D5
:101EF3004B7100121033EB71001210333972001260
:101F03001033A97200121033DD7300121033B97449
:101F1300001210332A7500121033A7760012103303
:101F23006977001210330478001210335F780012BF
:101F33001033CA7800121033CE79001210338F7B1E
:101F4300001210332E7C00121033A07C00121033C9
:101F53005D7D00121033E9B8031210333DB903124B
:101F6300103395B903121033E0B90312103342BA98
:101F730003121033DBBA0312103343BB03121033C3
:101F83004FBB03121033DDC2031210330EC303120F
:101F93001033C8C3031210332EC4031210339FC46B
:101FA3000312103340B003121033CCB103121033B9
:101FB3001CFF021210332DFF02121033CDFF021249
:101FC3001033F2CA0312103300CB03121033E7FFAE
:101FD300021210335CD9031210336CD9031210337D
:101FE30087D903121033E8D90312103327D603120B
:101FF3001033ACD60312103310D70312103315D598
:102003000312103337D503121033A1D50312103343
:10201300ACD503121033F0D5031210333C890312ED
:1020230010334A89031210338B8903121033AC899E
:1020330003121033368A03121033588A03121033F3
:10204300BB8A03121033D68A03121033F18A0312A8
:102053001033FB8A03121033058B03121033188BD2
:1020630003121033318B03121033CD8B0312103351
:10207300898C03121033098D03121033838D0312DD
:102083001033CF8D03121033768E03121033528F19
:10209300031210336DFC011210337BFC0112103359
:1020A300F5FC01121033D9FD0112103392FF011216
:1020B300103365DC03121033E7F90212103354FABC
:1020C3000212103315FB0212103385FB0212103378
:1020D3008EFC0212103306FE021210336AFE021245
:1020E3001033BFFE02121033C8FE02121033D7FEA4
:1020F30002121033EAFE0212103300FF02121033F1
:1021030009FF02121033209603121033759603123F
:102113001033719803121033A39803121033C59828
:1021230003121033DE9803121033F798031210339F
:10213300019A031210339C9A0312103346D10312EF
:1021430010336AD10312103383D103121033B6D183
:1021530003121033E7D10312103315D203121033D5
:1021630077D20312103386D20312103390D20312A4
:1021730010339DD2031210338ABB03121033B0BB4A
:1021830003121033EDBB03121033FCBB03121033E5
:102193001BBC0312103383BC031210338CBC031219
:1021A3001033EBBC031210330FBD03121033CEBD3B
:1021B30003121033DBBD03121033ECBD03121033D3
:1021C3009EDB03121033BBDB03121033139B03128A
:1021D3001033719C031210337E9C03121033919CB5
:1021E30003121033B09C03121033C69C0312103336
:1021F300DA9C031210334F9D03121033B49D031264
:102203001033649E03121033399F03121033499F16
:1022130003121033589F03121033C3D80312103321
:10222300E7D8031210330FD90312103337D903122F
:1022330010331ABE0312103341BE0312103362BEB1
:1022430003121033C7BE0312103380C003121033BE
:1022530099C003121033A5C003121033B9C003127F
:102263001033D7C003121033E1C003121033EBC095
:1022730003121033FEC00312103351C10312103383
:102283008AC103121033B9C10312103307C20312F8
:10229300103356C20312103371C2031210337BC2C0
:1022A300031210338CC203121033D2C20312103341
:1022B30075DA031210330080031210332A800312DD
:1022C30010334680031210335980031210336F808A
:1022D30003121033CC8003121033FF800312103328
:1022E3003B85031210336186031210339486031265
:1022F3001033E086031210330C8803121033348832
:102303000312103349880312103359880312103310
:102313009D8803121033FE88031210330E890312B3
:102323001033B27E00121033CD7E00121033F67ECE
:1023330000121033107F00121033357F0012103358
:10234300547F001210336C7F001210339A7F0012F7
:102353001033B47F001210335ADB03121033D0A8AA
:1023630003121033D7A803121033E3A90312103357
:1023730013AA0312103339AA031210335CAA0312EF
:1023830010337EAA03121033B8AA031210331EAB04
:102393000312103357AB03121033A3AB03121033E2
:1023A300D0AB03121033F0AB0312103351CE031230
:1023B300103363CE031210334ECF03121033DBCF2F
:1023C3000312103302D40312103374D403121033E4
:1023D300B2D403121033F3D40312103307B303122E
:1023E300103323B30312103372B3031210338EB3BB
:1023F30003121033BFB303121033CFB303121033DE
:10240300BBB403121033C5B403121033D2B4031296
:102413001033E2B503121033F6B503121033FFB5D0
:1024230003121033919F03121033D6A303121033F8
:10243300DBA30312103310DC031210331CD8031276
:10244300103346D803121033DADB031210333DDCAA
:102453000312103387DC031210334E94021210332D
:102463006C9902121033D9AC01121033BDAC0112B6
:1024730010334DAC0112103304AC01121033BCAB5A
:1024830001121033FAAA011210336DAA011210338C
:1024930060AA011210336EA701121033C0A40112F7
:1024A300103341DE01121033EDDD0112103394A31A
:1024B30001121033E8A20112103349DD0112103367
:1024C300BFDC0112103339A101121033F49E011243
:1024D30010337B9E01121033229E01121033B69DDE
:1024E300011210338D9D01121033809B01121033A2
:1024F3004C9B01121033199B01121033FD9A0112E8
:102503001033239A01121033DB9901121033109800
:10251300011210339097011210338D97011210336B
:102523009496011210336296011210339F95011293
:102533001033CA93011210335B93011210332D939E
:10254300011210335EDC011210330CDC0112103364
:10255300FADB011210337EB30112103360B30112A0
:1025630010332A9301121033179301121033AF92D1
:10257300011210339E920112103315B2011210335F
:102583007F91011210334991011210330C91011202
:102593001033AD900112103372B1011210333A832C
:1025A300021210337C9001121033378D0112103355
:1025B300288C01121033B78B011210337C8B01125C
:1025C3001033478B011210333B8B011210339B8A5C
:1025D30001121033E28901121033B587011210334F
:1025E300418501121033FF8401121033CA83011293
:1025F30010337F8301121033B1820112103308822A
:1026030001121033A48101121033DE810112103341
:102613001FB00112103347F80200000080FBE4737F
:1026230000004FF8280802208410488800802FF803
:1026330021C042A042A084908888008022082248BA
:1026430022482248FA4822482248224822483A4847
:10265300E24802480208040804000200FFF80200EE
:1026630002007FF0421042104210421042104270AA
:102673000200020004000200FFF88008840804003E
:10268300FFF8084010403C80030004C01820E0100D
:102693000110FCA0480049F07840484048407BF8CE
:1026A300484048405CA0E8A009100A08108027F8B9
:1026B300408097F01550255067F0A00027F02100C7
:1026C30020902A882A2831E000200D2070A010A035
:1026D3001220FD20112030383BE0542090201020A0
:1026E30010201020208020802080F7F02080208080
:1026F30027E03220E2202140208021402220EC18D4
:1027030000003FF82108210821083FF8210821088B
:102713003FF82108210841084108803802000100E0
:102723003FF82008200820083FF820082000200058
:10273300200040004000800001207D40049028A03C
:1027430010402FA040189FC0104010401FC01040E1
:102753000880FFF800007FE000203FE00020FFF842
:102763000200222013400A8012402220C2180E00C9
:10277300210021102110F920A940A900ABF8A9409C
:10278300A940A920B9202150218821003FE0202021
:1027930020203FE000000000FFF8080010003FE0A9
:1027A30000200020002000C00200FFF88008044041
:1027B3005290510892280FE03000C20022202220BC
:1027C3003FE00020000007E0F820222022204220E2
:1027D3007BF8C80848084FE84808780848080030DC
:1027E300010001F0FA10242023F842487A48CBF87C
:1027F3004A484A484BF87A48424804180400020001
:10280300FFF8800800003FE002000200220023E0FE
:102813002200220052008FF80000FC004BF0491008
:1028230079104910491078A048A04E40F84008A0FC
:1028330009100A080080449022A0108007F0841039
:10284300441017F01410241027F04410441004709F
:10285300020002007FF004000400FFF808001000EB
:102863003FE0002000401C800300008008800880B7
:10287300088088904890489028A028A028C0088005
:10288300088008800880FFF8020002007FF004003F
:102893000400FFF8080010003FE0002000401C8007
:1028A3000300008001004080200017F0008080803A
:1028B3004080008017F010802080208040804FF8F7
:1028C30000007FF00200020002000200FFF8050092
:1028D3000500090011002108410880F820A020907C
:1028E300488048F0F380108020B843C0F89000A0DF
:1028F300004818A8E318000847F0212020C007F07B
:102903000490E49027F02490249027F0249024B09E
:1029130050008FF840002FE0222002200220E22006
:102923002FE02220222022282A28322822180208D7
:1029330040502048204007F8E440244827482550C9
:1029430025502D2035282B68089811081100108078
:102953002FF8200067F0A00027F0200027F02410B4
:102963002410241027F024100400020000007FF03C
:102973000000000000202020104010400880088044
:102983000100FFF800003FE02020202020203FE04E
:1029930002000200220023F02200220052008FF8DE
:1029A3001010101028102490429080907C90449036
:1029B300449044905810421042103E70201810E08A
:1029C300FE8044802880FEF800901090FE901090C6
:1029D30054909290111072100080FE80108024F8A1
:1029E3004310FE9012901090FEA010A010401EA065
:1029F300F1100208000047E02000200000000FF063
:102A0300E2402240224022482448283850008FF8D0
:102A13000000F3E012201220F3E0808087F084901E
:102A2300F49017F0108010901FF860080200020065
:102A330002000200FFF802000500050005000880FF
:102A4300088010402020C0183FF82080210027F084
:102A5300241027F0241027F020802490248848880D
:102A63004080838007E04420242007E08420442022
:102A730007E020002FF04A504A508A508A501FF82E
:102A830000004FF0281008108FF0481008102FF0A6
:102A9300224052484A50866082401FF802000100DB
:102AA3003FF824203FF8242027E020002FF02420A3
:102AB30022404180466098182100210041E0922085
:102AC300F540208041408220F418018000603300EB
:102AD300C0C00020204012481248FA4803F80800FA
:102AE3008BF8488053F852A802A81AA8E2A8021843
:102AF300000000000000000000000000FFF80000DC
:102B030000000000000000000000000000000000C2
:102B13007FF0000000000000000000000000000043
:102B230000000000FFF8000000007FF0000000003C
:102B33000000000000003FE0000000000000000073
:102B43000000FFF800007FF84488448844884488E4
:102B53004488448844884878500840087FF84008EF
:102B630010801FF8100027F0241067F0A0002FF842
:102B7300280827F020402040204021C00200020006
:102B8300020002107B200B400A8012801240222098
:102B93004210820802000E000200020002007FF0D1
:102BA300421042107FF0421042107FF042000208B0
:102BB300020801F810407FF002003FE00400FFF834
:102BC30008001FE030205FE090201FE010201FE08E
:102BD300020002000200221022102220454085003C
:102BE30005000880088010402020C018103091C0D4
:102BF300D500B9009100FDF89120B920D52095208A
:102C0300912091208220FC2000007FF84008422878
:102C130053284AA8444844484AA84AA85108620885
:102C23004008403820802080249024B0F5D02E9096
:102C330024902490249024B03480C408040803F81A
:102C43002040204020402040FA4022782240224069
:102C5300224022403A40E24002400FF82100210086
:102C63002100FBE0212021202120253025282928AF
:102C730022202220242028C0400027F8248804880A
:102C8300E5E8248827F8240825E82D28352825E8B1
:102C9300040808387DF0451045107DF000400220FF
:102CA300FFF808803060C0187DF0451045107DF0B6
:102CB3000080788048F049104AA0784010A053184B
:102CC3005C0051F051105D10E1F0011002000200B0
:102CD30002007FF042104210421042107FF0421077
:102CE3004210421042107FF000000000000000007C
:102CF3000000000018001800000000001800180071
:102D0300000000006000900097E8681810081008A1
:102D130010001000100010001008081007E0000059
:102D23001800240824102420244024801900026061
:102D330004900890109020904090006000000000E4
:102D43000000000000000000000000001010101040
:102D53001010000030300000001428500000000064
:102D63000000000000000000002828FC284850FC58
:102D73005050000000001038545430181454543884
:102D8300100000000044A8A8B0541A2A2A440000E6
:102D930000000020505060ACA898927C00000060B6
:102DA3006020C000000000000000000000040808CC
:102DB3001010101010100808040000004020100824
:102DC30004081020400000000000001010D638381E
:102DD300D61010000000000000101010FE1010109C
:102DE3000000000000000000000000000000606020
:102DF30020C0000000000000FC00000000000000F4
:102E030000000000000000000000606000000002FD
:102E130004040408081010202020400000000030A3
:102E230048848484848448300000000000107010BB
:102E330010101010107C00000000003844440408F7
:102E43001020447C0000000000384444180404446B
:102E5300443800000000080818284848887C081CEB
:102E630000000000007C40407844044444380000E3
:102E73000000003C4480B8C48484847800000000CF
:102E8300007C444808101010101000000000007867
:102E930084844878848484780000000000788484E3
:102EA300848C740488F000000000000000303000BF
:102EB300000030300000000000000000100000009F
:102EC3000010102000000408102040201008040007
:102ED30000000000000000FC0000FC0000000000F7
:102EE30000004020100804081020400000000000EB
:102EF300788484840810100030300000000000380B
:102F0300449AAAAAAAB4423C000000000010102868
:102F13002828384444EE0000000000F84444784474
:102F2300444444F800000000003C448480808080D6
:102F330044380000000000F048444444444448F04E
:102F43000000000000FC44404878484044FC000076
:102F5300000000FC42404878484040E00000000088
:102F6300003C448480808E8444380000000000EEDE
:102F73004444447C444444EE00000000007C1010B0
:102F830010101010107C00000000007C10101010B6
:102F93001010101090E0000000EE444850704848B4
:102FA30044EE0000000000E040404040404044FC4C
:102FB3000000000000EE6C6C6C54545454D60000B6
:102FC300000000EE64645454544C4CE400000000D0
:102FD300003048848484848448300000000000F872
:102FE30044444478404040E00000000000304884FE
:102FF300848484B448380C00000000F844447850BA
:10300300484844E600000000003C44402018040403
:1030130044780000000000FE9210101010101038C9
:103023000000000000EE444444444444443800009B
:10303300000000EE44442828282810100000000057
:1030430000D6545454546C2828280000000000EE85
:1030530044282810282844EE0000000000EE4428ED
:1030630028101010103800000000007C8808102081
:10307300204044FC0000001C101010101010101011
:1030830010101C00007010101010101010101010F1
:10309300700000701010101010101010101070003D
:1030A30000102800000000000000000000000000E5
:1030B3000000000000000000000000FE006060202F
:1030C300C00000000000000000000000000000003D
:1030D30038441C24443E0000000000C040407844B3
:1030E3004444447800000000000000003C44404099
:1030F300443800000000000C04043C444444443EB3
:10310300000000000000000038447C404438000008
:103113000000001C2420F82020202078000000005C
:10312300000000003C48483040784438000000C0AC
:1031330040405864444444EE000000000010000086
:1031430070101010107C0000000000080000380808
:10315300080808080870000000C040405C48507030
:1031630048EC000000000070101010101010107CCC
:103173000000000000000000F854545454D600002E
:10318300000000000000D864444444EE0000000046
:1031930000000000384444444438000000000000AC
:1031A3000000F8444444447840E00000000000007C
:1031B3003C444444443C040E000000000000EC3056
:1031C300202020F800000000000000003C443008EC
:1031D300447800000000000010107C101010100C48
:1031E3000000000000000000CC444444443E0000C2
:1031F300000000000000EE44282828100000000012
:1032030000000000D6545454282800000000000099
:103213000000DC48303048EC0000000000000000F3
:10322300EE442828101020E00000000000007C4835
:103233001010247C0000101010101010101010102B
:1032430010101010000136360101000102010001C7
:103253000301000104010606050200000701003412
:103263000801000F090401010D0100FF0E08000011
:1032730017020000190100FF1A0100011B0100FEE3
:103283001C0100081D0200001F01000120010001B4
:10329300210200002301000F240200002601000187
:1032A30027010008280200FF2A0100072B01024022
:1032B3002C0100002D0100012E0100012F0100FF50
:1032C30030010B1C310800003A0100083B01000FDC
:1032D3002F010000C9EEDBDACAD0B0B2C1AAB5C271
:1032E300BFC6BCBCD3C3BBA7B5C7C2BCD5CABAC5CE
:1032F300C3DCC2EBC8B7B6A8C8A1CFFBD7A8D2B569
:10330300D7A8D7A2CEDECFDFCDA8D1B6B3CFD0C555
:10331300C1A2D7E3B4B4D0C2D6C2D4B6C7BFB4F344
:10332300D4ADCEC2CAAAB6C8D6D5B6CBD2BBB6FE2A
:10333300C8FDCBC4CDA3CBAEB5E7D7C5BBF0B6CFE5
:10334300CDF8B5D8D6B7D0ADB5F7C6F7C2B7D3C9A0
:10335300A3BAA1E6A3A500010371030103010301BD
:10336300030103010322030203010310030003000B
:1033730003000300030003000300034203000324CC
:103383000306030003000304031203250323032599
:1033930003230304030403000300030003440300A3
:1033A30003000323030003650321003503810300A6
:1033B30003050300030003000303027102300160ED
:1033C3000211027002010202020202800210026173
:1033D300023A004100630273027202620243020076
:1033E300021302380000020002040212020002006B
:1033F300020002000204020402370037003C0244C8
:103403000200023900000200026502000235028157
:1034130002000205028202830200020300710030EF
:10342300016000110070003102200350048000107D
:103433000061000000140063007300720062004327
:10344300000000130006000000000004001200004A
:103453000000000000000004000400370037003CB7
:103463000244000000000000000000650000003579
:1034730000810000000500000083000000010171CD
:10348300010101010111010101310101010101806A
:1034930001100161013B00140063017301720162B9
:1034A3000143010001130106013D0135000401122E
:1034B3000100010001000100010401040133013393
:1034C300013C0144013201360000010001650100A5
:1034D30001350081010001050182018301000136EC
:1034E300000100060000000F0000000000000000C3
:1034F300000000000003FFFF00000403FFFF0000C3
:10350300FFFF0FF4010005C4040320000100030BB7
:10351300000000000000000003010F0100021F0271
:1035230000781E03007E1E0400841E05008A1E060A
:1035330000961E1100AE1E1400B41E1500A81EFF37
:10354300FF0000581788175E1764178217761770E5
:10355300178E1794179A17A6176A1752174C170343
:10356300EAF5E5D5D5C5B5A59595858575756565E3
:1035730055554545353525251515050A241502EEFE
:103583001405001507F4140CD0140DE214FF000009
:1035930000160F00000B150B020002220F32000071
:1035A30006421854185A18221760181C172817A215
:1035B30018C018C618A818B418AE180C0E020B04BD
:1035C3000B0A0708000F0001191618161615230316
:1035D3000000383C3E363B3B352B432C0003494827
:1035E300424D1817250502303016181920231A1CCE
:1035F3001E30303017181921301B1D1F307C17A0C7
:1036030017BA18AC17B217961866186C1878187290
:103613001802040201010101090200000000000078
:1036230000BE040AE8030E00150004002800050C80
:103633000A030908FF1E1E0F0404100C74F7120A74
:103643007CE99003B0F0900365E4F01223AC90039F
:10365300B5E4F0A3F09003B1F0A3F012165C1223CB
:10366300B2900334E4F0A3F090363A93FA7902125D
:1036730024120262D574F2120A7CEAFEEBFF548034
:1036830060699003B0E0F9121BAE8A088B09EA4522
:1036930009604F7C0080010CEC75F003A4F8A9F0DD
:1036A300747E28F582743539F583E493F4602CE451
:1036B30093F88508828B83E06870DCAA08EC75F0C8
:1036C30003A4F8747F28F582743539F583E493C035
:1036D300E0740193F583D082122621AA08AB091264
:1036E3001BA2EEFAEF6480FB023845EF5420601D05
:1036F30012157E8A088B09EA4509600A1214E2AAA8
:1037030008AB09121BA2EEFAEF642080DAEEA2E006
:10371300501A90036AE0640F700B79001214ACE93D
:103723006003123848EE6401FAEF80BB5420700343
:10373300023813750C00124D1A8B09EA45097010F3
:103743007C027D007A207B009003B0E0F9121CF824
:103753007C0079047A007B0012155A8A088B098051
:1037630018850882850983A3A3A3A3A3A3A3A3A363
:103773007401F0850A08850B09E5084509606D7C2D
:10378300007904AA08AB0912155A8A0A8B0B750C27
:1037930001E5082404F8E509124ABE24FFF0A3E07A
:1037A30034FF126DB170CC850882850983A3A3A36E
:1037B300A3A3A3A3A3A3A3E0640170A585088285A3
:1037C3000983A3A3A3A3A3A3E0540470948508824D
:1037D300850983A3A3A3A3A3A3A3A3A37406F07A36
:1037E300B7850882850983123974808712152A7C6C
:1037F3000079017A007B0012155A8B09EA4509709A
:1038030009E50C70057A20125C74EE642002372BF4
:10381300EF5402600B121656EEFAEF64020236EA18
:10382300EF54046019125E0B125D2B790190036350
:1038330012608F1213F2EEFAEF64040236EA7A0092
:103843007B00023A7B900D0B1241121214C422C06A
:1038530082C08374EA121112851882851983AA82A1
:10386300AB83794B1223E874081213437402F07488
:1038730009121343AA82AB8379501223E8741312FB
:103883001343E412625E122406741602523874F76C
:10389300120A7C74E1121112EAFEEBFFEE4F603361
:1038A300851882851983AC82AD831215A274061222
:1038B3001343E0601E7417121343E0FD74011213E7
:1038C30043E0FCEEFAEFFB790012255CE960047932
:1038D300A4800279000262D074F6120A7CEAFEEB3D
:1038E300FF8E828F83A3A3A3A3A3A3E05440601BF3
:1038F30012674D123A4260067AFF7BFF801A8E826E
:103903008F83124EC4FAA3E0FB80031215C674FE24
:103913006A700374FF6B604112674D125CB8121634
:103923001AE98E828F83600612396DE4800512399D
:103933006D7401F07CB27D148E828F8312608F12BE
:10394300240CE9F5087015EE4F60097901EEFAEFE2
:10395300FB121536A908025CE97508CDAA088E8208
:103963008F83123974E960DF80EAE0240D125393E8
:1039730022E0240C125393E0F91214BE2274F612BF
:103983000A7CE9FEEAFF7A0F7B00121B9CEA4B607C
:10399300198A828B83740CF0EEA3A3F0EF8A828BD7
:1039A30083A3F0125D147900802FEEF91215608A5B
:1039B300088B09A808A909E849601C88828983A3A0
:1039C300A3A3A3A3A3A3A3A374061269D8E0F91224
:1039D3001476EEF912153C7910025CE9C082C083BB
:1039E30090036AE0640F7014EA4B6010900365E083
:1039F30064086005E064047003123A02025262EA4A
:103A0300FCEBFD7A017B009003B0E0F9121CF2227B
:103A1300C082C0837900EA241DF582EB124EC124D3
:103A2300FD600B14600824FD600424FD700109028D
:103A330052628E828F83A3A3A3A3A3A3A3A3A312E0
:103A43003A4622124F09FB12161AE9228E828F83FD
:103A5300A3A3A3A3A3A3A3A3A3123A466402228E00
:103A6300828F83A3A3A3A3A3A3A3A3A312525990B7
:103A73000356E0682212107E7F06020D3074F412A2
:103A83000A7C74FD1211128A088B098A828B83A324
:103A9300A3E0F91215608A0A8B0BAE0AAF0BEE4F47
:103AA3007003023B87850882850983A3E064F16084
:103AB30030850882850983A3E064CD60248508826C
:103AC300850983A3E0641A6018850882850983A3A6
:103AD300E064E9600C850882850983A3E064E170F2
:103AE300087900121536E9706C850882850983A36D
:103AF300E0C0E07402121343D0E012523DEEF0A393
:103B0300EF124568851882851983AA82AB837005F5
:103B13001213DA80031216027402121343E064E9EB
:103B230070338E828F83123B93750A01780A1210C9
:103B330054750AE9780A121054E508240CF582E555
:103B43000912405A124545FCA3E0FD8A828B831279
:103B5300455F12107E8E828F83A3A3A3A3A3A3A387
:103B6300A3A3E0640270108E828F83A3A3A3A3A3F5
:103B7300A3A3A3A37406F0850882850983A3A3E006
:103B8300F912153C12152A900D0F12384B024117EA
:103B9300E0F8A3E0F9E8FAE9FB2274F4120A7CEAFC
:103BA300FEEBFF7508008E828F83A3A3A3A3A3E07C
:103BB30060427508088E828F83A3A3A3A3A3A3A344
:103BC300A312516C8B0BEA450B601075082C8E8287
:103BD3008F83A3A3A3A3A3E0D2E0F08E828F83A35A
:103BE300A3A3A3A3E0540364016003023C86430838
:103BF30011023C86EE24181241246033EE241A127B
:103C03004124700F123A627003A3E069707575085E
:103C1300228070EE241BF582EF123C8B241AF5826E
:103C2300EF124570EE241912678112146480541246
:103C33003A4F7003750801123A627003A3E069708A
:103C430006E508D2E1F508E50860158E828F83A3A7
:103C5300A3E07006E508D2E58004E508D2E6F5089E
:103C6300123A3564017006E508D2E0F5088E828FBA
:103C730083A3A3E0600D123C9964016006E508C2CA
:103C8300E0F508A90802411C124EAF123C9222E053
:103C9300FCA3E0FDEE22124EA9124EE1F912160822
:103CA300E922C082C08379018A828B83A3A3E0C304
:103CB30094024001198A828B83A3A3A3A3E0C39434
:103CC30002400279008A828B83A3A3A3A3A3A3A3A5
:103CD300A3A3E064F87003A3E0F460458A828B83B6
:103CE300A3A3A3A3A3A3A3A3A3E064F97003A3E0E3
:103CF300F4602E8A828B83A3A3A3A3A3A3A3A3A36A
:103D0300E064FA7003A3E0F460178A828B83A3A3B1
:103D1300A3A3A3A3A3A3A3E064FB7003A3E0F47092
:103D23000279008A828B83A3A3A3E0F8900353E074
:103D3300686002790002526274F0120A7C74DE1227
:103D43001112EAFEEBFF8E828F83A3A3A3A3E0608D
:103D53000E900D0D125CE06006900D0D12384B7441
:103D630003121343AC82AD838E828F83A3A3A3126A
:103D73005D6212659BE9600F7403121343AA82AB61
:103D8300831214DCE9700879011223BE02404FEE5E
:103D9300241B124EB47410121343125D2B740912B8
:103DA3001343E06021741A121343E0FD74041213E9
:103DB30043E0FC8E828F8312608D790112255CE9CA
:103DC3006004790280C37403121343AA82AB831283
:103DD30014D6E9F50A7409121343E0702A90034DCF
:103DE300E060247422550A6422601C7442550A64FC
:103DF3004270CF742012134312406D600A74201274
:103E0300134312406670BBE9A2E6504174031213D8
:103E130043AA82AB831214CAE97003023D8A742059
:103E2300121343124EC46403700F7420121343A37E
:103E3300125CD2A3E0640D60147403121343AA82CC
:103E4300AB8312162CE96401700302404FEE242C5D
:103E530012405712437B7003A3E069701C7508007E
:103E630078081210547808121054EE242E12678129
:103E730012407312455F12107E7409121343E070EF
:103E830003023F2C12407312608F1216808A088B34
:103E930009EA45097003023FC97404121343E0F8A9
:103EA3008E828F83A3A3E028F8A3E03400F9E824EB
:103EB3000D12405E8A828B83A3A3A3E068601CE893
:103EC3008A828B83A3A3A3F090819312131885088E
:103ED30082850983A3A3A3A312130C7904E9121304
:103EE300431265782AF8A3E034008882F583A3AAF5
:103EF30082AB83121B8A8A0C8B0D8C0E8D0F850867
:103F030082850983A3A3A3A3780C12100B40030299
:103F1300404F90816B780C1211B985088285098313
:103F2300A3A3A3A3780C1212B4900365E064046006
:103F330008E06409600302404FE50AA2E54003027A
:103F43004007EE242E124124851882851983F0EE52
:103F5300242F124124C0E07401121343D0E0F0EE89
:103F63002430124124C0E07402121343D0E0F074F1
:103F730014121343E064017027740E121343124E9C
:103F8300BAEE2412124124687003A3E0697011741D
:103F93000C121343123A5C70077414121343E4F0C7
:103FA300EE2424124057120E317404121343AC82D0
:103FB300AD837407121343AA82AB831213E0740414
:103FC30012107E02404F9003AAE064016003023F97
:103FD3002C742012134312406D7009E50AA2E650B7
:103FE30003023F2C7410121343E0F47003A3E0F4B4
:103FF300605AEEFCEFFD7403121343AA82AB8312E3
:1040030014E88048A2E65044742012134312609EC1
:10401300701A741A121343E064027030740312139B
:1040230043AA82AB8379001215F680207420121301
:10403300431240667016741A121343E06404700C42
:104043007403121343AA82AB831215F07422026421
:104053004AEE240BF582EF124EAF22F582E9125D90
:1040630044F82212675FE0640722124EE1640622DD
:10407300EE242A124EAC123C922412124EAC22743D
:10408300F4120A7CEAFEEBFF8C088D099005DEE052
:10409300600F123A627003A3E06970051214528034
:1040A3004F79001260821214828A828B83E58245E3
:1040B300836035A3A3A3A3A3A3E05418602AE50850
:1040C300241BF582E50912405A120E351247581285
:1040D300405A120E35EE24181267811240F512145D
:1040E30094740412107E800879001240F51214585B
:1040F30080278E828F83A3A3A3A3A3A3A3A3A31227
:104103003C92240BF582EF12410E223400F5831208
:104113004F09FB22740312107E7F04020D30EE243C
:1041230017F582EF125D442274F7120A7C74F712BA
:104133001112EAFEEBFF900365E06403600DE06497
:10414300016008E0640960030241F58E828F83A356
:10415300E0707E7C007D007A027B001223B8EE249F
:1041630002FAEF124AC5124EBA900356125D2B792A
:10417300531223EE79001241FAE0640960031245F9
:104183008D8518828519837401125D01900365740E
:1041930004F07401121343AA82AB83794A1223E811
:1041A3007401121343AC82AD837A5B7B031223D673
:1041B3009003561265917A03124597900350E0A23B
:1041C300E35004D2F08002C2F0125CEE1238488051
:1041D3001E8E828F83A3AE82AF83FC7D007A037B26
:1041E300101223B88E828F83E0F91241FAE4F012A1
:1041F300151274090262D29003631241121213F270
:1042030090036522C082C083900334125CE0701F68
:10421300900365E014600924FC600A14600C800FAD
:1042230090033C8032900338802D90033A8028E835
:1042330049600890033512453F700C8A828B83A333
:10424300E0F91213E6801B9003351247F470051250
:10425300164A800E9003D2125CE06006125CD21202
:10426300262102526274F4120A7C74FB1211128A20
:10427300088B097A0F7B00121B9C8A0A8B0BAE0AF0
:10428300AF0BEE4F700302436F8E828F8312625C1B
:1042930079501223E8850882850983A3E06003022D
:1042A3004357900363E0F47003A3E0F46034900396
:1042B30063E064FE7003A3E0F46027851882851928
:1042C3008312437B7003A3E0696017850882850925
:1042D30083A374EA1245757A637B0379501223EE44
:1042E3008072851882851983126740125D2B7A5676
:1042F3007B0379531223E8900356125D5C125D2B06
:104303007A597B03794B1223E87A587B0379E112BC
:1043130023E890036AE0C3940F5021900358E0C050
:10432300E07402121343D0E0F074041213437401D7
:10433300F004121343AA82AB83122400750A007897
:104343000A121054780A121054900D35E0F91245F0
:104353005612107E850882850983124374A3F09058
:1043630003657403F0EEFAEFFB125D14740502416A
:1043730019A3E08E828F8322126744E068221253CE
:104383009A2274F5120A7C74D81211128A088B09C6
:104393008A828B83A3A3A3124EE67415121343AC34
:1043A30082AD838A828B83A3A3A3A3A3A3A3A31214
:1043B3004545FAA3E0FB1215187415121343E07078
:1043C3006B850882850983A3A3A3A3A3A3A3A3E067
:1043D300C3940B40578E828F83A3A3A3A3A3A3A34A
:1043E300A3E064027046EE240B124124F4703D9066
:1043F3000365E06402603AE06406603590033412BA
:104403005CE0600512453F604F900365E06408601F
:1044130005E0640470167417121343E0F9741C1258
:104423001343AC82AD8312608212151E7428026C92
:104433005E900334125CE0701F7508007808121058
:10444300547808121054EE24101240571267991230
:104453004BAD12455F12107E8E828F83125FFE1268
:104463004AD7124EBA7402121343125D2BEE240D77
:10447300124124C0E07404121343D0E0124568F5DE
:1044830008A3E0F509740F78081212D27405121309
:1044930043E508F07419121343E0C0E074061213E5
:1044A30043D0E0F0741B121343E0C0E0740712130F
:1044B30043D0E0F07416121343E0C0E07409121302
:1044C30043D0E0F07417121343E0C0E074081213F2
:1044D30043D0E0F0EE2410124124C0E0740A12131A
:1044E30043D0E0F0741A121343E0C0E0740B1213CC
:1044F30043D0E0F07427121343E0C0E0740C1213AE
:1045030043D0E0F0741C121343A982AA8389088A5A
:1045130009750A00780812104C7C087D007410128B
:104523001343AA82AB8312588F12107E851882859B
:104533001983AA82AB831213EC02442F1247FA6445
:104543000122E0F98A828B83A3A3A3A3A3A3A3A33A
:10455300A3E022900363126595900359124112124E
:1045630015D8740222F0EE240B125D4122125D4431
:10457300FA22F07A567B037953124580221223EEF6
:104583007A597B03794B1223EE2290036312411273
:1045930012167A227B001223B89003591265957A7A
:1045A300047B001223B822F01267A42274F2120AC9
:1045B3007C74F8121112EAFEEBFF8C0A8D0B890C46
:1045C300851882851983AC82AD8375838175823E9C
:1045D3007408120FACF50DEEFCEFFD8518828519FA
:1045E30083AA82AB83125F5F7003750D019003B1E1
:1045F300803BEEFCEFFDE508240BFAE509340012DD
:104603005F5E601E850882850983A3A3E0650C7045
:1046130011850882850983E0650A7004A3E0650BB0
:104623006038E5082414F582E50912405A124ACF8E
:10463300E50845096024E50DA2E040B685088285BA
:104643000983E0650A7004A3E0650B70D5850882D1
:10465300850983A3A3E0650C70C8AA08AB09740895
:10466300023A78C082C0839003B102525F74F7129A
:104673000A7C9003B1124F098012EA2414F582EBED
:1046830012405A124EE6121C3EEEFAEFFBEA4B7052
:10469300E99003B1E4F0A3F00262D57F07020D3085
:1046A30074F1120A7CEAFEEBFF890A8C088D098EED
:1046B300828F83E08C828D83125176AE82AF83E04A
:1046C30012594F1258C0C412594F124761E0540394
:1046D3008C828D831258BEA2E2E4338C828D8312C6
:1046E30058BD131313541F12594F1258BCA2E7E4B9
:1046F300338C828D83A3A3A3A31247618E0C8F0DEA
:10470300750E00780C12104C7C087D00E508240718
:1047130012650412107E12656F8E0C8F0D780C12C9
:10472300104C7C037D00E508240F12650412107EF3
:10473300E50AC3940F40148E828F83A3A3A3E0C022
:10474300E012475812405AD0E080061247581269C7
:10475300CCF002469EE5082412F582E50922A3A3C4
:1047630012517A0EAF832274F4120A7C74F9121177
:1047730012EAFEEBFF8908900334125CE0600E122C
:1047830047F47009EEFAEFFB121644805F9003635F
:10479300E06E7003A3E06F70537401650860097ADB
:1047A300777B03125F5F70447A007B02124D1E8B8E
:1047B3000BEA450B70369003661213188518828531
:1047C300198312130C90036CE0C0E07404121343BA
:1047D300D0E0F074051213437401F074061213430E
:1047E30012625C1213B6E9609B1213BC7407024198
:1047F300191247FA640222126760A3A3A3A3A3A317
:10480300E02274F5120A7C8A088B098A828B83A3BF
:10481300AE82AF83E0F912140A8E828F83E064EBD9
:10482300600C850882850983A3E064E1700985082B
:1048330082850983A3E4F0123848750A01780A12C5
:104843001054850882850983A3E0F50878081210BF
:1048530054790012455612107E12152A026C61EA31
:10486300F0A3EBF002526274F6120A7C9003B4E0F8
:10487300701B7C0079017A007B0012155AEA4B60A9
:104883000C8A828B83125CE060031214B8025CE929
:10489300C082C083124D06401079FF121554E9F807
:1048A30090363EE493C39850047901800279000264
:1048B300526274F0120A7C8A088B09890B750C000A
:1048C3008A828B83A3A3A3A3A3A3A3A3E0F91215B3
:1048D300608A0E8B0FAE0EAF0F750A01EE4F6003A9
:1048E300024993850882850983A3A3A3A3A3A312E3
:1048F3006591850882850983A3A3A3A3A3A3A31218
:10490300568F12608F1215488A0C8B0DAE0CAF0DAB
:10491300EE4F7003024AB68E828F83A3A3A3A3E450
:10492300F0A3F0E508240B124AC2E0C0E0124054A1
:10493300D0E0F0121620EE240CF582EF125CB4E501
:1049430008240EF582E509124EB7EE240EF582EF28
:10495300125D28750C01EE2406F8EF124ABE547F4F
:10496300F0A3E054FC1267F6E054046003024A1912
:10497300900D131256807407780812123E8E828FA0
:1049830083A3A3A3A3A3A3E04508F0A3E04509F0F1
:104993008E828F83A3A3A3A3124ACD740778081230
:1049A30012D2E5085407F508E50B607A8E828F83EF
:1049B300A3A3A3A3A3A3A3A3A374021258C1240D67
:1049C30012538FE0A2E2500B900351125D5CA3A33C
:1049D300125D2BE5087003024A8BEE2406F8EF34D0
:1049E30000F9E8FAE9FB8A828B83E0547FFCA3E0B9
:1049F30054FCFDE50824FFF508E434FFF5097407CA
:104A0300780812123EEC4508F8ED4509F98A828BC5
:104A130083125D2B80728E828F83A3A3A3A3A3A390
:104A2300E04480024992E5087005750A0080598EBA
:104A3300828F83A3A3A3A3A3A3E054206012121B1A
:104A430096EA547F245F8E828F83A3A3A3A380233C
:104A53008E828F83A3A3A3A3A3A3E05410600A129F
:104A63001B96EA540F240A80DD8E828F83A3A3A3AF
:104A7300A37401F0A3E4124AD77404124D158B09F1
:104A8300EA45097003125CA7E50CA2E050288E8268
:104A93008F83A3A3A3A31262C2F9EEFAEFFB12154D
:104AA3004EE96012125CD66003124E9FEEFAEFFBE2
:104AB300121C3E750A00A90A02644D125E1F22FAF7
:104AC300E5093400FB8A828B8322A3A3E0F508A3C4
:104AD300E0F50922124ADB22126520A3A3A3A3A3B4
:104AE3002274F4120A7C74F71211127E00121560FC
:104AF300EA4B7003024BA68A828B83A3A3A3A3A3CF
:104B0300A3A3A3A3E064066003024BA68A828B835C
:104B1300A3A3A3A3A3A3A3E0FF8A828B831253A21D
:104B2300E0C0E07408121343D0E0124EDA125F655E
:104B3300125D2B121572EF54086066851882851971
:104B4300831265917A007B001215428B0BEA450BA9
:104B5300704F900363124FCA1224187C007D007AB1
:104B6300007B0080288E828F83124EC4F47003A3CF
:104B7300E0F4602D900363124BAD12608F12210C91
:104B8300E9641A601C7C007D00EEFAEFFB1215420B
:104B93008A0A8B0BAE0AAF0BEE4F70C97900122451
:104BA3001E7E01EEF97409024119124BB122E0FC99
:104BB300A3E0FD8E828F8322C082C083EA4B7005FF
:104BC3009003B580068A828B83A3A3124DCA602506
:104BD3008A828B83A3A3A3A3A3A3A3E0540860E5C2
:104BE300EC4D60158A828B83124EC46C7003A3E074
:104BF3006D70D280047A007B0002526274F2120A52
:104C03007CEAFEEBFF890A8C088D097A107B00127F
:104C13001C38EA4B603F8A828B83A3A3A3A3A3A37D
:104C2300A3A3A3E4124EC8A3E50A126766A3124C1A
:104C3300628A828B83A3A3A3A3E4F0A3124ED4A31B
:104C4300F01265FAEA240CF582EB125166124C5B02
:104C5300A3A3F0A3F0023A7BA3F08A828B8322A35F
:104C6300A3E508F0A3E509F02274F4120A7CEAFE36
:104C7300EBFF89088C0A8D0BEE4F605574016508B4
:104C830070147901121554E9F8903636E493C398F9
:104C9300500F7911806A74046508702F124D064015
:104CA300F18E828F83A3A3A3A3A3A3A3A3A3E50846
:104CB300125176A3126CEB8E828F83A3A3E4F0A32D
:104CC300F09003B5125CE06021800D74026508600A
:104CD300D079C1802BE0F8A3125D55A3A3124DCA6E
:104CE30088828983A3A370ED80039003B5EEF0A3BC
:104CF300EF124D158B0BEA450B7003125CA779007D
:104D030002411C7904121554E9F8903631E493C337
:104D13009822F0124D1A227A207B009003B0E0F91A
:104D2300121D0422C082C083E9F879009003B58084
:104D33001D8A828B83A3A3A3A3A3A3A3A3A3E06836
:104D4300600574FF687001098A828B83A3A3124DE7
:104D5300CA70DE02526274F7120A7CEA4B70059045
:104D630003B580068A828B83A3A3124DCA60248A6B
:104D7300828B83A3A3A3A3A3A3A3A3A3E06970E448
:104D8300EC60148A828B83E0240D126582A2E240D8
:104D9300D380047A007B000262D5C082C083900373
:104DA300B580068A828B83A3A3124DCA60128A82BE
:104DB3008B83A3A3A3A3A3A3A3A3E06970E58004A8
:104DC3007A007B00025262124112EA4B2274F21201
:104DD3000A7C8A0A8B0B8C0C8D0D750800750900F3
:104DE300EA450B602E9003B580068E828F83A3A3C2
:104DF300124E1D601EAC0CAD0DEEFAEFFB850A8260
:104E0300850B83122621E9640170DFEEF8EFF98840
:104E1300088909AA08AB09023A7BE0FEA3E0FFEE8A
:104E23004F2274F7120A7C9003B5124EBA7C007DB0
:104E330000800DE8FCE9FD88828983A3A3124EBAA2
:104E4300E8496030EA687002EB6970E79003B512D5
:104E5300608FE86A7002E96B88828983A3A3700874
:104E6300124EBA9003B58009124EBA8C828D83A379
:104E7300A3125D2B0262D574F7120A7CEAFEEBFFE4
:104E8300EE4F601512156C124EEC125CD6600312D5
:104E93004E9FEEFAEFFB121C3E0262D5EE240C127B
:104EA3004EAC124F0122EE241DF582EF3400F58340
:104EB30022F582EF124EAF12525922F582EF124EB3
:104EC300AF124EE122124ECC2212676EA3A3A3A30C
:104ED30022124ECCA3A322124C5C124EE122126783
:104EE30059E022E0FEA3E0FF228E828F83E0241CA0
:104EF300125393124F018E828F83124F0122124F4E
:104F030009FB121C3E22E0FAA3E022C082C083EA1E
:104F1300FCEBFDEC4D700479058044EC24FBF58239
:104F2300ED34FF125CDE7007124F65E0F46005128A
:104F33001BA280E39003B0E0C0E0124F65D0E0F025
:104F4300903633E493F97AB77B03121BCCE96401FF
:104F5300700B7A007B20125CAB790080027904022B
:104F63005262EC24FFF582ED34FFF5832274F412D0
:104F73000A7CA2AFE433F508C2AF9003B7124E1D0B
:104F83006038EE24FBF582EF34FF125CDE7A007B9F
:104F9300209003B06005125CAE8005E0F91226167E
:104FA300E4F50AF50B780A121050EEFCEFFD7AB720
:104FB3007B03121BC6740212107EE508A2E092AFB7
:104FC300EEFAEFFB02411C12659585188285198361
:104FD300AA82AB832274F2120A7C74FC121112EAC5
:104FE300FEEBFF750AFE750BFF121530E9600579BC
:104FF3001102515BEE24151241246037900D27E016
:10500300C43354E0F8E0333354FC48C0E0EE2415D5
:10501300124057D0E012517612516C8B09EA4509C0
:105023006011750AFFEE240F1241244404125D3906
:10503300D2E0F08E828F83123A406006EE24121281
:105043005163EE24131241247010903639E493C057
:10505300E0EE2413124057D0E0F08E828F83E0A25B
:10506300E750045403801CEE24141241247015905D
:105073000342E0C0E0EE2414124057D0E0F0900366
:1050830042E004F0EE2411124124640170169005ED
:10509300D5E0600D90034DE0700A8E828F83E0703F
:1050A300031251608E828F83E064017013EE240B30
:1050B300124EBE64027009EE240F1241244440F0E4
:1050C300851882851983AC82AD83EEFAEFFB121546
:1050D300968A088B0974FE650A700374FFF47009DD
:1050E3008E828F83A3A3126510EA450960668E82C0
:1050F3008F83E0C0E07401121343D0E0F074021216
:1051030013431265FE740112134385820C85830DCC
:10511300780C121050EE240F124057120E35EE2465
:105123000E124124F50C780C121054900356120EF3
:10513300357407121343E0F9AC0AAD0B12159074E2
:105143000712107EE9FE74106E700BAA08AB0912E9
:105153001C3E80027E10EEF97404023A78EE2411AC
:10516300F582EF124EAFE4F022A312411279FF123F
:10517300247E2212517A22F08E828F83A322C08250
:10518300C08374DE1211128A828B83A3A3A3A3129A
:105193004EBA740E121343E8F0A3E9125250740C82
:1051A300121343125249240DF582EB124127C0E03A
:1051B300741A121343D0E0F012645DEB124EB7740D
:1051C300201213431252492415F582EB124127C0D2
:1051D300E07408121343D0E0F0EA241CF582EB12CA
:1051E3004EB774121213431252492411F582EB1273
:1051F3004127C0E07409121343D0E012523D74FFFB
:10520300F0740112134374FFF0740212134374FF1A
:10521300F0908193120E317404121343AC82AD8368
:105223007407121343AA82AB831213E0740412109F
:105233007E7900742212107E802512524122F0855D
:10524300188285198322E8F0A3E9F0EA22124C5C64
:10525300A312525822A3E0F8A3E0F92212608FD0E0
:1052630083D08202103074EC120A7C74EE12111295
:105273008A128B13ECFEEDFF890974261213431275
:1052830065107428121343E0F510742912134312A6
:105293005384742B121343E0F50EA3E0F50F750846
:1052A300107A1E7B00121C387402121343125CB86E
:1052B3007402121343125CE0700302537D8518825B
:1052C300851983AA82AB837950125B9312608F7422
:1052D300021213431253A2A3125CB87410121343A5
:1052E300126CED7402121343E0240B12538F7402F9
:1052F300F01213431253A27402F0121343126751B4
:105303001265FE74021213431260A4E509F07402DD
:10531300121343E0240C12538FE510F0740212139E
:105323004312538CE512F0A3E513F07408121343F0
:10533300E50CF0A3E50DF0740A121343E510F085B4
:105343000E82850F83C082C083740D121343AC8217
:10535300AD83D083D0827403120FACF9740212139D
:1053630043AA82AB83121536E96401700575080000
:1053730080087402121343124EA5A9087412026521
:1053830027E0F50CA3E0F50D22E0241C1253932231
:10539300F8A3E012539A223400F9888289832212F7
:1053A3006097A3A3A3A3A32274EE120A7CEAFEEBE5
:1053B300FF8C088D098E828F83A37408125D74E0BD
:1053C30060088E828F83A37410F012412160098ECE
:1053D300828F83A3E02408F0EE2415124124600891
:1053E3008E828F83A3E004F08E828F83A3A3A3A373
:1053F300A3A3E060198E828F83A3A3A3A3A3A3A374
:10540300E0C3332402F88E828F83A3E028F0EE24D6
:10541300111241246005750B0E8003750B008E82FB
:105423008F83A3C082C083EE240D124124D083D086
:1054330082F8E028250B8C828D83F0EE2411124133
:1054430024600512589F28F0850882850983E0C3EC
:105453009475400975080075090002558DE0FA7BC3
:10546300001266AC700302558DEEFAEFFB12159C29
:10547300EA850882850983125CB9EE2402F8EF12EB
:1054830043811256871255C9F0EE24040808EF121F
:105493004381125AC9A31255C9A3A3F0EE241312D0
:1054A30055AFF0EE24141255AFA3F0750A08EE249D
:1054B300161241246010EE241812658EE5082408A4
:1054C30012678F750A101241216016EE241A1265B5
:1054D3008E850A0CE508250C12678F7408250AF5DA
:1054E3000A8E828F83A3A3A3A3A3A3E06059EE2410
:1054F30007F510EF3400F511851082F583E0C0E065
:1055030012559612405AD0E01255B9E0C0E0125538
:105513009612405AD0E01255B9A31255A212104C5C
:10552300851082851183E0C333FCE433FD850A0CC7
:10553300E508250C12650412107E851082851183FF
:10554300E0C333250AF50AEE2415124124600BC08B
:10555300E012559612405AD0E0F01240541255A270
:1055630012104CEE240D124124FC7D00850B0A8E93
:10557300828F83A3E0F8E50828F8E5093400F9E809
:10558300250AFAE912650712107EAA08AB097F0AF9
:10559300020D30850A0CE508250CF582E50922E0A9
:1055A300F50CA3E0F50D750E00780C22124EAC122B
:1055B30055D3A3A3A322F0050A8E828F83A3A3A3AB
:1055C300A3A3A3A3A322A3A31267FAA31255D322CF
:1055D300125ACDA3A32274F6120A7C8A828B83E02B
:1055E300FC9003531256807402780812123EEC4565
:1055F30008FCAD09EA241212567A740678081212CE
:105603003EEC4508FCED4509FDEA2415F582EB1255
:1056130041276004780180027800E4C8F9ED49FD70
:10562300EA2411F582EB124127F5088809740978F9
:105633000812123EED4509FDEA241612567A740B40
:10564300780812123EED4509FDEA241712567A74C2
:105653000C780812123EED4509FD8A828B83A3A3C1
:10566300A3A3A3A3125680740A780812123EECFA7D
:10567300ED4509FB025CE9F582EB124EAFE0F5085C
:1056830075090022E085088285098322A3E0F98554
:1056930008828509832274EE120A7C8A0A8B0BEC3A
:1056A300FEEDFF750F01E9C3940850057900025818
:1056B3008C8E828F83E9F0125AF2E96003750F0032
:1056C300125AD68E828F83125B20EE12645EEF1223
:1056D3005B15C0E0EE2411124057D0E0125B0DC001
:1056E300E0EE2412124057D0E0125176740812658E
:1056F30018A3A3A3E06015125ABEEE2413F582EF9C
:10570300125D288E828F83A3E02408F08E828F831C
:10571300A3A3A3A3A3A3A3A3E060218E828F83A348
:10572300858208858309125B01EE2415F582EF1249
:105733005D28850882850983E02408F08E828F83A3
:10574300A3A3A3A3A3E0601A8E828F83A3858208F9
:10575300858309125AE58E828F83A3A3A3A3A31281
:1057630058B1EE2419125163EE241B125163A31294
:105773005D6CE07003025820EE2419F8EF3400F951
:105783008E828F83A3858208858309E0FAE50A2A3E
:10579300F582E50B124127888289831258B1FAE515
:1057A3000A2AF582E50B124127C0E0EE241A1240C3
:1057B30057D0E01258B188828983E06059F8903657
:1057C30032E493C398500575110C8008EE24191226
:1057D3004124F5118E828F83A3E0F8E50A28F50CA6
:1057E300E50B12589512104CE511C333FCE433FD5D
:1057F3007AB67B0B12588F12107EEE241B12405781
:1058030074B6F0A3740BF0E511C333F885088285F1
:105813000983E0288006EE24181269C9F08E828F6E
:1058230083A3E0F88E828F83E0C39850030256AFC0
:10583300A3E0FA8A08E50A2508F8E50B3400F9EE37
:10584300241DF582EF125E341258C1C39AC0E0EEF4
:105853002417124057D0E0125D31602BEE2417F865
:10586300EF3400F9880889098882F583E024F2126D
:105873005E15240EFAA3E03400FB88828983125C50
:10588300B812589FC398F0A90F025591121B727456
:1058930003223400F50D750E00780C2290034EE0C0
:1058A300F9122556E9F8850882850983E022F085F7
:1058B3000882850983E004F022A3A3A3A3A3F08EA7
:1058C300828F83E02274F4120A7C8A088B09EA121D
:1058D3005956F0EA1313543F12594FA3A3A3F0EA06
:1058E300C41313125956A3A3F0EB1259481259606B
:1058F3007409780A1212D212594612595F740A783F
:105903000A1212D2E50A5401C0E0EC2418F582ED24
:1059130012405AD0E0125965740B780A1212D2124F
:105923005946A312595F740C780A1212D2125946BF
:10593300A3A3A3A3A3A3A3A3F0740D78081212D265
:10594300023C86E50A54018C828D8322540F8C829B
:105953008D832254038C828D83A3A322A3A3A3A3A9
:10596300A3A3F08A0A8B0B22C082C08379008A82A8
:105973008B83A3A3A3A3A3A3E090034D600FE070C5
:10598300228A828B83A3A3E07019098016E0601337
:105993008A828B83126086900356E06A7003A3E0C9
:1059A3006B70E702526274F0120A7C8A0A8B0B89CD
:1059B3000C8C088D09125AF2125AD6850882850971
:1059C30083125B20E50812645EE509125B15C0E0F3
:1059D300E5082411F582E50912405AD0E0125B0D67
:1059E300C0E012475812405AD0E0125E3C740812CD
:1059F3005E556011125ABEE5082413125E30125E22
:105A03003CE02408F0850882850983A3A3A3A3A30C
:105A1300A3A3A3E06017850882850983A3125AFD17
:105A2300E5082415125E301258C12408F085088257
:105A3300850983A3A3A3A3A3E0601985088285092D
:105A430083A3AE82AF83125AE58508828509831248
:105A530058BC04F0AA08AB091215AEE9F50D70564F
:105A6300850882850983A3A3A3A3A3A3125AC9709C
:105A730014E0FA8A0EE50A250EF8E50B125D1DE522
:105A83000CC39A8021125AFDE8240EF8E9125D1D19
:105A930090034EE0F91225568E828F83E0F8E50CD1
:105AA300C39824F2C399C0E0E5082417F582E509F9
:105AB30012405AD0E0F0A90D02644DE50A2408F81B
:105AC300E50B3400F922125ACD22E08508828509BC
:105AD30083A322850A82850B83A3A3125B36E0F995
:105AE300EA22E0F8E50A28F582E50B125D44228AF2
:105AF300828B831264521215A822AE82AF83E0F820
:105B0300E50A28F8E50B3400F922125B49A3A3A3A5
:105B1300E022124EAFE8125B42A3A3E022A3A3A3A9
:105B2300A3A3A3A3A3A3125B42125B36A3A3E0F92F
