:020000040000FA
:0600000002124A0207B4DF
:03002B000210813F
:03003300020E01B9
:03004300020F1D8C
:030053000206E5BD
:03006B00020DE79C
:100083000207490101FF01010503010F10FEFFB241
:100093001AB21AB21AB21A6E196819B21A0E3600C7
:1000A3000000004A35000000000C0000000C0001B5
:1000B30004FFFF414C44323533302044485431313E
:1000C300000102007605000000E905640002020059
:1000D300080000050207051E02051E020A0A03B8EE
:1000E3000B02803E01023412141F00E007965118E0
:1000F3000002020630313233343536373839414263
:100103004344454600286E756C6C20706F696E74AD
:10011300657229003F3F3F000000807F0000803F61
:10012300F9021550B743BA510000204100E7DB2E16
:100133000000A04010000000080000000A000000BA
:100143001212966046121269603DE9687008F6184B
:10015300F618F618F622748067F712017709090971
:10016300748067F722121269601D121296700519C6
:100173001919801A12111D701F121132C37003E670
:10018300673319191940071818182208080874FF4B
:10019300F618F618F618F62212113260171212D555
:1001A300702192F01212DF7019501720F014080812
:1001B30008090909E7F61819E7F61819E7F61819EF
:1001C300E7F6221212DF60E6E869701F0808E624EA
:1001D30080F608E436F618547FB47F0CE65480604A
:1001E30007F6E418F618F622181822E9C6CC08C652
:1001F300CD08C6CE08C6CFC0E0E8C0E0EAC0E0EB59
:10020300C0E009E9F809E7FA09E7FBE6F918E6F8B7
:10021300C3EC98ED99EE9AEBC2E7F5F0EFC2E795E0
:10022300F0500E600CEBCFFBEACEFAE9CDF9E8CC47
:10023300F8EAA2E7D2E7FAEB33FB13F5F0EEA2E715
:10024300D2E7FEEF33FFC5F013A2E730E601B313A5
:10025300C5F0C3C0E0C0F07F00C39BFB605B941894
:10026300600C401AD0E023F9D0E0F80203468AF08C
:10027300E9486003D2F0E4AFF0FAF9F8803BEB30E1
:10028300E40D89F0EA6003D2F0E4AFF0F9CAF8EBC9
:1002930030E30D88F0EF6002D2F0AFF0E4CAC9F8A2
:1002A300EB54076014FBC3EA13FAE913F9E813F8F4
:1002B300EF135002D2E0FFDBEDD0E0C0E030E739CE
:1002C300C3E49FFFF5F0EC98FC42F0ED99FD42F09A
:1002D300EE9AFE42F0D0E0F9D0E0F8E5F0607AE97A
:1002E30023F9EE20E742D8028067C3EF33FFEC33F4
:1002F300FCED33FDEE33FE80EAEC28FCED39FDEE38
:100303003AFED0E023F9D0E0F84002801BC3EE139D
:10031300FEED13FDEC13FCEF135002D2E0FF08B81F
:1003230000067F7F74FF802EEF3350178CF020F090
:100333000260100CBC000C0DBD00080EBE000408CA
:10034300E860DFE933E813FFEE2313FE4F4D4C80E3
:1003530008E95480FFE4FEFDFCEE33EF33F4700450
:10036300FCFD7E80D0E0FBD0E0FAD0E0F8D0E0CF17
:10037300C618CEC618CDC618CCC6F922121269709B
:100383000418181822121296700D74FFF61819F635
:100393001819F61819F622E7548066F61212DF7060
:1003A3000F1212D570F014F608F608F608F680D18D
:1003B3001212D5700CF608F608768008E6447F80A2
:1003C300EC121135700C12112060BFE65480F6E474
:1003D30080BB121120700519191980A5E869700CEA
:1003E300763F18768018F618F6E8F922E6CDC0E0D5
:1003F30018ECC0E0E633CD33CDD313F6E719FCE7B1
:10040300191933CC33C3947F400ECD9D502408E695
:100413005480F6E418F6800FF4043D14501408E6F3
:10042300447FF6187680E418F618F6D0E0FCD0E0A6
:10043300FD22CCD313CCFD18E4C6CBC0E018E4C630
:10044300CAC0E00808ED08C633E613F618E433C65D
:1004530075F003C3CA97CA09CB97CB199C40047D97
:1004630008802EBD000302052816B6FF0506060800
:100473001618C3CA33CACB33CB33CA27CA09CB37FF
:10048300CB193CC37D08803E187D0820E75CC6334A
:10049300C6CA33CACB33CB33DDF1D5F0EB30E77BC0
:1004A300CA97CA09CB974ACB199C406F4B7025E674
:1004B30020E0218066187D08C3CA97CA09CB97CB71
:1004C300199CD3C633C6CA33CACB33CB3350C9DD29
:1004D300E7D5F0E1D3E4C636C608C636C608C63645
:1004E300C608C636C61818188031C3CA97CA09CBBE
:1004F30097CB199CB34097C633C6CA33CACB33CB09
:1005030033DD34D5F02EC6A2E0C640C8CA27CA09D7
:10051300CB37194A70BECB3CB480B90808E6330820
:10052300E633601F181818D0E0FAD0E0FBD0E0FCE7
:10053300D0E0FD22187D08CA27CA09CB37CB193C66
:10054300D3808013F618E4B67F11F618B6FF0EF6C3
:1005530018C60470D20808768080CAF618F618F612
:1005630080C500121269604F1212966012E7548020
:1005730066F612111D70111212D5703B090909F4A8
:10058300F618F618F618F62212113270151212DF49
:1005930008080860EAE6447FF618768018E4F6183F
:1005A300F6221212DF60161212D57012E4F608F664
:1005B30008F608E65480F609090918181822EAC053
:1005C300E0EBC0E0ECC0E0EDC0E0E687F0A4FBACFC
:1005D300F008E687F0A42CFCE435F0FA1809E68766
:1005E300F0A42C4B60027401CA35F0FCE433FB0920
:1005F300E687F0D2F7A42CCB35F0FC1908E687F098
:10060300A42BCC35F0FBE433FD0819E687F0D2E7E1
:10061300A42C4ACB35F0CD3400FC09E687F0D2E7B1
:10062300A42DCC35F0FDE433FA0918E687F0D2F7B0
:10063300A42CCD35F0CA3400FC08E687F0D2E7D20B
:10064300F7A42ACC35F07A7E20E70B0ACB33CBCD47
:1006530033CDCC33CC33CB3350147004ED30E00EB8
:10066300D2F1E4CD3DCDCC3CCC3B5005DA05C2F113
:10067300EB547FC63308E63392F0FBE73309E733E5
:10068300C39A502D2B70190C0D4C4D70151806E69E
:1006930008C333700D20F10AA2F013F6E418800B9F
:1006A3004024E4F630F002768018F618F618F68047
:1006B30024D33B14501074FFA2F013F6187680E491
:1006C30018F618F6800FA2F013F618E63303F6189F
:1006D300ECF618EDF6D0E0FDD0E0FCD0E0FBD0E086
:1006E300FA22C0E074F2120AD4A2AFE433FED2AF0E
:1006F300E5A7FFE5A1F5085F541060061222927585
:10070300A1EFE5085F5408600812229875A1F780ED
:100713002BEFA2E0C0D0E508A2E092F01211A815D9
:100723008182F05017906198E0F8900AC7E0C3986F
:10073300A2D265D0335002E8F075A1FEEEA2E0929A
:10074300AF7F01020B33C0E074F2120AD4A2AFE40C
:1007530033FED2AF9061A4E0F8759B00E591585445
:100763000860087591F71222E0802AE59158541029
:1007730060087591EF1222E6801BE8A2E0C0D0E585
:1007830091A2E092F01211A8158182F05007E0C205
:10079300E0F012242A9061A3E0F8E5E958540460DC
:1007A3000E12240075E9FB906193E0A2E640F2800B
:1007B3008BC0E074F2120AD4A2AFE433FED2AF903E
:1007C30061A5E0F8E5BF585404600675BFFB122429
:1007D3004202073FC3E498F8E499F9120818802607
:1007E300C3E49AFAE49BFBE920E7E9120818E498CA
:1007F300F8E499F922C3E498F8E499F9120818E4A3
:1008030098F8E499F9C3E49AFAE49BFB22EB20E716
:10081300CFE920E7E0B90010BB0008E88AF084F8CC
:10082300AAF022E4FBC8FA22EB70227B10C833C87B
:10083300C933C9335007C39AC3DBF280069A500108
:100843002ADBEAC833F4C8C933F4C9FA2275F008BD
:10085300E4C833C8C933C933C99AC99B5004C92AE8
:10086300C93BD5F0ECFBC833F4C8E4C9FA2212083B
:10087300B120F01430E72B74FFFCFBFA747F802265
:10088300E4FCFBFA7480801AB48008BC00F2BB005D
:10089300EF800F50EBF9E4C39AFAE49BFBE49CFC72
:1008A300E499C6CC18C6CB18C6CA18C6F922E4C93F
:1008B300C608CAC608CBC6D3330308CCC63392F0E6
:1008C300C3947F402E94184019C9B90704CACBCCEE
:1008D300225025C309CA33CACB33CBCC33CC33D94B
:1008E300F422F4600DC9CCC313CB13CBCA13CAD9FA
:1008F300F6CC22E4FCFBFA2214FCFBFA22080808DB
:10090300EAC0E0EBC0E086F0E7A4FA180986F0E756
:10091300A42AFA180986F0E7A42AFA180986F0E748
:10092300A42AFA1986F0E7A4FBE5F02AFA19088647
:10093300F0E7A42BFBE5F03AFA190886F0E7A42BBD
:10094300FBE5F03AFA18180986F0E7A4C5F02BFB8B
:10095300E43AFA1908E7C5F0C6A426F6E5F03BFB2E
:10096300E43AFA1886F0E7A4F6E5F00826F6E43B45
:1009730008F6E43A08F6D0E0FBD0E0FA22080808CB
:10098300E630E71112115B120998080808C6448083
:10099300C618181822181818E9799EC608CAC60876
:1009A300CBC608CCC6C370207996CACBCC70197954
:1009B3008ECBCC70137986CC700EF9802ACA33CAD9
:1009C300CB33CBCC33CC331930E7F2CCCBCA335057
:1009D300147004EA30E00DE4CA3ACACB3BCBCC3CFA
:1009E300CC500209C3E913C6CC182313C6CB18C6CF
:1009F300CA18C6F922E4CFC0E0E4CEC0E0E4CDC01B
:100A0300E0E4CCC0E075F020C3E633F608E633F645
:100A130008E633F608E633F6181818EC33FCED3322
:100A2300FDEE33FEEF33FFC3EC9709ED9709EE9725
:100A330009EF97191919400FFFEC97FC09ED97FD82
:100A430009EE97FE191906D5F0BEECF709EDF70983
:100A5300EEF709EFF7191919D0E0FCD0E0FDD0E06B
:100A6300FED0E0FF222518C582C0E0E51934FFC59A
:100A730083C0E0E518C3958224F810AF0885831975
:100A83008582188008858319858218D2AFCEF0A39A
:100A9300E520F0A37808E608F0A3DEFAEFF0A3E57B
:100AA3008124FAF8E608F0A3E608F0A3E608F0A329
:100AB3000808E608F0A3E608F0A315811581D0E045
:100AC300FED0E0F8158115811581E8C0E0EEC0E0A5
:100AD30022C0D02518C582C0E0E51934FFC583C004
:100AE300E0E518C3958224F310AF08858319858246
:100AF300188008858319858218D2AFC8F0A3E9F05E
:100B0300A3EAF0A3EBF0A37908E709F0A3D8FAEC82
:100B1300F0A3EDF0A3EEF0A3EFF0A3D0E0F0A3D0A9
:100B2300E0F0A3D0E0F0A3E520F0A3E5F0F0A322EA
:100B3300851983851882E0C0E0A3E0F9A3E0FAA356
:100B4300E0FBA37808E0F608A3DFFAE0FCA3E0FDEE
:100B5300A3E0FEA3E0FFA3E0C0E0A3E0C0E0A3E0C6
:100B6300F5D0A3E0F520A3E0A3F5F010AF0885834B
:100B7300198582188008858319858218D2AFD0829F
:100B8300D083D0E0F8D0E0321212CAB90003020BCE
:100B9300CDE4900301788E790E8002F0A3D8FCD9BE
:100BA300FA90108EAA82AB8390008678BE7901807A
:100BB30015E493A3AC82AD838A828B83F0A3AA82CC
:100BC300AB838C828D83D8E9D9E77582A27583FCC8
:100BD3007401120FE07582487583277400120FE0C9
:100BE3000975F0108E1A8F1B85821F85831E851849
:100BF30082851983E0CEA3E0CF851F82851E83EB18
:100C0300C9EAC8EDCBECCAC3E833C8E933C9EA3350
:100C1300CAEB33CBC3EA9EF51DEB9FF51CB350041F
:100C2300AB1CAA1DEC33CCED33CDD5F0DAAE1AAF45
:100C33001B22121269601C12129660171212DF70C7
:100C4300071212D57001D322C0D01212D57006D06C
:100C5300D0B322C32233D0D0501430E0F6C3E7968A
:100C63000809E7960809E7960809E796B32220E002
:100C7300D5E6970809E6970809E6970809E697B3C2
:100C830022D083D082ECC0E0EDC0E0E493A3FCE487
:100C930093A3FDED4C600D120DA8EC24FFFCED3485
:100CA300FFFD80EFE493A3FCE493A3FDED4C600D03
:100CB300120EA2EC24FFFCED34FFFD80EFD0E0FD2B
:100CC300D0E0FCE493A3C0E0E493C0E022121269F5
:100CD300601B12129660161212DF70071212D56093
:100CE3000CB322C0D01212D57005D0D022C3223348
:100CF300D0D0501330E0EBC3E7960809E796080914
:100D0300E7960809E7962220E0E4E6970809E697C4
:100D13000809E6970809E69722851983851882E072
:100D2300A3FEE0A3F5207808E0A3F608DFFAE0A32A
:100D3300FFE0A3C0E0E0A3C0E0E0A3C0E0E0A3C005
:100D4300E0E0A3C0E010AF0885821885831980080E
:100D5300858218858319D2AFD083D082020FE6D063
:100D630083D082E9C0E0E493A3C386F0C5F095F095
:100D7300F908E493A386F0C5F095F0700BE493A310
:100D8300C3994005E9048002A3E475F002A4258217
:100D9300F582E5F03583F583D0E0F9E493A3C0E071
:100DA300E493C0E022C0E0C3E493960874019396F1
:100DB30018400FE493667008087401936618700076
:100DC3007019A3A3C3E49396087401939618A3A37D
:100DD300400DD0E0D0E0D0E0020CC0A3A3A3A3A3B6
:100DE300A3D0E022C0E074F2120AD4E589A2E15054
:100DF30003122142758900C2C57F01020B33C0E093
:100E030074F2120AD4E58BA2E05003122142758BCF
:100E130000C2E880E47404800474028000CCC0E063
:100E2300EDC0E0E518C39CCCAD1950011D10AF0611
:100E33008C188D1980068C188D19D2AF120F62D0C1
:100E4300E0FDD0E0FC2274028000CCC0E0EDC0E005
:100E5300E518C39CCCAD1950011D10AF068C188D3D
:100E63001980068C188D19D2AF120F40D0E0FDD037
:100E7300E0FC22121269602512129660201212DF22
:100E830070030212D5080808E76670101819E766A0
:100E9300700A1819E76670041819E76622F422C06D
:100EA300E0C0F088F0E49366700808740193661854
:100EB3007000A8F0A3A3700BD0F0D0E0D0E0D0E096
:100EC300020CC0A3A3D0F0D0E022D083D082CCC048
:100ED300E0E493A36006120FC11470FAE493A360D5
:100EE300061210C81470FAD0E0FCE493A3C0E0E447
:100EF30093C0E022C008C3E096F50808A3E0964239
:100F03000808A3E096420808A3E0964208A2D26527
:100F1300D033E5087001D3D00822C0E074F2120A7E
:100F2300D4A2AFE433FED2AFC2C0E5D1A2E45003F2
:100F3300122208EEA2E092AF7F01020B33CAC0E097
:100F4300E493A3C582CCC582C583CDC583F0A3C575
:100F530082CCC582C583CDC583DAE5D0E0CA22CA77
:100F6300C0E0E0A3C582CCC582C583CDC583F0A311
:100F7300C582CCC582C583CDC583DAE6D0E0CA225B
:100F8300C008C3E096F50808A3E096420808A3E06A
:100F930096420808A3E09645087001D3D008227052
:100FA30009080808226016181818C6C333C608C6ED
:100FB30033C608C633C608C633C6D5E0EA22C0E046
:100FC300E493A3D39C5010E493A3C39C400AD0E0C2
:100FD300D0E0D0E0020EEAA3A3A3D0E022C09FF5A5
:100FE3009FE473D09F22D083D082C09FE493C0E05C
:100FF300740193C0E0740293F59F222518F58210C3
:10100300AF08F518400215198008F51840021519A4
:10101300D2AF851983227404800A74038006740294
:1010230080027401C0E0F404120FFED0E01212A596
:1010330022C0D0251810AF08F518500205198008F2
:10104300F51850020519D2AFD0D022BB0102E72216
:10105300C082C08389828A83BB0003E08002E49359
:10106300D083D082226016080808C6C313C618C6E8
:1010730013C618C613C618C613C6D5E0EA22C0E0C5
:10108300C0D0E8C0E0E5A8D2AFC2C7A2E792AFD014
:10109300E0F8D0D0D0E032C3E0C696F608A3E0C6AD
:1010A30096F608A3E0C696F608A3E0C696F62225B0
:1010B3001810AF08F518400215198008F5184002FA
:1010C3001519D2AF22C0E0E493A36C7009D0E0D02D
:1010D300E0D0E0020EEAA3A3D0E022C3E09608A387
:1010E300E09608A3E09608A3E096A2D265D0332247
:1010F300E066701008A3E066700A08A3E066700457
:1011030008A3E06622E76670100809E766700A081C
:1011130009E76670040809E76622181818E6084606
:1011230008700AE608C3337005E633F4220822196F
:101133001919E7094709700AE709C3337005E7334B
:10114300F4220922C3E096F008A3E096F008A3E096
:1011530096F008A3E096F022181818E4C396F60850
:10116300E496F608E496F608E496F622E026F608F6
:10117300A3E036F608A3E036F608A3E036F622E04D
:1011830026F008A3E036F008A3E036F008A3E03623
:10119300F022E627F60809E637F60809E637F608E7
:1011A30009E637F622C0E0E8C0E0E58124FCF8E672
:1011B300A2E7D0E0F8D0E022E657F60809E657F6B2
:1011C3000809E657F60809E657F622E056F008A3A1
:1011D300E056F008A3E056F008A3E056F0227004AE
:1011E30022600D18C6C333C608C633C6D5E0F4184B
:1011F30022E647F60809E647F60809E647F608092E
:10120300E647F622E056F608A3E056F608A3E056B2
:10121300F608A3E056F622C6F4C608C6F4C608C606
:10122300F4C608C6F4C622C3E09608A3E09608A352
:10123300E09608A3E09622C3E7960809E796080913
:10124300E7960809E7962275D00075814075180165
:1012530075190300020B8BE6F008A3E6F008A3E67A
:10126300F008A3E6F022E6084608C31346083360F5
:1012730002E633F422600C08C6C313C618C613C6AD
:10128300D5E0F422E0F608A3E0F608A3E0F608A30D
:10129300E0F622E7094709C3134709336002E7333E
:1012A300F422CAC0E0E6F0A308DAFAD0E0FA22EAB0
:1012B300F0A3EBF0A3ECF0A3EDF022E0FAA3E0FB44
:1012C300A3E0FCA3E0FD22E5C754F84401F5C77988
:1012D3000122E7C33319471947194722E6C33318D5
:1012E3004618461846222518F582E43519F5832257
:1012F300C2AF75D69F02000022120FE9823A001294
:101303000FE9BD3A00120FE9013B00120FE9283B38
:1013130000120FE9793B00120FE9293C00120FE993
:10132300E13C00120FE9A93D00120FE9693E0012EA
:101333000FE9AD3E00120FE9D23E00120FE9153F4F
:1013430000120FE9623F00120FE9BA4000120FE9E1
:10135300404100120FE95E4100120FE9884100127B
:101363000FE9A24100120FE9B14100120FE9BC419C
:1013730000120FE97C4200120FE9D54200120FE977
:10138300974300120FE99F4300120FE963440012D1
:101393000FE9CF4400120FE9FA4500120FE91F4687
:1013A30000120FE9954600120FE9274700120FE9D3
:1013B300E74700120FE9064800120FE9154900122A
:1013C3000FE9274900120FE9974900120FE9C149B4
:1013D30000120FE94F4A00120FE9884A00120FE981
:1013E300D44A00120FE9F04B00120FE9394E0012F4
:1013F3000FE9444E00120FE94F4E00120FE95A4E07
:1014030000120FE9644E00120FE96F4E00120FE94C
:10141300894E00120FE9934E00120FE99D4E001200
:101423000FE9A84E00120FE9D04E00120FE92B4F1F
:1014330000120FE9354F00120FE9594F00120FE95F
:101443007D4F00120FE9DB4F00120FE91F5000120E
:101453000FE93B5000120FE9B25000120FE9EA50B6
:1014630000120FE9365100120FE9935100120FE9F0
:101473004D5200120FE9315400120FE98A54001241
:101483000FE9BA5500120FE9E05500120FE9695749
:1014930000120FE9E55A00120FE9B75C00120FE9D9
:1014A300805E00120FE92D5F00120FE998600012B1
:1014B3000FE9376100120FE97C6100120FE9E66161
:1014C30000120FE9F56100120FE97C6400120FE9C5
:1014D3002E6600120FE99B6600120FE97A6700126D
:1014E3000FE9936800120FE9106A00120FE92F6ADF
:1014F30000120FE9846A00120FE9896B00120FE9E9
:10150300B16B00120FE9096C00120FE9E86C0012CD
:101513000FE92C6D00120FE9776D00120FE9E26DF0
:1015230000120FE9236F00120FE9876F00120FE912
:10153300D57000120FE9357300120FE966730012BC
:101543000FE91E7500120FE9737500120FE9777624
:1015530000120FE9147700120FE96D7700120FE9FB
:10156300207800120FE9C27800120FE962790012A5
:101573000FE9077A00120FE9D48101120FE91382F0
:1015830001120FE95A8401120FE9A48401120FE931
:10159300BF8501120FE9278601120FE95C8601124C
:1015A3000FE9D08701120FE9538A01120FE97C8BEF
:1015B30001120FE9128C01120FE91A9501120FE9BA
:1015C300AF9501120FE9969801120FE9899901125B
:1015D3000FE9F79901120FE93D9B01120FE91F9CD7
:1015E30001120FE9049E01120FE915A001120FE980
:1015F3007FA001120FE951A101120FE97FA101128E
:101603000FE93CA201120FE913A301120FE9DAA3B8
:1016130001120FE97EA401120FE9A7A401120FE939
:10162300C9A401120FE91FA701120FE9F7A70112BD
:101633000FE93BA801120FE9A3A801120FE95BA967
:1016430001120FE98DA901120FE9D1A901120FE9C6
:1016530007AA01120FE953AA01120FE9A8AA01125E
:101663000FE9ADAA01120FE900AB01120FE925AB97
:1016730001120FE934AC01120FE998AC01120FE922
:1016830008AD01120FE994AD01120FE961B0011227
:101693000FE945B101120FE9C8B201120FE9FEB417
:1016A30001120FE9ACB501120FE95CB601120FE9A3
:1016B3009DB801120FE940B901120FE987B9011270
:1016C3000FE933BB01120FE947BB01120FE951BB0D
:1016D30001120FE979BB01120FE985BB01120FE972
:1016E300A4BB01120FE9C4BD01120FE913BF01121C
:1016F3000FE957BF01120FE9FFBF01120FE9E2C063
:1017030001120FE98DC101120FE9D9C201120FE9CC
:10171300D7C301120FE97DC401120FE90DC50112F0
:101723000FE924C501120FE95BC501120FE965C575
:1017330001120FE970C501120FE98EC501120FE9FD
:10174300D2C501120FE92FC601120FE954C60112C7
:101753000FE96EC601120FE9FAC601120FE917C8A5
:1017630001120FE984C801120FE96BC901120FE9D5
:1017730092C901120FE906CA01120FE981CA0112C7
:101783000FE985CB01120FE97BCC01120FE92ACDBA
:1017930001120FE93DCE01120FE9D9CE01120FE973
:1017A30066CF01120FE944D001120FE97CD0011278
:1017B3000FE9D4D001120FE99DD101120FE9BED177
:1017C30001120FE945D201120FE969D201120FE9A3
:1017D3008BD201120FE9D4D201120FE9EAD401121C
:1017E3000FE9D1D501120FE982D601120FE9B8D85A
:1017F30001120FE908D901120FE948D901120FE9C3
:101803008AD901120FE9E6D901120FE914DA01129C
:101813000FE938DA01120FE98BDA01120FE9B9DAAD
:1018230001120FE9F2DA01120FE947DB01120FE9A6
:10183300ADDB01120FE901DD01120FE924DF011213
:101843000FE991DF01120FE9BADF01120FE945E059
:1018530001120FE9ACE001120FE9F7E001120FE901
:101863001BE101120FE93FE101120FE99AE10112B5
:101873000FE9B5E101120FE96EE201120FE90BA2C4
:1018830004120FE94AA204120FE9788002120FE949
:10189300BE8002120FE99E8102120FE9A08202129A
:1018A3000FE9A38302120FE92F8502120FE98D8539
:1018B30002120FE94A8602120FE9688702120FE942
:1018C300D98702120FE9158802120FE96388021201
:1018D3000FE96D8802120FE9B18802120FE90D8931
:1018E30002120FE9A88902120FE9258A02120FE9F1
:1018F300F48A02120FE98D8B02120FE9AD8B0212EB
:101903000FE9E38B02120FE9148C02120FE9D58C55
:1019130002120FE9E58C02120FE9398D02120FE969
:10192300548D02120FE9668D02120FE96F8D0212B8
:101933000FE9C98D02120FE9258E02120FE9718E8C
:1019430002120FE98C8E02120FE9BD8E02120FE90B
:10195300DA8E02120FE9E68E02120FE95A90021292
:101963000FE9739002120FE9DA9002120FE9ED907A
:1019730002120FE9FB9002120FE9AF9102120FE975
:10198300939202120FE9999302120FE92394021220
:101993000FE92D9402120FE99A9402120FE9B19400
:1019A30002120FE9E39402120FE91C9502120FE9E8
:1019B300469502120FE9A79502120FE9C795021285
:1019C3000FE9E59502120FE92B9602120FE95197E1
:1019D30002120FE99E9702120FE9CD9702120FE947
:1019E300439802120FE96B9802120FE9A4980212AE
:1019F3000FE9B29802120FE90A9902120FE95999F5
:101A030002120FE9989902120FE9C89902120FE91D
:101A1300F49902120FE9FF9902120FE91D9A0212BB
:101A23000FE9DF9A02120FE9E99A02120FE92A9BE2
:101A330002120FE97F9B02120FE9939B02120FE937
:101A4300A19C02120FE9B49C02120FE9C99C021275
:101A53000FE96B9D02120FE9EE9D02120FE9AC9E96
:101A630002120FE9B79E02120FE9E39F02120FE978
:101A7300FF9F02120FE951A002120FE990A0021278
:101A83000FE9A5A002120FE907A102120FE996A11F
:101A930002120FE9E1A102120FE932A402120FE9C7
:101AA300B0A402120FE925A502120FE947A70212FB
:101AB3000FE95FA702120FE962A702120FE96EA7EF
:101AC30002120FE982A702120FE98AA702120FE995
:101AD300BDA702120FE96DA802120FE9E3A80212D3
:101AE3000FE956A902120FE90AAA02120FE9BFAAC7
:101AF30002120FE9DEAA02120FE984AB02120FE908
:101B0300AFAB02120FE9B2AB02120FE91CAC021227
:101B13000FE944AD02120FE91CAE02120FE9A7AEA2
:101B230002120FE9C0AF02120FE97DB002120FE9F2
:101B3300B6B002120FE9E7B002120FE9A5B1021223
:101B43000FE9D5B102120FE9B0B202120FE949B39E
:101B530002120FE9D4B302120FE985B402120FE99E
:101B630008B502120FE93AB502120FE97BB502126A
:101B73000FE9B6B703120FE91BB803120FE958B800
:101B830003120FE9A7B803120FE9BDBA03120FE955
:101B9300A0BC03120FE90AC003120FE945C00312E8
:101BA3000FE967C003120FE9CAC003120FE9FEC0B1
:101BB30003120FE921C103120FE94EC103120FE90A
:101BC300AAC103120FE9F1AB03120FE96FAC0312C1
:101BD3000FE9A5AC03120FE911AD03120FE984AEAF
:101BE30003120FE9A0AE03120FE9E5AE03120FE9EA
:101BF30073AF03120FE9CCAF03120FE9F9B003126D
:101C03000FE90BB203120FE968B203120FE9D4B262
:101C130003120FE935B303120FE976B303120FE989
:101C230023B403120FE935B503120FE960B50312AC
:101C33000FE9ABB503120FE9F2B503120FE984B64E
:101C430003120FE9B9E002120FE9179504120FE925
:101C5300479504120FE99C9504120FE9E5860412D7
:101C63000FE9608704120FE96B8704120FE98C8771
:101C730004120FE9F6C103120FE900C203120FE9C0
:101C83004CC203120FE9BAC203120FE9DBC20312FB
:101C93000FE98BC303120FE91FC603120FE928C60E
:101CA30003120FE97BC603120FE9A4C603120FE95F
:101CB3000BC703120FE99CC703120FE9DEC7031218
:101CC3000FE95C3A00120FE987C803120FE9B3C8A2
:101CD30003120FE944C903120FE983C903120FE981
:101CE300C2C903120FE9F7C903120FE909CA0312A4
:101CF3000FE91BCA03120FE93ACA03120FE943CAD9
:101D030003120FE9F9CA03120FE939CB03120FE9E2
:101D130009FF02120FE9049104120FE93A91041228
:101D23000FE9839104120FE9D39204120FE98AE6B3
:101D330002120FE9C9E702120FE905E802120FE9DF
:101D4300C4E902120FE9EDE902120FE980EC021275
:101D53000FE9C4EC02120FE94DEE02120FE9E5EEB2
:101D630002120FE94DEF02120FE9EEEF02120FE933
:101D730030F002120FE970F002120FE9FBF10212C8
:101D83000FE96BF302120FE990F502120FE9BEF5AA
:101D930002120FE9E5F502120FE9EEF502120FE95F
:101DA30075F602120FE993F902120FE927A3041241
:101DB3000FE93DA304120FE9C0A104120FE98083C8
:101DC30004120FE9938304120FE9308404120FE91C
:101DD3006B8404120FE9868404120FE9AB840412A6
:101DE3000FE9F08404120FE9218504120FE95285EB
:101DF30004120FE9D88604120FE9E59904120FE9DA
:101E03001B9A04120FE9379A04120FE9799A041204
:101E13000FE9899A04120FE91E9B04120FE9289B0C
:101E230004120FE9409B04120FE9537A00120FE9E1
:101E3300127B00120FE9C27B00120FE9077C00122C
:101E43000FE9857C00120FE9FB7C00120FE91F7F6D
:101E530000120FE94C7F00120FE9CA9E03120FE92B
:101E63001F9F03120FE908A003120FE9A1A0031299
:101E73000FE9EBA003120FE948A103120FE95CA1DC
:101E830003120FE98EA103120FE98CA203120FE9CB
:101E9300D0A203120FE9EBA203120FE93AA3031234
:101EA3000FE950A303120FE95DA303120FE991A3F6
:101EB30003120FE9AAA303120FE974A403120FE993
:101EC300CEA403120FE91CA503120FE93EA50312CA
:101ED3000FE9B5A703120FE9EAA703120FE97AA8DE
:101EE30003120FE9EFA803120FE9F4A803120FE995
:101EF30030A903120FE986A903120FE94AAA0312B4
:101F03000FE96FAA03120FE979AA03120FE97CAA5A
:101F130003120FE905AB03120FE920AB03120FE91C
:101F230033AB03120FE96EAB03120FE971AB03126C
:101F33000FE97CAB03120FE9B8AB03120FE973A1EE
:101F430004120FE98BA104120FE951DD03120FE90B
:101F5300A0DD03120FE942DF03120FE900E10312D0
:101F63000FE948E103120FE96AE203120FE99BE369
:101F730003120FE9BDE303120FE919E403120FE99A
:101F83009BE403120FE9A8E201120FE9C9E201126F
:101F93000FE953E301120FE9D8E301120FE954E407
:101FA30001120FE9BDE401120FE909E501120FE97E
:101FB30088E501120FE91AE601120FE9A6E60112FC
:101FC3000FE9E8E601120FE954EB01120FE9D4EC33
:101FD30001120FE9AAED01120FE9D9ED01120FE980
:101FE300C4EF01120FE944F201120FE9FDF20112ED
:101FF3000FE91AF401120FE971F701120FE981F7E2
:1020030001120FE9E2F801120FE96EF901120FE96B
:1020130097FA01120FE988FB01120FE90AFC01127A
:102023000FE94F9003120FE9099103120FE97B9116
:1020330003120FE9179203120FE9879203120FE9B4
:10204300409503120FE9179603120FE984960312C2
:102053000FE9019803120FE9CB9803120FE93B999B
:1020630003120FE9049B03120FE9179C03120FE9F4
:10207300B09C03120FE9769D03120FE9BEF603121B
:102083000FE912F703120FE96AF703120FE9B5F725
:1020930003120FE917F803120FE983F803120FE98C
:1020A30036F903120FE977F903120FE98DF90312D9
:1020B3000FE9E9F903120FE927FA03120FE936933F
:1020C30004120FE9679304120FE9219404120FE934
:1020D300879404120FE92DFD01120FE9B9FE0112D5
:1020E3000FE9D4A204120FE9E5A204120FE9CC967A
:1020F30004120FE9DA9604120FE965A304120FE93B
:10210300DDA004120FE9EDA004120FE908A10412E7
:102113000FE969A104120FE99B9E04120FE9209FA6
:1021230004120FE9849F04120FE9899D04120FE939
:10213300AB9D04120FE9159E04120FE9209E0412B1
:102143000FE9649E04120FE99ED403120FE9ACD485
:1021530003120FE9EDD403120FE90ED503120FE9B1
:102163008BD503120FE98BD603120FE9ADD60312F9
:102173000FE910D703120FE92BD703120FE946D744
:1021830003120FE950D703120FE95AD703120FE9CD
:102193006DD703120FE986D703120FE922D8031272
:1021A3000FE9DED803120FE95ED903120FE9D8D97C
:1021B30003120FE924DA03120FE9CBDA03120FE952
:1021C300A7DB03120FE958FA03120FE966FA0312A9
:1021D3000FE9E0FA03120FE9C4FB03120FE97DFDD7
:1021E30003120FE9DCFF02120FE914FA02120FE9DE
:1021F30080FA02120FE93FFB02120FE949FC0212B7
:102203000FE9A2FD02120FE9FDFD02120FE952FED2
:1022130002120FE95BFE02120FE96DFE02120FE9D3
:10222300D7FE02120FE9EBFE02120FE9F5FE0212CE
:102233000FE98CE903120FE9E1E903120FE9DDEB82
:1022430003120FE90FEC03120FE931EC03120FE94C
:102253004AEC03120FE963EC03120FE96DED03126D
:102263000FE908EE03120FE9849804120FE9A89806
:1022730004120FE9C19804120FE9F49804120FE94C
:10228300259904120FE9539904120FE9B599041221
:102293000FE9C49904120FE9CE9904120FE9DB99EF
:1022A30004120FE9B18904120FE9D78904120FE967
:1022B300148A04120FE9238A04120FE9428A0412D2
:1022C3000FE9AA8A04120FE9B38A04120FE9128BE9
:1022D30004120FE9368B04120FE9F58B04120FE990
:1022E300028C04120FE9138C04120FE998A2041252
:1022F3000FE9B5A204120FE97FEE03120FE9DDEF38
:1023030003120FE9EAEF03120FE9FDEF03120FE9DE
:102313001CF003120FE932F003120FE946F0031227
:102323000FE9BBF003120FE920F103120FE9D0F11B
:1023330003120FE9A5F203120FE9B5F203120FE935
:10234300C4F203120FE9A49F04120FE9C89F0412F9
:102353000FE9F09F04120FE918A004120FE9418C52
:1023630004120FE9688C04120FE9898C04120FE937
:10237300EE8C04120FE9A78E04120FE9C08E04122B
:102383000FE9CC8E04120FE9E08E04120FE9FE8EE2
:1023930004120FE9088F04120FE9128F04120FE9D8
:1023A300258F04120FE9788F04120FE9B18F0412FD
:1023B3000FE9E08F04120FE92E9004120FE97D90CC
:1023C30004120FE9989004120FE9A29004120FE986
:1023D300B39004120FE9F99004120FE9777F00120A
:1023E3000FE962CB03120FE98CCB03120FE9A8CBE1
:1023F30003120FE9BBCB03120FE9D1CB03120FE991
:102403002ECC03120FE961CC03120FE99DD0031206
:102413000FE9C3D103120FE9F6D103120FE942D238
:1024230003120FE96ED303120FE996D303120FE9D8
:10243300ABD303120FE9BBD303120FE9FFD303128C
:102443000FE960D403120FE970D403120FE9439B21
:1024530004120FE95E9B04120FE9879B04120FE934
:10246300A19B04120FE9C69B04120FE9E59B04121A
:102473000FE9FD9B04120FE92B9C04120FE9459C05
:1024830004120FE954A204120FE9008004120FE9A9
:10249300078004120FE9138104120FE94381041228
:1024A3000FE9698104120FE98C8104120FE9AE81EF
:1024B30004120FE9E88104120FE94E8204120FE9B6
:1024C300878204120FE9D38204120FE900830412F6
:1024D3000FE9208304120FE9E2FD03120FE9FAFD6D
:1024E30003120FE9E8FE03120FE9C7FF03120FE916
:1024F300769C04120FE9E89C04120FE9269D04124E
:102503000FE9679D04120FE9FDF203120FE91CF3B3
:1025130003120FE96BF303120FE987F303120FE9B9
:10252300B8F303120FE9C5F303120FE9D2F3031251
:102533000FE9BEF403120FE9FCF403120FE90CF6E2
:1025430003120FE917F603120FE929F603120FE935
:1025530032F603120FE93CF603120FE9CFE403123C
:102563000FE914E903120FE922E903120FE9CAFF85
:1025730003120FE93DA004120FE967A004120FE94B
:10258300C87F00120FE9FFA204120FE947A3041248
:102593000FE9008003120FE91E8503120FE9D7DF4D
:1025A30002120FE9BBDF02120FE93FDF02120FE94C
:1025B300F6DE02120FE9AEDE02120FE9FCDD0212B3
:1025C3000FE96EDD02120FE961DD02120FE95BDA3A
:1025D30002120FE9BDD702120FE9433A00120FE9C5
:1025E300EF3900120FE986D602120FE9DAD502128B
:1025F3000FE94B3900120FE9C13800120FE920D45B
:1026030002120FE9D0D102120FE957D102120FE9DA
:10261300FED002120FE98ED002120FE965D002122A
:102623000FE945CE02120FE911CE02120FE9DECDFA
:1026330002120FE9C2CD02120FE9DBCC02120FE93D
:1026430093CC02120FE9DECA02120FE95ECA02122C
:102653000FE95BCA02120FE958C902120FE926C932
:1026630002120FE963C802120FE98EC602120FE9C4
:102673001FC602120FE9F1C502120FE960380012FA
:102683000FE90E3800120FE9FC3700120FE963E679
:1026930002120FE945E602120FE9EEC502120FE935
:1026A300DBC502120FE986C502120FE9FEE402122E
:1026B3000FE975C502120FE967C402120FE931C4AD
:1026C30002120FE9DFC302120FE95BE402120FE902
:1026D30028C803120FE980C302120FE94FC3021285
:1026E3000FE917C002120FE9D7BF02120FE9CBBFE0
:1026F30002120FE92BBF02120FE96BBE02120FE9A0
:10270300EDBB02120FE97EB902120FE93CB90212C6
:102713000FE910B802120FE9C5B702120FE904B7A7
:1027230002120FE9D7B602120FE91AB602120FE925
:10273300B0B502120FE9EAB502120FE90EE3021275
:102743000FE93FB70300000080FBE47300004FF87C
:10275300280802208410488800802FF821C042A056
:1027630042A0849088880080220822482248224878
:10277300FA4822482248224822483A48E248024876
:102783000208040804000200FFF8020002007FF0C0
:1027930042104210421042104210427002000200E6
:1027A30004000200FFF8800884080400FFF80840D2
:1027B30010403C80030004C01820E0100110FCA06E
:1027C300480049F07840484048407BF8484048403A
:1027D3005CA0E8A009100A08108027F8408097F051
:1027E3001550255067F0A00027F0210020902A887B
:1027F3002A2831E000200D2070A010A01220FD2017
:10280300112030383BE0542090201020102010205D
:10281300208020802080F7F02080208027E0322055
:10282300E2202140208021402220EC1800003FF8C4
:102833002108210821083FF8210821083FF8210831
:102843002108410841088038020001003FF82008B0
:10285300200820083FF82008200020002000400026
:102863004000800001207D40049028A010402FA04C
:1028730040189FC0104010401FC010400880FFF850
:1028830000007FE000203FE00020FFF8020022204C
:1028930013400A8012402220C2180E00210021108A
:1028A3002110F920A940A900ABF8A940A940A9200B
:1028B300B9202150218821003FE0202020203FE043
:1028C30000000000FFF8080010003FE00020002097
:1028D300002000C00200FFF8800804405290510815
:1028E30092280FE03000C200222022203FE0002087
:1028F300000007E0F8202220222042207BF8C808AD
:1029030048084FE84808780848080030010001F0FB
:10291300FA10242023F842487A48CBF84A484A4818
:102923004BF87A484248041804000200FFF8800874
:1029330000003FE002000200220023E02200220008
:1029430052008FF80000FC004BF049107910491039
:10295300491078A048A04E40F84008A009100A0882
:102963000080449022A0108007F08410441017F0D8
:102973001410241027F044104410047002000200C5
:102983007FF004000400FFF8080010003FE000207F
:1029930000401C8003000080088008800880889025
:1029A3004890489028A028A028C008800880088064
:1029B3000880FFF8020002007FF004000400FFF823
:1029C300080010003FE0002000401C80030000804E
:1029D30001004080200017F000808080408000804C
:1029E30017F010802080208040804FF800007FF097
:1029F3000200020002000200FFF8050005000900C2
:102A030011002108410880F820A02090488048F058
:102A1300F380108020B843C0F89000A0004818A8A5
:102A2300E318000847F0212020C007F00490E49049
:102A330027F02490249027F0249024B050008FF89E
:102A430040002FE0222002200220E2202FE022205B
:102A5300222022282A2832282218020840502048FF
:102A6300204007F8E44024482748255025502D20CE
:102A730035282B6808981108110010802FF82000C2
:102A830067F0A00027F0200027F024102410241062
:102A930027F024100400020000007FF00000000073
:102AA3000020202010401040088008800100FFF81B
:102AB30000003FE02020202020203FE00200020011
:102AC300220023F02200220052008FF81010101071
:102AD30028102490429080907C904490449044909D
:102AE3005810421042103E70201810E0FE804480BF
:102AF3002880FEF800901090FE90109054909290D1
:102B0300111072100080FE80108024F84310FE9094
:102B130012901090FEA010A010401EA0F110020809
:102B2300000047E02000200000000FF0E2402240B8
:102B3300224022482448283850008FF80000F3E050
:102B430012201220F3E0808087F08490F49017F035
:102B5300108010901FF860080200020002000200BB
:102B6300FFF80200050005000500088008801040FA
:102B73002020C0183FF82080210027F0241027F0E0
:102B8300241027F020802490248848884080838064
:102B930007E04420242007E08420442007E02000AD
:102BA3002FF04A504A508A508A501FF800004FF0C5
:102BB300281008108FF0481008102FF022405248B8
:102BC3004A50866082401FF8020001003FF824202B
:102BD3003FF8242027E020002FF0242022404180CA
:102BE300466098182100210041E09220F5402080A2
:102BF30041408220F418018000603300C0C00020EF
:102C0300204012481248FA4803F808008BF848801D
:102C130053F852A802A81AA8E2A80218000000005C
:102C23000000000000000000FFF8000000000000AA
:102C33000000000000000000000000007FF0000022
:102C43000000000000000000000000000000000081
:102C5300FFF8000000007FF000000000000000000B
:102C630000003FE000000000000000000000FFF84B
:102C730000007FF844884488448844884488448812
:102C830044884878500840087FF8400810801FF8AF
:102C9300100027F0241067F0A0002FF8280827F071
:102CA30020402040204021C0020002000200021008
:102CB3007B200B400A80128012402220421082089F
:102CC30002000E000200020002007FF042104210D8
:102CD3007FF0421042107FF042000208020801F820
:102CE30010407FF002003FE00400FFF808001FE0FF
:102CF30030205FE090201FE010201FE00200020060
:102D03000200221022102220454085000500088081
:102D1300088010402020C018103091C0D500B900A1
:102D23009100FDF89120B920D52095209120912084
:102D33008220FC2000007FF84008422853284AA83C
:102D4300444844484AA84AA8510862084008403801
:102D530020802080249024B0F5D02E9024902490BD
:102D6300249024B03480C408040803F82040204091
:102D730020402040FA402278224022402240224034
:102D83003A40E24002400FF8210021002100FBE01D
:102D930021202120212025302528292822202220F6
:102DA300242028C0400027F824880488E5E82488E4
:102DB30027F8240825E82D28352825E804080838AD
:102DC3007DF0451045107DF000400220FFF808809B
:102DD3003060C0187DF0451045107DF0008078808C
:102DE30048F049104AA0784010A053185C0051F0F5
:102DF30051105D10E1F001100200020002007FF0AB
:102E030042104210421042107FF042104210421012
:102E130042107FF0000000000000000000000000EE
:102E2300180018000000000018001800000000003F
:102E33006000900097E86818100810081000100050
:102E4300100010001008081007E000001800240804
:102E53002410242024402480190002600490089048
:102E630010902090409000600000000000000000DF
:102E730000000000000000001010101010100000EF
:102E83003030000000142850000000000000000053
:102E930000000000002828FC284850FC5050000087
:102EA30000001038545430181454543810000000E3
:102EB3000044A8A8B0541A2A2A44000000000020A5
:102EC300505060ACA898927C000000606020C00065
:102ED300000000000000000000040808101010109B
:102EE30010100808040000004020100804081020F7
:102EF300400000000000001010D63838D610100033
:102F03000000000000101010FE1010100000000060
:102F130000000000000000000000606020C000000E
:102F230000000000FC0000000000000000000000A2
:102F330000000000000060600000000204040408B8
:102F430008101020202040000000003048848484B2
:102F5300848448300000000000107010101010101E
:102F6300107C000000000038444404081020447C16
:102F730000000000003844441804044444380000AE
:102F83000000080818284848887C081C0000000036
:102F9300007C404078440444443800000000003C76
:102FA3004480B8C48484847800000000007C4448D2
:102FB3000810101010100000000000788484487876
:102FC300848484780000000000788484848C7404F2
:102FD30088F00000000000000030300000003030B6
:102FE300000000000000000010000000001010208E
:102FF3000000040810204020100804000000000016
:10300300000000FC0000FC00000000000000402065
:103013001008040810204000000000007884848415
:10302300081010003030000000000038449AAAAAAB
:10303300AAB4423C0000000000101028282838449D
:1030430044EE0000000000F844447844444444F84B
:1030530000000000003C44848080808044380000ED
:10306300000000F048444444444448F00000000099
:1030730000FC44404878484044FC0000000000FC49
:1030830042404878484040E000000000003C44844F
:1030930080808E8444380000000000EE4444447C69
:1030A300444444EE00000000007C10101010101087
:1030B300107C00000000007C101010101010101085
:1030C30090E0000000EE44485070484844EE000091
:1030D300000000E040404040404044FC000000004D
:1030E30000EE6C6C6C54545454D60000000000EE97
:1030F30064645454544C4CE4000000000030488491
:103103008484848448300000000000F844444478F8
:10311300404040E00000000000304884848484B4D0
:1031230048380C00000000F844447850484844E60E
:1031330000000000003C44402018040444780000D0
:10314300000000FE92101010101010380000000054
:1031530000EE44444444444444380000000000EE7C
:1031630044442828282810100000000000D6545496
:1031730054546C2828280000000000EE442828102E
:10318300282844EE0000000000EE44282810101008
:10319300103800000000007C88081020204044FC08
:1031A3000000001C101010101010101010101C0044
:1031B300007010101010101010101010700000701C
:1031C30010101010101010101010700000102800B4
:1031D30000000000000000000000000000000000EC
:1031E30000000000000000FE00606020C00000003E
:1031F30000000000000000000000000038441C2410
:10320300443E0000000000C04040784444444478F9
:1032130000000000000000003C444040443800002F
:103223000000000C04043C444444443E00000000FD
:103233000000000038447C40443800000000001CBB
:103243002420F82020202078000000000000000047
:103253003C48483040784438000000C0404058643F
:10326300444444EE000000000010000070101010F1
:10327300107C000000000008000038080808080857
:103283000870000000C040405C48507048EC0000EB
:1032930000000070101010101010107C00000000CF
:1032A30000000000F854545454D6000000000000FD
:1032B3000000D864444444EE000000000000000015
:1032C3003844444444380000000000000000F8443F
:1032D3004444447840E00000000000003C4444447F
:1032E300443C040E000000000000EC30202020F8D5
:1032F30000000000000000003C4430084478000057
:103303000000000010107C101010100C00000000D2
:1033130000000000CC444444443E00000000000090
:103323000000EE44282828100000000000000000E0
:10333300D654545428280000000000000000DC4844
:10334300303048EC0000000000000000EE44282864
:10335300101020E00000000000007C481010247CC6
:10336300000010101010101010101010101010107A
:1033730000013636010100010201000103010001D1
:103383000401060605020000070100340801000FCE
:10339300090401010D0100FF0E08000017020000DF
:1033A300190100FF1A0100011B0100FE1C010008A6
:1033B3001D0200001F010001200100012102000085
:1033C3002301000F24020000260100012701000849
:1033D300280200FF2A0100072B0102402C010000F4
:1033E3002D0100012E0100012F0100FF30010B1CF4
:1033F300310800003A0100083B01000F2F010000D3
:10340300C9EEDBDACAD0B0B2C1AAB5C2BFC6BCBC72
:10341300D3C3BBA7B5C7C2BCD5CABAC5C3DCC2EB4D
:10342300C8B7B6A8C8A1CFFBD7A8D2B5D7A8D7A28B
:10343300CEDECFDFCDA8D1B6B3CFD0C5C1A2D7E3FF
:10344300B4B4D0C2D6C2D4B6C7BFB4F3D4ADCEC21F
:10345300CAAAB6C8D6D5B6CBD2BBB6FEC8FDCBC4B6
:10346300CDA3CBAEB5E7D7C5BBF0B6CFCDF8B5D8B6
:10347300D6B7D0ADB5F7C6F7C2B7D3C9A3BAA1E6DD
:10348300A3A5000101710101010101110101013134
:1034930001010101018001100161013B001400637E
:1034A3000173017201620143010001130106013D31
:1034B30001350004011201000100010001000104B3
:1034C300010401330133013C0144013201360000A0
:1034D3000100016501000135008101000105018240
:1034E30001830100010302710230016002110270C5
:1034F300020102020202028002100261023A00414A
:103503000063027302720262024302000213023872
:103513000000020002040212020002000200020084
:103523000204020402370037003C0244020002395D
:10353300000002000265020002350281020002055A
:1035430002820283020002010371030103010301EA
:103553000301030103220302030103100300030019
:1035630003000300030003000300034203000324DA
:1035730003060300030003040312032503230325A7
:1035830003230304030403000300030003440300B1
:1035930003000323030003650321003503810300B4
:1035A3000305030003000300030304710402046022
:1035B30004110470040204020401040204100461EF
:1035C30004000414046304730472046204430400D7
:1035D3000413040604000400040404120400040099
:1035E30004000400045104640000040004000444C3
:1035F300040004000400040004650400043504818D
:103603000464000504000483040004030071003013
:10361300016000110070003102200350048000108B
:103623000061000000140063007300720062004335
:103633000000001300060000000000040012000058
:103643000000000000000004000400370037003CC5
:103653000244000000000000000000650000003587
:103663000081000000050000008300000036000117
:1036730000060000000F0000000000000000000032
:1036830000000003FFFF00000403FFFF0000FFFF33
:103693000FF4010005C4040320000100030B000024
:1036A30000000000000003010F00003A201300DABD
:1036B3001F01003A200200A41F0300AA1F0400B048
:1036C3001F0500B61F0600C21FFFFF000001C01543
:1036D30006F01508EA150BFC15103C1502C6150576
:1036E300DE1507CC150CA2150DB415FF000003EA77
:1036F300F5E5D5D5C5B5A5959585857575656555E7
:1037030055454535352525151505C819F819CE191B
:10371300D419F219E619E019FE19041A0A1A161A2D
:10372300DA19C219BC1900160F00000B150B0200A1
:1037330002220F32000006B21AC41ACA1A9219D012
:103743001A8C199819CC18C61802190819FC18B440
:10375300180C1B2A1B301B121B1E1B181B0C0E02E2
:103763000B040B0A0708000F00011916181616158B
:1037730023030000034948424D181725050200386A
:103783003C3E363B3B352B432C3030161819202357
:103793001A1C1E30303017181921301B1D1F30EC36
:1037A30019101A241B1C1A221A001BD61ADC1AE839
:1037B3001AE21A020402010101010902D818DE18F3
:1037C300D2180E19000000000000E418F61800BE1D
:1037D300040A15000E0004007F00E8030C00280013
:1037E300000000000308100C0A030809000400018C
:1037F300FF1E1E0C050408100FC082C0838A828B33
:1038030083E0D2E7F0121F08024973C082C08379B4
:1038130000123CC81269DFC082C083900334125780
:1038230065D083D082C3E09CA3E09D500C1270B39B
:10383300FAA3E012383F600109024973FBEA75F00D
:103843000BA4FAA8F075F00BEBA428FB900336E069
:103853002AF8A3E03B8882F583E0540F2274F71221
:103863000A688908123CC8123D6EACF075F00BE98A
:10387300A42CF9900336E028FEA3E039FF74016518
:103883000860067402650870208A828B83123D5A91
:10389300124A4174026508701B123C19123DA17053
:1038A300138E828F83E4F0800BEA2403FCEB123D3A
:1038B3003C123D48EEFAEFFB1226880249AB74F442
:1038C300120A681279DA79008E828F83E060768932
:1038D3000A890B8065E50A75F00BA4FAA8F075F068
:1038E3000BE50B12384C7046E50A75F00BA4F8AAE9
:1038F300F075F00BE50B123D808E828F83E0850817
:1039030082850983123E62850882850983A3124A50
:1039130041EE2403FCEF123D4512497A126459AA81
:1039230008AB091226887901900334125E6EE50A0A
:103933002401F50AE50B3400F50B123C21E50A9A44
:10394300E50B9B4090024BEB74F5120A68EAFEEB21
:10395300FF740B1212E912497F750A01EC4D602BBB
:10396300EC1279F6ED1269DF124A39790112267CDD
:10397300E5084509606F850882850983A31279E408
:103983007902AA08AB0912267C805AE5084509602A
:103993002B1269E31250AD12497B123D8B700CEE72
:1039A300FAEFFB1225F8E9F50A80CBEE2403FA12AD
:1039B3003CC370317903EEFAEFFB80CA8E828F83AA
:1039C300A3E064FE7003A3E0F4700BEE24030A0A81
:1039D3000A123CC3700CEEFAEFFB1225F8E9F50A64
:1039E3008003750A00A90A7F03020D1C74F7120AEB
:1039F300689003341249BBEA4B602FEA75F00BA4BD
:103A0300FAA8F075F00BEBA428FBEAFEEBFF121DFE
:103A1300229003361249BB900336125CB36012EE58
:103A2300FCEFFD7900121C868007900336E4F0A3B7
:103A3300F00249AB90033412541DC3EE98EF992260
:103A4300C082C083EC4D600512250280097C087D8D
:103A5300007900121C8602497374F6120A68790011
:103A6300EA4B601878008808126D26EB1270AF607D
:103A7300047901780808E8C3940840EA024A4A74C2
:103A8300F7120A6874F31210B2ECFEEDFF85188288
:103A9300851983E4F0041212E9EAF0A3EB1261DF63
:103AA30074031212E9AC82AD83EEFAEFFB1225DA4E
:103AB300EEFAEFFB121CC20249A674F7120A6874ED
:103AC300F31210B2ECFEEDFF851882851983E4F042
:103AD300EAFCEBFD74031212E9123E5B740112124D
:103AE300E9124A358E828F83124A4174FE6870034D
:103AF30074FF6960047901800279000249A674F7B2
:103B0300120A68EAFEEBFF123B5F7014123B6A8EE7
:103B1300828F83E0F4F88A828B83E058F012268840
:103B2300A9080249AB74F7120A68EAFEEBFF7508AD
:103B3300008E828F83E06022123B5F701D123B6A0E
:103B43008A828B83E08F838E82F8E058700CE0F8D2
:103B53008A828B83E048F012268880C4122682E989
:103B6300F50874016508221279EF123D72123CB414
:103B7300FAA3E039FB2274F4120A688A088B097CE1
:103B8300007D00123C19123D48123CD91279E179AB
:103B930000850882850983A3E064FE7003A3E0F433
:103BA30060717E007F008062EEFAEF12383F60574B
:103BB300EEFAEFFBEA75F00BA4FAA8F075F00BEB45
:103BC300A428FB900336E02AF50AA3E03BF50B8516
:103BD3000882850983A312612D850A82850B83A33D
:103BE300E06A7003A3E06B701EE50A2403FAE50B99
:103BF300123CC4700AE50A2403FCE50B123D45128E
:103C03003CCD79011269F51245B8123C21EE9AEFC9
:103C13009B4095024BEBEA24030A0A0AEB2290032A
:103C2300341265CCC32274F3120A688A088B098A9A
:103C3300828B83A31279E4123CC81279E1750C00DC
:103C4300123C19123CC470547E007F008049123C20
:103C5300A6FAA3E0398A82F583E0540F6036123C5A
:103C6300A6F50AA3E039F50BE50A2403FCE50B12DC
:103C73003D4F3400FB1224FCE964017017850A826E
:103C8300850B83A312668DA3124A41123CCD750C9A
:103C9300011269F51245B8123A3740B2A90C7F05F3
:103CA300020D1CEEF8EFF9E875F00BA4F8123CB422
:103CB30022AAF075F00BE9A42AF9900336E0282232
:103CC300EF123D9B221279F5EB22123CD91269F0D7
:103CD300EEF0A3EFF022E5081279F6E5092274F578
:103CE300120A68EAFEEBFF8E828F83A31279E47CCB
:103CF300007D00EE24030A0A0AEF123D48EEFAEFB4
:103D0300FB122682E9F50A7401650A70291279EF1C
:103D1300123D6EAAF075F00BE9123D80850882F51D
:103D230083123D5A123D8B700DE5082403FCE5090F
:103D3300123D3C123D480239E83400FDEE2403FAFB
:103D4300EF22123D4F3400FB1225DA223400FDE549
:103D5300082403FAE50922A3123D5F22123D6322E0
:103D6300E0F8A3E0F98E828F83A322123D722234FE
:103D730000F583125421E875F00BA4F822123CBA23
:103D8300F508A3E039F50922E8F0A3E9F0E50824F2
:103D930003FAE509123D9B22123DA164012234007E
:103DA300FB121CC2E92274F3120A6874E61210B201
:103DB3001279DA750C01750800750900750A00752A
:103DC3000B00851882851983E4F0EE2403FCEF349D
:103DD30000FD74031212E9123E5BE964017023745F
:103DE3000B1212E9124A3974011212E9126131708D
:103DF30003A3E0696051851882851983858208854C
:103E03008309740D1212E9E4123E62740E1212E970
:103E1300124A41740D1212E9AA82AB83121314E9F8
:103E23006401700B740D1212E985820A85830B7885
:103E33000A121021AC08AD09EEFAEFFB1225F27459
:103E430002121034E9F50CEEFAEFFB12130EA90C73
:103E5300741A121034023CA112412E12131A2212A8
:103E630049B612541D22C082C083780079008003B2
:103E7300123F59123C21E89AE99B5029E8FAE9FBE1
:103E8300EA75F00BA4FAACF075F00BEBA42CFB90E5
:103E93000336E02AFCA3E03B8C82F583E0540F70E9
:103EA300CF790080027901024973C082C0839037C1
:103EB300D5125473EC75F012A4FCA8F075F012ED52
:103EC300A428FD79FF7A367B0B121C860249737492
:103ED300F7120A68E9FEEAFF7A007B0078007900AE
:103EE3008028E8FCE9FDEC75F012A4FC85F0087568
:103EF300F012EDA4250812436EC39E400AE0FCEFC6
:103F0300C39C400312448D123F5912436240D302B3
:103F130049ABC082C083780079008003123F5912F5
:103F23003F4D501F124372F470F2E875F012A4F87B
:103F3300AAF075F012E9A42AF9743628FA740B3939
:103F4300FB80047A007B000249739037D512442327
:103F5300C3E89AE99B22E8240108E93400F92274B2
:103F6300F0120A6874F31210B28A0A8B0B8C0C8D50
:103F73000D8908EC450D6016AA0CAB0D1213688A67
:103F83000E8B0FAE0EAF0FEE4F60030240201213E5
:103F93003E8A0E8B0FA80EA90FE8FEE9FFE84960E1
:103FA3007C9037E5124082602274036508600674D2
:103FB30004650870167A0479031213389037E512F2
:103FC300409940077A007B0002407F9037E312401C
:103FD30082601B74016508600674026508700F7ABD
:103FE3000279011213389037E312409950D685189D
:103FF300828519837401F01212E9126459AC0CAD75
:104003000D74031212E9124127740B1212E91249BB
:1040130087124E21E412644112180C8004EE4F60A3
:104023004A780074FF2508C39404500278048E82F2
:104033008F831264598E828F83A3A3A3A3E508F011
:10404300E88E828F83A3A3A3A3A312646112081033
:1040530012443A8E828F83A3A3A3A3A3A3A3F01234
:1040630044311212BE1269D91212B21240874005AE
:10407300901092E4F01216E6EEFAEFFB02542712C8
:10408300657B49227A0479001213389037D5127070
:1040930095EA98EB99221240B27583377582D5E47D
:1040A30093C398F8A3E49399F9C3EA98EB9922E4AC
:1040B30093F8740193F92274F2120A6874F31210DC
:1040C300B28A088B09ECFEEDFF750A00EEFAEFFBEE
:1040D3001213688A0C8B0DA80CA90DE849603E8861
:1040E300828983E065087004A3E06509602F8882F4
:1040F3008983A3A3A3A3E0C39405502112688785F2
:1041030018828519837401F01212E912688BEEFC90
:10411300EFFD74031212E9124127750A01A90A740B
:104123000D025F2512412E12132622AA82AB83129F
:1041330025DA851882851983AA82AB832274F61245
:104143000A6812417C600FA3A3A3A3E014C39404E1
:104153005004790180027900024A4A74F6120A680F
:1041630012417C600FA3A3A3A3E014C394025004E1
:10417300790180027900024A4A1213628A828B8390
:10418300E58245832274F6120A6812417C600BA310
:10419300A3A3A3E07004790180027900024A4AC014
:1041A30082C083EAFCEBFD7A007B00024970C08287
:1041B300C0837C007D0002497074F4120A6874F3B2
:1041C3001210B2EAFEEBFF8C0A8D0BC3EC94F8EDF0
:1041D30094FF4007EE4F700302427575080075099E
:1041E30000802E8518828519837401F01245E01230
:1041F30012E91245EE601374031212E9AC82AD8327
:10420300EEFAEFFB1224FCE97049E508240112449D
:104213000E9037D5E4126583E50898E50999505265
:10422300E50875F012A4F8AAF075F012E509A42ABE
:10423300F91270C860D4EE4F70A974FF650A700458
:1042430074FF650B60C41245D0650A7004A3E06572
:104253000B70B7E50875F012A4F508A8F075F01215
:10426300E509A428F50974362508FA740B3509FB0A
:1042730080047A007B00024BE674F4120A6874F33C
:104283001210B27508001213688A0A8B0BAE0AAFBC
:104293000BEE4F602A85188285198374011249B089
:1042A300F8A3E0F9740B1212E9124AC41213087C42
:1042B300127D0079FFEEFAEFFB121C8675080112DE
:1042C300408750099010927401F01216E6A9080273
:1042D3004BE674F7120A68E9FE74FE6A700374FF12
:1042E3006B7800790070058052123F591243625077
:1042F3004AE8FCE9FDEC75F012A4FCAFF075F0128E
:10430300EDA42F12436EF460E0E8FCE9FDEC75F0D8
:1043130012A4FC75F012EDA42FFD74362CF58274F3
:104323000B3DF583E06A7003A3E06B70BC80091258
:10433300437214C394044017123F59123F4D50184F
:10434300EE70EC12437264016005E0640370E912DD
:1043530045C1FAA3E0FB80047AFE7BFF0249AB90E0
:1043630037D5125477C3E89CE99D221244C222E850
:10437300FAE9FBEA75F012A4FAACF075F012EBA4BB
:104383002CFB743A2AF582740B3BF583E02212135B
:104393007A024973C082C083790180F274F0120AF1
:1043A300688A0A8B0B7A0479011213388A0C8B0DF5
:1043B300EA450D603EEAC333FAEB33FB121D228A52
:1043C300088B09AE08AF09EE4F60237AFE7BFF121C
:1043D300138074FE6A700374FF6B601B850882850B
:1043E30009831249BBE508240212440E80E1750CCF
:1043F3000080047E007F00850A82850B83E50CF034
:10440300EEFAEFFB02542CE5082407F508E509341E
:1044130000F509229037D5125477C3EA9CEB9D220D
:10442300E493FA740193FB22121C7A740322126937
:10443300EAE4F09081A822E88E828F83A3A3A3A34A
:10444300A3A3A3A312445C740112445CA3F0EE245F
:10445300101269EDE4F0A3F022124E2DA3A3A322C0
:10446300C082C0837A007B0080041912448D1244F9
:104473001750101244ACC3940550F0E970EC124489
:104483009680047A007B00024973EA24010AEB3424
:1044930000FB22EA75F012A4FA75F012EBA428FBD4
:1044A30074362AFA740B3BFB22EAFCEBFDEC75F045
:1044B30012A4FCA8F075F012EDA4281244C222FD48
:1044C300743A2CF582740B3DF583E02274F7120ADB
:1044D3006874F31210B27E007F00024574E508751C
:1044E300F017A4F8A9F0127329FAA3E0FBEEF8EF92
:1044F300F9E875F012A4F8ACF075F012E9A42C12E7
:1045030045CF6A7003A3E06B603FE50875F017A41D
:10451300F8AAF0EA127328F8A3E0F974011212E979
:10452300E0687003A3E0696020E50875F017A4F85C
:10453300EAF974B228FC740C39FD74031212E9AA67
:1045430082AB831224FCE96014E50875F017A4F824
:10455300A9F074B028FA740C39FB121818050890E6
:1045630037E9E493F8E508C39850030244E01245A1
:10457300B89037D512766F5039EEF8EFF91245C17E
:10458300F47003A3E0F460E685188285198374014F
:10459300F0EEF8EFF9E875F012A4F875F012E9A45B
:1045A3002AF91245E01212E91245EE60C1750800BE
:1045B30080AD0249A6EE24010EEF3400FF22E87518
:1045C300F012A4F8AAF075F012E9A42AF91245D45E
:1045D30022743628F582740B39F583E02274382867
:1045E300F582740B3912541B740B22E8F0A3E91201
:1045F3004ACC121320E922C082C08390033D74D8B1
:10460300F0A37415F090033F74D2F0A37415F090E7
:10461300034374F2F0A37413F002497374F7120A9C
:1046230068EAFEEBFF900377E06408601BE0640434
:1046330060168E828F83E054036401704812497AB6
:10464300124F22E06406703D8E828F83A3A3E06441
:10465300FE7003A3E0F4602D8E828F83A3A3124A1E
:1046630035900368E0687003A3E069700BEE2415CE
:10467300F582EF1270AF6008121686E9F50880081C
:1046830012168C80F67508C2EEFAEFFB121D280293
:104693003B2374F4120A688A088B098A828B83E0AD
:1046A300F8A3E0FAE82AFAE43400FB121D228A0A8E
:1046B3008B0BAE0AAF0BEE4F6063850882850983CF
:1046C300E0FC7D007900121C868E828F83A3A312E7
:1046D30079E41216C88E828F83A3A3A3A31249BBC6
:1046E300850882850983E0F8EE28F8EF3400124A42
:1046F3003D850882850983A3E0C0E0EE240D12699D
:10470300DCD0E0F01216DAEE240E1269DCE9126056
:104713008EE0C0E0EE24111269DCD0E0F0EEFAEF97
:10472300FB024BEB74F6120A6874EB1210B2EAFE4A
:10473300EBFF125CB060030247CB7A077B00121DCC
:10474300229003391249BB125CB060788E828F834A
:104753001212BE90033A124F251212B21278A8C059
:10476300E01247D7D0E0F0EE2405FAEF3400FB8ADD
:10477300088B098A82F583E0C0E01247D2D0E012A9
:104783004BE2E0C0E01247D2A3D0E0124A27121254
:10479300BE8518828519831212B288828983E0C08C
:1047A300E074051212E9D0E0F0850882850983E000
:1047B300C0E074041212E9D0E0F074071212E91297
:1047C300490D80067910800279017415024A471257
:1047D30047D7A322900339E0FAA3E0F5838A82A3A3
:1047E300A3A3A322C082C083125CB0600D900339DF
:1047F3001265BA900339E4F0A3F01215F61217B854
:1048030002497374F0120A6874EB1210B2ECFEEDF5
:10481300FF890874251212E9780C12128774291281
:1048230012E9E0F9742A1212E9E0FC742B1212E97E
:10483300E0FD740F697005740F6C60129010E6E070
:104843006402700579C1024908E9C39C40F69003EC
:1048530078780C12125AE50890037EF0E990037CF5
:10486300F0ECA3F0ED90037FF074FF6A700374FF24
:104873006B701D9010F1E0F47003A3E0F470051267
:104883001C98800C9010F1124990E8F0A3E980077E
:10489300900375EAF0A3EBF0EE4F6017EEFAEFFB2F
:1048A300121878E96401700BEEFCEFFD7A897B0343
:1048B300122502900368E4F0A3F090036BF0A3F0D9
:1048C300900388F09010E6E06402700890037C7413
:1048D3000FF0A3F09003777405F0141212E9E4F0DB
:1048E3009003781212BE8518828519831212B29032
:1048F300037EE0C0E074051212E9D0E0F074071201
:1049030012E912490D7415025429E4124ACC1225F6
:104913002C22C082C083900338E07003121FD4128C
:1049230013C2804CC082C083900338E09010917012
:1049330004E4F0802D7401F0900338E0F460237CEC
:1049430041E0C394415002E0FCECF8E0C398F0EC82
:1049530075F0E8A4CCA8F075F003A428FD7A8012C2
:10496300547F7A917B10794112251A800312136EBA
:10497300D083D082020FE6EE1269EB22E0F508A3A2
:10498300E0F5092212498B22123D63A32212541D22
:104993009003752274F7120A68EB90037FF01215E7
:1049A300E48005740D1210347F01020D1C1249B608
:1049B300A3E022124A27A322EAF0A3EBF02274F722
:1049C300120A6874F81210B2EAFEEBFF7900900342
:1049D30077E06408704485188285198374FDF0A319
:1049E30074FFF01216C274021212E91249BB740565
:1049F3001212E9E41249B6E0C0E074041212E9D0DD
:104A0300E0124A22C0E074061212E9D0E0F0740703
:104A13001212E9E4124AC812170474080249A812D0
:104A23004A27E022F08E828F8322F085188285192F
:104A3300832212541D22E0F8A3E0F91269EAE8F098
:104A4300A3E9F0221210347F02020D1CC082C0833E
:104A53009003497482F0A37414F09003EF745EF032
:104A6300A37417F090034D74B8F0A37414F090037B
:104A73004F7482F0A37414F090035174BEF0A374C6
:104A830014F002497374F4120A6874F91210B28AAA
:104A9300088B098C0A8D0B85188285198378081277
:104AA300125A74041212E9E9F074051212E9E4F0DF
:104AB30074061212E9E4124AC81213AA7407024BCD
:104AC300E8E8F0A3E9124ACC22124A2DAA82AB836A
:104AD3002274F4120A688A088B098A828B8312690A
:104AE300F8EE4F7003024BE0900312125CB36015B3
:104AF3008A828B83A3A3E0F9EEFAEFFB90031312F0
:104B03004F2512274D8E828F83A3A3A3A3A3A3A311
:104B1300A3A3E0640270748E828F83A3A3A3A3A3D1
:104B2300A3E054027003024BB2850882850983A374
:104B3300A3E064E960798E828F83A3A3A3A3A3A3D5
:104B4300A3A3A3A3E070149010E9E0048E828F83E3
:104B5300A3A3A3A3A3A3A3A3A3A3F08E828F83A33F
:104B6300A3A3A3A3A3A3A3A3A3E014124BE2A3A30E
:104B7300A37404F09010EA126433E8F0A3E9127509
:104B83000C8B0BEA450B7003126EEA8E828F83A3A4
:104B9300A3A3A3A3A3A3A3A3E0640260128E828FA3
:104BA30083A3A3A3A3A3A3A3A3A3E06406702E8E4E
:104BB300828F83A3A3A3A3A3A3E0A2E0501F85082E
:104BC30082850983A3A3E0F9EEFAEFFB12262E8E6A
:104BD300828F83A3A3A3A3A3A3E054FEF0800912AF
:104BE3004E2922740D1210347F04020D1C74EC1232
:104BF3000A6874DD1210B2EAFEEBFF8C088D0974AB
:104C0300371212E9780C121287750A007405121212
:104C1300E9AC82AD83121C4474121212E9E07008ED
:104C230074151212E9E0602074051212E9E0A2E69D
:104C3300501E8E828F83A3A3A3A3A3A3A3A3A31214
:104C4300612D12173AE9600879031224EA024E0F24
:104C530074051212E9E0540C64047005750B0180AD
:104C630003750B00E0A2E55035750A01E50BA2E0E0
:104C7300402C1216C88A108B11A810A91112497A58
:104C8300E0687003A3E069601574051212E91279F4
:104C9300EB12612912263AE96004790480AC7405A9
:104CA3001212E9E0A2E6502274061212E9E054035C
:104CB300701874051212E9E0540C640C600CE05493
:104CC3000C640860057510018003751000740512EB
:104CD30012E9E05403F8740268700C1279EB126164
:104CE300291226AC024E0F740168703AE510A2E057
:104CF3005003124E1774051212E9A882A983740394
:104D03001212E9E8F0A3E912541185188285198378
:104D1300124E21E0C0E074021212E9D0E0124AC838
:104D230012271E024E0FE86003024E0F90035FE04E
:104D3300640170108E828F83A3A3A3A3A3A3E07047
:104D430003024C9D74221212E97402125411741A54
:104D53001212E9124A41E510A2E05008740512123A
:104D6300E9124E17E50BA2E0506AEE240FF582EF2D
:104D73001270AFC0E074171212E9D0E0F090031480
:104D8300125CB37003024E0F1216C88A128B13A85B
:104D930012A913741A1212E9E0687003A3E0697090
:104DA3006B780C121019780A12102578081210214A
:104DB300A910740C1212E9AC82AD8374211212E9AA
:104DC300AA82AB83900314124F2212274D74071249
:104DD30010348038780C121019780A1210257808CC
:104DE300121021900375120E1CEE2412F582EF129D
:104DF3006DDD74231212E9AC82AD83740E1212E9D5
:104E0300AA82AB831226227409121034742312105F
:104E1300340274D71279EB1265C812273C22E8F0EA
:104E2300A3E9124E2922124E2D22F08E828F83A3E4
:104E3300A3A3A3A3A32274F7120A68121EC00249F4
:104E4300AB74F7120A68121EC60249AB74F7120A52
:104E530068121ED20249ABC082C083121ECC024923
:104E63007374F7120A68121ED80249AB74F7120A58
:104E73006874091212E9E0F5087808121025121E69
:104E8300E474010249A8C082C083121EF002497370
:104E9300C082C083121EF602497374F7120A6812A5
:104EA3001EFC0249AB74F7120A68EAFEEBFF89089D
:104EB30074016508701479001214FA9037F4E493BE
:104EC300FC7900EEFAEFFB1214700249AB74F41292
:104ED3000A6874F91210B2E9FE8A088B098C0A8DEC
:104EE3000B74131212E912612D9005A9125CB360C1
:104EF30027EE851882851983F074011212E9780868
:104F030012125AEAF8EBF974051212E9124AC49024
:104F130005A9124F2212274D024ABFFB90034BE013
:104F2300F8A3E0F583888222C082C083121F2C027B
:104F3300497374F7120A68901094E0F97E00800BAD
:104F430012709B540D64017001190E12512F5003FE
:104F5300E970ED0249AB74F7120A68901095E0F915
:104F63007E00800B12709B548D64817001190E12A8
:104F7300512F5003E970ED0249AB74F2120A6889AC
:104F83000BE975F006A4240CF508E5F01244128A27
:104F93000CE508250CFAE5093400FB121D228A0CE6
:104FA3008B0DAE0CAF0DEE4F6027AC08AD09790049
:104FB300121C8612497AE50BF0EE2508F8EF350945
:104FC300F98E828F83A3A3A3A3A3A3A3A3A3124AAC
:104FD30041EEFAEFFB025F2874F6120A68EAFEEB71
:104FE300FF12144C901093E0F8E9C3984009900322
:104FF3004512612D121452EE2402F8EF12673D9010
:1050030003471265F7900347E004F0EEFAEFFB1253
:105013001458850882850983E0026BF3C082C0833C
:10502300790090034580010912612D8A828B83E503
:1050330082458370F202497374F7120A68EAFEEB41
:10504300FFEE4F6056900345125CB3604E88828931
:10505300837A007B00EE65827003EF6583600FAA9D
:1050630082AB831250A1E5824583602F80E79003D2
:10507300451250AD687002EF698E828F83700812FB
:105083004A3590034580031274E9124A41EEFAEF60
:10509300FB1226EEEEFAEFFB121D280249AB12506B
:1050A300A522125421888289832212541DEE22C024
:1050B30082C083900345800488828983125CB36035
:1050C3000B88828983125765EC4D70EC8A828B833F
:1050D300E4F0A3F0E84960068882898380039003A3
:1050E300451249BB02497374F7120A68900345805D
:1050F300048A828B8312512A4B60257E0080010E25
:1051030012512F50ECEE75F006A4FCADF0EA2CFC26
:10511300EB3DFDEC2410F582ED12517F70E180042C
:105123007A007B000249AB1265CCEA22125188EE69
:10513300C3982274F7120A687D0080010D1251840E
:10514300EDC3985034ED75F006A4FEA8F0E8FFEA2D
:105153002EFEEB3FFFEE2410F582EF12517F70DC41
:10516300ED75F006A4FEE8FFEA2EFAEB3FFBEA2416
:1051730011F582EB1270AF4CF00249AB1270BB69B0
:1051830022125188221279F5EB3400F583E0F822DC
:1051930074F6120A681215727A007B008025EAF809
:1051A300EBF9E875F006A4F8ACF075F006E9A42C69
:1051B3001265A11278B6A3E4126697F0A31278BC25
:1051C300127A339037DF12409140D37A007B00800C
:1051D3001C8A088B09740378081211E1126055A325
:1051E30074FEF0A304126477A3E4127A339037E8D1
:1051F30012523240DC7A007B00801D8A088B0974CE
:105203000378081211E174D8126D27740F12756EAA
:1052130074FEF0A304127A339037EE12523240DB5D
:105223009037F2E493900353F012523C024A4AE45B
:1052330093F8C3EA98EB9400227CE87D037A107B11
:10524300009003C2E0F9121DDC2274F0120A6874A4
:10525300F51210B28A088B09890A8C0BE9A2E05077
:10526300147508FC7509FFA2E15005D2E402530F3F
:10527300D2E302530F125F147003A3E06970057940
:10528300000253DCAC0A7902AA08AB0912154EE9F5
:1052930060EDE50AF50C780C12102579027CFE7D91
:1052A300FFAA08AB09125C8F121034E960030253A2
:1052B300DAE50AC2E5F50A9003B5E07051E50AA202
:1052C300E6404B74031212E9AC82AD83AA08AB0922
:1052D3001212FCE970321255B08A0C8B0DA80CA97E
:1052E3000DE8FEE9FFE8496025EE24020A0AEF1201
:1052F3003DA1601AEE2402FCEF3400FD7403121288
:10530300E9AA82AB83122502E50AD2E5F50A9003E6
:1053130048E0F50C900368E0F50EA3E0F50F780E76
:105323001210217D017C00900348E0F9AA0EAB0F17
:105333001215067402121034E9F8900348E004F0E1
:10534300E860030253DAE50AA2E55004740E800212
:105353007406C0E074011212E9D0E0126A098A0EE1
:105363008B0FAE0EAF0FEE4F60691253FA1254114A
:10537300888289837401F07478550AA31279FBE556
:105383000C1279FBA3E508F0E5091253E9E4F0E513
:105393000AA2E5500F74031212E9AC82AD83E8242C
:1053A300061253E08E828F83A3A374FDF0A374FFD0
:1053B300F0E50B60159037F5E493F8E50BC39850CF
:1053C30009EE24131269DCE50BF0EEFAEFFB12137E
:1053D3009E80067910800279C7740B8049FAE934FC
:1053E30000FB1225022288828983A3A3A3A312535D
:1053F300F522126770A322EE24171269ED7401F0EF
:105403001216C2EE241A1269EDEAF0A3EB22F0128F
:1054130079EF340012541B22F58312542122E0F851
:10542300A3E0F922740D1210347F08020D1C74F6E8
:10543300120A687A007B10126EF760089003D47426
:1054430001F0802990064AE064019010E77006E0BD
:10545300FC79018004E0FC79037A007B001214706C
:105463009037DD1254737A007B10125481024A4A3A
:1054730012547722E493FC740193FD227B00900382
:10548300C2E0F9121DD62274EC120A688A088B094D
:105493008C0C8D0D890E74141212E9125E6E741643
:1054A3001212E9E0F510A3E0F51112173AE96007CB
:1054B3007AFF7BFF0255AD9010E6E06402600302C1
:1054C30055A07900AA08AB09121554A90E12154864
:1054D3008A128B13AE12AF13EE4F70030255888EF0
:1054E300828F83A3A3A3A3A3E064018E828F83A3EC
:1054F300A3706912612D8E828F83A3A3A3A3A3A399
:10550300E0541860439037F3E4938E828F83A3A310
:10551300A3A3F0EA650C7003EB650D6014EA650A5A
:105523007003EB650B600AEA65107003EB6511709D
:105533001F7810121021AC0AAD0BAA0CAB0D121878
:105543003674021210348008900367126EE1A3F0E0
:1055530074FE6A700374FF6B601D804EA3A3A3E007
:10556300640360298E828F83A3A3A3A3A3E06404AF
:1055730070057AFE0254B58E828F83A3A3A3A3A3DF
:10558300E0640270089003B4E0640270101255B036
:105593008B0BEA450B6006AA08AB09800DAA08AB82
:1055A30009900349124F2212274D0274D7900375B5
:1055B300125C951217FA2274F7120A68EAFEEBFFDF
:1055C300121350E9700AEEFAEFFB12135CE960065E
:1055D300EEFAEFFB80047AFE7BFF0249AB74F01214
:1055E3000A688A0A8B0B8C0E8D0F890975080012C5
:1055F300173AE979006003025757AA0AAB0B121551
:1056030054A9091215488A0C8B0DAE0CAF0DEE4F41
:1056130060198E828F83A3A3A3A3A3E064027055B2
:105623009003B4E064027003025755AA0AAB0B90CF
:10563300034F124F2212274D1213628A0C8B0DA8AF
:105643000CA90DE849700302575588828983A3A3E7
:10565300A3A3A3E0A2E04003025755750C01A2E106
:1056630050687901AC0AAD0BAA0EAB0F1214A0E976
:1056730070640257558E828F83A3A3A3A3A3E06410
:10568300037005750C0280528E828F83A3A3A3A39C
:10569300A3E0640160030257559003751257658EAA
:1056A300828F83125ABA8A0C8B0DA80CA90DE84974
:1056B30060D19037ECE493FA88828983E0C39A50EF
:1056C300C2A3E0600302575580B988828983A3A3EC
:1056D300A3A3A3D2E1F0EE4F603A8E828F83A3A3FC
:1056E300A3A3A3A3E05418602B7508018E828F83B4
:1056F300A3A3120E1C750CFE750DFF780C1210215E
:105703007900AC0AAD0BAA0EAB0F12156674041226
:105713001034803E900368E0650E7004A3E0650FCB
:1057230070149037F4E493FCA909AA0AAB0B121482
:1057330070750801801CA90CAC0AAD0BAA0EAB0F47
:105743001214A0E9700C750801A909AA0AAB0B127F
:1057530014FAA90802542CE50C2415F582E50D1260
:1057630069F012644D2274EA120A6874F01210B2DE
:105773008A0C8B0D8C088D0974261212E9E0F5143E
:10578300A3E0F5157512069003F5125CB360239040
:105793000375125765AA08AB091218248A108B11D6
:1057A300EA4511600D8A828B83A3E07005790002BC
:1057B3005AA2E50C241DF50EE50D3400F50F850EF8
:1057C30082125C9FF51388828983A3A3A3E0FA88DE
:1057D300828983A3A3A3A3E0F9EA2400FEE439FFAB
:1057E300AA08AB09121500850E82850F83125ADDB4
:1057F300E029F50BE50AA2E5500375120E748755EF
:105803000A70177418550A6418600FE50C2417F50D
:1058130082E50D1270AF6512600779011224EA80E8
:105823008C530A78C3EE94F8EF94FF501D7900EE81
:10583300FAEFFB125AAC601288828983A3A3A3A355
:10584300A3A3E0541860030257B078081210217D17
:1058530000125AD0121034E9F87403687003025727
:10586300B0E8600302591B7418550A70030259D03B
:10587300E50AD2E0F50AA2E45004D2E1F50AA90A46
:10588300126126125AAC605388828983A3A3A3A30F
:10589300A3A3E05418604488828983A3A3A3A3A38A
:1058A300E064017036E510451160309003751257BE
:1058B3006588828983125ABA8A0E8B0FA80EA90FA4
:1058C300E849601788828983A3E0600F8510828589
:1058D3001183A3126BFE50030257B0E50AF50E784D
:1058E3000E121025125AC3121034E9702B7C007D5E
:1058F3000085148285158374FFF0A3F0850C8285DF
:105903000D83A3A3A3A3A3A3A3A3E0600312575AE6
:10591300A90B126126121EEA851482851583E0F411
:105923007003A3E0F460399003B4E06402700302EF
:1059330057B0125E5FE0FAA3E0124F1E12274DEA42
:1059430065087003EB650960030257B0EEFAEF12C6
:105953004F1E12274D851482851583EAF0A3EBF0C1
:1059630078081210217D01125AD0121034A90AEEC0
:10597300FAEFFB1215548A088B09A808A9099003AA
:1059830068E0687003A3E0696003025A93EEFAEFDC
:10599300FB1213628A088B09A808A909E849606EFB
:1059A30088828983A3A3A3A3E06401600D8882890D
:1059B30083A3A3A3A3E0640270548518828519838B
:1059C300AC82AD83EEFAEFFB1212FC8055900361BB
:1059D300E0600FE50AF50E780E121025125AC31275
:1059E3001034E50AF50E780E12102579027CFE7D3F
:1059F300FFEEFAEFFB125C8F121034E960030259D9
:105A03001B85148285158374FFF0A3025962121655
:105A1300C2EAFCEBFD851882851983AA82AB831247
:105A23002502850C82850D83A3A3A3A3A3A3A3A30C
:105A3300E06401700F12575A74081212E9AA82AB7C
:105A430083122502125C691268754430F5087808E0
:105A530012102574011212E98582088583097808DA
:105A6300121021740B1212E98582088583097808C4
:105A7300121021E513F50878081210257900EEFCC1
:105A8300EFFD12612612149A74061210340257B0F5
:105A9300125C691269DF125ADDE50BF01216DA7433
:105AA300101210347F0E020D1C1215488A0E8B0F34
:105AB300A80EA90FE84922A3A31265CC1218242229
:105AC3007901AC08AD091265C1125C8F22AC0BA938
:105AD300131265C112150674022212687DA3A3A3D3
:105AE300A32274F0120A6874F01210B28A0C8B0DA0
:105AF300ECFAEDFB750F089003F5125CB36014121A
:105B03006BF78A828B83E58245836007A3E070038A
:105B1300025C64125C693400125C9FF50B88828915
:105B230083125C72E0FBEC2400FEE43BFF88828975
